{
  "_format": "hh-sol-artifact-1",
  "contractName": "ConfidentialDonations",
  "sourceName": "contracts/ConfidentialDonations.sol",
  "abi": [
    {
      "anonymous": false,
      "inputs": [
        {
          "indexed": true,
          "internalType": "address",
          "name": "donor",
          "type": "address"
        },
        {
          "indexed": false,
          "internalType": "uint256",
          "name": "amount",
          "type": "uint256"
        }
      ],
      "name": "Donated",
      "type": "event"
    },
    {
      "inputs": [
        {
          "internalType": "address",
          "name": "recipient",
          "type": "address"
        }
      ],
      "name": "confidentialDonate",
      "outputs": [],
      "stateMutability": "payable",
      "type": "function"
    },
    {
      "inputs": [],
      "name": "getMyDonations",
      "outputs": [
        {
          "components": [
            {
              "internalType": "uint256",
              "name": "amount",
              "type": "uint256"
            },
            {
              "internalType": "uint256",
              "name": "timestamp",
              "type": "uint256"
            }
          ],
          "internalType": "struct ConfidentialDonations.Donation[]",
          "name": "",
          "type": "tuple[]"
        }
      ],
      "stateMutability": "view",
      "type": "function"
    },
    {
      "inputs": [],
      "name": "totalDonated",
      "outputs": [
        {
          "internalType": "uint256",
          "name": "",
          "type": "uint256"
        }
      ],
      "stateMutability": "view",
      "type": "function"
    }
  ],
  "bytecode": "0x6080604052348015600f57600080fd5b506105888061001f6000396000f3fe6080604052600436106100335760003560e01c8062b370441461003857806332ef51321461006357806390e4a1301461007f575b600080fd5b34801561004457600080fd5b5061004d6100aa565b60405161005a91906102b8565b60405180910390f35b61007d60048036038101906100789190610336565b6100b0565b005b34801561008b57600080fd5b506100946101ef565b6040516100a19190610450565b60405180910390f35b60005481565b600034116100f3576040517f08c379a00000000000000000000000000000000000000000000000000000000081526004016100ea906104cf565b60405180910390fd5b600160008273ffffffffffffffffffffffffffffffffffffffff1673ffffffffffffffffffffffffffffffffffffffff16815260200190815260200160002060405180604001604052803481526020014281525090806001815401808255809150506001900390600052602060002090600202016000909190919091506000820151816000015560208201518160010155505034600080828254610197919061051e565b925050819055508073ffffffffffffffffffffffffffffffffffffffff167f2a01595cddf097c90216094025db714da3f4e5bd8877b56ba86a24ecead8e543346040516101e491906102b8565b60405180910390a250565b6060600160003373ffffffffffffffffffffffffffffffffffffffff1673ffffffffffffffffffffffffffffffffffffffff168152602001908152602001600020805480602002602001604051908101604052809291908181526020016000905b8282101561029657838290600052602060002090600202016040518060400160405290816000820154815260200160018201548152505081526020019060010190610250565b50505050905090565b6000819050919050565b6102b28161029f565b82525050565b60006020820190506102cd60008301846102a9565b92915050565b600080fd5b600073ffffffffffffffffffffffffffffffffffffffff82169050919050565b6000610303826102d8565b9050919050565b610313816102f8565b811461031e57600080fd5b50565b6000813590506103308161030a565b92915050565b60006020828403121561034c5761034b6102d3565b5b600061035a84828501610321565b91505092915050565b600081519050919050565b600082825260208201905092915050565b6000819050602082019050919050565b6103988161029f565b82525050565b6040820160008201516103b4600085018261038f565b5060208201516103c7602085018261038f565b50505050565b60006103d9838361039e565b60408301905092915050565b6000602082019050919050565b60006103fd82610363565b610407818561036e565b93506104128361037f565b8060005b8381101561044357815161042a88826103cd565b9750610435836103e5565b925050600181019050610416565b5085935050505092915050565b6000602082019050818103600083015261046a81846103f2565b905092915050565b600082825260208201905092915050565b7f4d7573742073656e642045544800000000000000000000000000000000000000600082015250565b60006104b9600d83610472565b91506104c482610483565b602082019050919050565b600060208201905081810360008301526104e8816104ac565b9050919050565b7f4e487b7100000000000000000000000000000000000000000000000000000000600052601160045260246000fd5b60006105298261029f565b91506105348361029f565b925082820190508082111561054c5761054b6104ef565b5b9291505056fea264697066735822122049b34609016940fec7b3f05f599fbdb88f97cf1b652f3d9476aec781136b584e64736f6c634300081c0033",
  "linkReferences": {},
  "deployedLinkReferences": {}
}