{
  "_format": "hh-sol-artifact-1",
  "contractName": "ConfidentialDonations",
  "sourceName": "contracts/ConfidentialDonations.sol",
  "abi": [
    {
      "anonymous": false,
      "inputs": [
        {
          "indexed": true,
          "internalType": "address",
          "name": "donor",
          "type": "address"
        },
        {
          "indexed": false,
          "internalType": "uint256",
          "name": "amount",
          "type": "uint256"
        }
      ],
      "name": "Donated",
      "type": "event"
    },
    {
      "inputs": [],
      "name": "donate",
      "outputs": [],
      "stateMutability": "payable",
      "type": "function"
    },
    {
      "inputs": [],
      "name": "getMyDonations",
      "outputs": [
        {
          "components": [
            {
              "internalType": "uint256",
              "name": "amount",
              "type": "uint256"
            },
            {
              "internalType": "uint256",
              "name": "timestamp",
              "type": "uint256"
            }
          ],
          "internalType": "struct ConfidentialDonations.Donation[]",
          "name": "",
          "type": "tuple[]"
        }
      ],
      "stateMutability": "view",
      "type": "function"
    },
    {
      "inputs": [],
      "name": "totalDonated",
      "outputs": [
        {
          "internalType": "uint256",
          "name": "",
          "type": "uint256"
        }
      ],
      "stateMutability": "view",
      "type": "function"
    }
  ],
  "bytecode": "0x6080604052348015600f57600080fd5b506104e58061001f6000396000f3fe6080604052600436106100335760003560e01c8062b370441461003857806390e4a13014610063578063ed88c68e1461008e575b600080fd5b34801561004457600080fd5b5061004d610098565b60405161005a91906102a5565b60405180910390f35b34801561006f57600080fd5b5061007861009e565b60405161008591906103ad565b60405180910390f35b61009661014e565b005b60005481565b6060600160003373ffffffffffffffffffffffffffffffffffffffff1673ffffffffffffffffffffffffffffffffffffffff168152602001908152602001600020805480602002602001604051908101604052809291908181526020016000905b82821015610145578382906000526020600020906002020160405180604001604052908160008201548152602001600182015481525050815260200190600101906100ff565b50505050905090565b60003411610191576040517f08c379a00000000000000000000000000000000000000000000000000000000081526004016101889061042c565b60405180910390fd5b600160003373ffffffffffffffffffffffffffffffffffffffff1673ffffffffffffffffffffffffffffffffffffffff16815260200190815260200160002060405180604001604052803481526020014281525090806001815401808255809150506001900390600052602060002090600202016000909190919091506000820151816000015560208201518160010155505034600080828254610235919061047b565b925050819055503373ffffffffffffffffffffffffffffffffffffffff167f2a01595cddf097c90216094025db714da3f4e5bd8877b56ba86a24ecead8e5433460405161028291906102a5565b60405180910390a2565b6000819050919050565b61029f8161028c565b82525050565b60006020820190506102ba6000830184610296565b92915050565b600081519050919050565b600082825260208201905092915050565b6000819050602082019050919050565b6102f58161028c565b82525050565b60408201600082015161031160008501826102ec565b50602082015161032460208501826102ec565b50505050565b600061033683836102fb565b60408301905092915050565b6000602082019050919050565b600061035a826102c0565b61036481856102cb565b935061036f836102dc565b8060005b838110156103a0578151610387888261032a565b975061039283610342565b925050600181019050610373565b5085935050505092915050565b600060208201905081810360008301526103c7818461034f565b905092915050565b600082825260208201905092915050565b7f4d7573742073656e642045544800000000000000000000000000000000000000600082015250565b6000610416600d836103cf565b9150610421826103e0565b602082019050919050565b6000602082019050818103600083015261044581610409565b9050919050565b7f4e487b7100000000000000000000000000000000000000000000000000000000600052601160045260246000fd5b60006104868261028c565b91506104918361028c565b92508282019050808211156104a9576104a861044c565b5b9291505056fea26469706673582212202a418e543a71b297c3fd21c9de78d8fa3c0bb633813f62e07d0701d1c376deff64736f6c634300081c0033",
  "linkReferences": {},
  "deployedLinkReferences": {}
}