{
	"data": {
		"bytecode": {
			"linkReferences": {},
			"object": "608060405234801561000f575f5ffd5b50604051614b64380380614b6483398181016040528101906100319190610248565b6040518060400160405280600881526020017f416964436861696e0000000000000000000000000000000000000000000000008152506040518060400160405280600381526020017f4149440000000000000000000000000000000000000000000000000000000000815250815f90816100ab91906104b0565b5080600190816100bb91906104b0565b5050506100da6100cf61012060201b60201c565b61012760201b60201c565b8060095f6101000a81548173ffffffffffffffffffffffffffffffffffffffff021916908373ffffffffffffffffffffffffffffffffffffffff1602179055505061057f565b5f33905090565b5f60065f9054906101000a900473ffffffffffffffffffffffffffffffffffffffff1690508160065f6101000a81548173ffffffffffffffffffffffffffffffffffffffff021916908373ffffffffffffffffffffffffffffffffffffffff1602179055508173ffffffffffffffffffffffffffffffffffffffff168173ffffffffffffffffffffffffffffffffffffffff167f8be0079c531659141344cd1fd0a4f28419497f9722a3daafe3b4186f6b6457e060405160405180910390a35050565b5f5ffd5b5f73ffffffffffffffffffffffffffffffffffffffff82169050919050565b5f610217826101ee565b9050919050565b6102278161020d565b8114610231575f5ffd5b50565b5f815190506102428161021e565b92915050565b5f6020828403121561025d5761025c6101ea565b5b5f61026a84828501610234565b91505092915050565b5f81519050919050565b7f4e487b71000000000000000000000000000000000000000000000000000000005f52604160045260245ffd5b7f4e487b71000000000000000000000000000000000000000000000000000000005f52602260045260245ffd5b5f60028204905060018216806102ee57607f821691505b602082108103610301576103006102aa565b5b50919050565b5f819050815f5260205f209050919050565b5f6020601f8301049050919050565b5f82821b905092915050565b5f600883026103637fffffffffffffffffffffffffffffffffffffffffffffffffffffffffffffffff82610328565b61036d8683610328565b95508019841693508086168417925050509392505050565b5f819050919050565b5f819050919050565b5f6103b16103ac6103a784610385565b61038e565b610385565b9050919050565b5f819050919050565b6103ca83610397565b6103de6103d6826103b8565b848454610334565b825550505050565b5f5f905090565b6103f56103e6565b6104008184846103c1565b505050565b5b81811015610423576104185f826103ed565b600181019050610406565b5050565b601f8211156104685761043981610307565b61044284610319565b81016020851015610451578190505b61046561045d85610319565b830182610405565b50505b505050565b5f82821c905092915050565b5f6104885f198460080261046d565b1980831691505092915050565b5f6104a08383610479565b9150826002028217905092915050565b6104b982610273565b67ffffffffffffffff8111156104d2576104d161027d565b5b6104dc82546102d7565b6104e7828285610427565b5f60209050601f831160018114610518575f8415610506578287015190505b6105108582610495565b865550610577565b601f19841661052686610307565b5f5b8281101561054d57848901518255600182019150602085019450602081019050610528565b8683101561056a5784890151610566601f891682610479565b8355505b6001600288020188555050505b505050505050565b6145d88061058c5f395ff3fe608060405260043610610218575f3560e01c806370a0823111610122578063ad4816a6116100aa578063e25f84161161006e578063e25f8416146107d4578063e985e9c5146107fe578063ed88c68e1461083a578063f2fde38b14610844578063f8626af81461086c57610218565b8063ad4816a6146106ce578063b88d4fde1461070a578063c87b56dd14610732578063c9baa9621461076e578063dead610a1461079857610218565b80638da5cb5b116100f15780638da5cb5b146105ee57806395d89b4114610618578063a22cb46514610642578063a51eb8431461066a578063aa4a153e146106a657610218565b806370a082311461054c578063715018a61461058857806376d45a091461059e5780638bcb7a50146105c657610218565b806325dc602c116101a557806342842e0e1161017457806342842e0e146104805780634294e544146104a85780634348e0e9146104d05780635b73d3f4146104fa5780636352211e1461051057610218565b806325dc602c146103f057806337cb2e091461041a5780633ccfd60b146104425780633fdfda3b1461045857610218565b8063081812fc116101ec578063081812fc146102ec578063095ea7b31461032857806317294a11146103505780632383d9cd1461038c57806323b872dd146103c857610218565b8062b370441461021c57806301ffc9a7146102465780630584c5bd1461028257806306fdde03146102c2575b5f5ffd5b348015610227575f5ffd5b506102306108aa565b60405161023d9190612d27565b60405180910390f35b348015610251575f5ffd5b5061026c60048036038101906102679190612da6565b6108b0565b6040516102799190612deb565b60405180910390f35b34801561028d575f5ffd5b506102a860048036038101906102a39190612e5e565b610991565b6040516102b9959493929190612f08565b60405180910390f35b3480156102cd575f5ffd5b506102d6610a81565b6040516102e39190612f60565b60405180910390f35b3480156102f7575f5ffd5b50610312600480360381019061030d9190612faa565b610b10565b60405161031f9190612fd5565b60405180910390f35b348015610333575f5ffd5b5061034e60048036038101906103499190612fee565b610b52565b005b34801561035b575f5ffd5b5061037660048036038101906103719190612e5e565b610c68565b6040516103839190612deb565b60405180910390f35b348015610397575f5ffd5b506103b260048036038101906103ad9190612e5e565b610c85565b6040516103bf9190612deb565b60405180910390f35b3480156103d3575f5ffd5b506103ee60048036038101906103e9919061302c565b610ca2565b005b3480156103fb575f5ffd5b50610404610d02565b6040516104119190613133565b60405180910390f35b348015610425575f5ffd5b50610440600480360381019061043b9190612e5e565b610d8d565b005b34801561044d575f5ffd5b50610456610ded565b005b348015610463575f5ffd5b5061047e60048036038101906104799190612e5e565b610e42565b005b34801561048b575f5ffd5b506104a660048036038101906104a1919061302c565b610fde565b005b3480156104b3575f5ffd5b506104ce60048036038101906104c99190612e5e565b610ffd565b005b3480156104db575f5ffd5b506104e461105c565b6040516104f191906131ae565b60405180910390f35b348015610505575f5ffd5b5061050e611081565b005b34801561051b575f5ffd5b5061053660048036038101906105319190612faa565b611330565b6040516105439190612fd5565b60405180910390f35b348015610557575f5ffd5b50610572600480360381019061056d9190612e5e565b6113b4565b60405161057f9190612d27565b60405180910390f35b348015610593575f5ffd5b5061059c611468565b005b3480156105a9575f5ffd5b506105c460048036038101906105bf9190612e5e565b61147b565b005b3480156105d1575f5ffd5b506105ec60048036038101906105e791906132f3565b61164d565b005b3480156105f9575f5ffd5b50610602611b35565b60405161060f9190612fd5565b60405180910390f35b348015610623575f5ffd5b5061062c611b5d565b6040516106399190612f60565b60405180910390f35b34801561064d575f5ffd5b5061066860048036038101906106639190613364565b611bed565b005b348015610675575f5ffd5b50610690600480360381019061068b9190612e5e565b611c03565b60405161069d9190612deb565b60405180910390f35b3480156106b1575f5ffd5b506106cc60048036038101906106c79190612e5e565b611c20565b005b3480156106d9575f5ffd5b506106f460048036038101906106ef9190612faa565b611dbc565b6040516107019190612fd5565b60405180910390f35b348015610715575f5ffd5b50610730600480360381019061072b9190613440565b611df7565b005b34801561073d575f5ffd5b5061075860048036038101906107539190612faa565b611e59565b6040516107659190612f60565b60405180910390f35b348015610779575f5ffd5b50610782611eed565b60405161078f9190612d27565b60405180910390f35b3480156107a3575f5ffd5b506107be60048036038101906107b99190612e5e565b611ef8565b6040516107cb9190612deb565b60405180910390f35b3480156107df575f5ffd5b506107e8611f15565b6040516107f591906135b7565b60405180910390f35b348015610809575f5ffd5b50610824600480360381019061081f91906135d7565b611fd9565b6040516108319190612deb565b60405180910390f35b610842612067565b005b34801561084f575f5ffd5b5061086a60048036038101906108659190612e5e565b61221b565b005b348015610877575f5ffd5b50610892600480360381019061088d9190612faa565b61229d565b6040516108a193929190613615565b60405180910390f35b60115481565b5f7f80ac58cd000000000000000000000000000000000000000000000000000000007bffffffffffffffffffffffffffffffffffffffffffffffffffffffff1916827bffffffffffffffffffffffffffffffffffffffffffffffffffffffff1916148061097a57507f5b5e139f000000000000000000000000000000000000000000000000000000007bffffffffffffffffffffffffffffffffffffffffffffffffffffffff1916827bffffffffffffffffffffffffffffffffffffffffffffffffffffffff1916145b8061098a5750610989826122f1565b5b9050919050565b600d602052805f5260405f205f91509050805f015f9054906101000a900473ffffffffffffffffffffffffffffffffffffffff16908060010180546109d590613677565b80601f0160208091040260200160405190810160405280929190818152602001828054610a0190613677565b8015610a4c5780601f10610a2357610100808354040283529160200191610a4c565b820191905f5260205f20905b815481529060010190602001808311610a2f57829003601f168201915b505050505090806002015490806003015f9054906101000a900460ff16908060030160019054906101000a900460ff16905085565b60605f8054610a8f90613677565b80601f0160208091040260200160405190810160405280929190818152602001828054610abb90613677565b8015610b065780601f10610add57610100808354040283529160200191610b06565b820191905f5260205f20905b815481529060010190602001808311610ae957829003601f168201915b5050505050905090565b5f610b1a8261235a565b60045f8381526020019081526020015f205f9054906101000a900473ffffffffffffffffffffffffffffffffffffffff169050919050565b5f610b5c82611330565b90508073ffffffffffffffffffffffffffffffffffffffff168373ffffffffffffffffffffffffffffffffffffffff1603610bcc576040517f08c379a0000000000000000000000000000000000000000000000000000000008152600401610bc390613717565b60405180910390fd5b8073ffffffffffffffffffffffffffffffffffffffff16610beb6123a5565b73ffffffffffffffffffffffffffffffffffffffff161480610c1a5750610c1981610c146123a5565b611fd9565b5b610c59576040517f08c379a0000000000000000000000000000000000000000000000000000000008152600401610c50906137a5565b60405180910390fd5b610c6383836123ac565b505050565b600c602052805f5260405f205f915054906101000a900460ff1681565b600e602052805f5260405f205f915054906101000a900460ff1681565b610cb3610cad6123a5565b82612462565b610cf2576040517f08c379a0000000000000000000000000000000000000000000000000000000008152600401610ce990613833565b60405180910390fd5b610cfd8383836124f6565b505050565b60606010805480602002602001604051908101604052809291908181526020018280548015610d8357602002820191905f5260205f20905b815f9054906101000a900473ffffffffffffffffffffffffffffffffffffffff1673ffffffffffffffffffffffffffffffffffffffff1681526020019060010190808311610d3a575b5050505050905090565b610d956127e2565b6001600e5f8373ffffffffffffffffffffffffffffffffffffffff1673ffffffffffffffffffffffffffffffffffffffff1681526020019081526020015f205f6101000a81548160ff02191690831515021790555050565b610df56127e2565b610dfd611b35565b73ffffffffffffffffffffffffffffffffffffffff166108fc4790811502906040515f60405180830381858888f19350505050158015610e3f573d5f5f3e3d5ffd5b50565b610e4a6127e2565b600c5f8273ffffffffffffffffffffffffffffffffffffffff1673ffffffffffffffffffffffffffffffffffffffff1681526020019081526020015f205f9054906101000a900460ff16610ed3576040517f08c379a0000000000000000000000000000000000000000000000000000000008152600401610eca9061389b565b60405180910390fd5b5f60405180606001604052806027815260200161457c60279139905060095f9054906101000a900473ffffffffffffffffffffffffffffffffffffffff1673ffffffffffffffffffffffffffffffffffffffff16636b2bafc883836040518363ffffffff1660e01b8152600401610f4b9291906138b9565b6020604051808303815f875af1158015610f67573d5f5f3e3d5ffd5b505050506040513d601f19601f82011682018060405250810190610f8b91906138fb565b508173ffffffffffffffffffffffffffffffffffffffff167fd60ca36c50bf9e309008979c6e4aa0298dfde37cf18de60c2a6fd074bcdc3acc42604051610fd29190612d27565b60405180910390a25050565b610ff883838360405180602001604052805f815250611df7565b505050565b6110056127e2565b5f600e5f8373ffffffffffffffffffffffffffffffffffffffff1673ffffffffffffffffffffffffffffffffffffffff1681526020019081526020015f205f6101000a81548160ff02191690831515021790555050565b60095f9054906101000a900473ffffffffffffffffffffffffffffffffffffffff1681565b600a5f3373ffffffffffffffffffffffffffffffffffffffff1673ffffffffffffffffffffffffffffffffffffffff1681526020019081526020015f205f9054906101000a900460ff1661110a576040517f08c379a000000000000000000000000000000000000000000000000000000000815260040161110190613970565b60405180910390fd5b600b5f3373ffffffffffffffffffffffffffffffffffffffff1673ffffffffffffffffffffffffffffffffffffffff1681526020019081526020015f205f9054906101000a900460ff1615611194576040517f08c379a000000000000000000000000000000000000000000000000000000000815260040161118b906139d8565b60405180910390fd5b662386f26fc100004710156111de576040517f08c379a00000000000000000000000000000000000000000000000000000000081526004016111d590613a40565b60405180910390fd5b6001600b5f3373ffffffffffffffffffffffffffffffffffffffff1673ffffffffffffffffffffffffffffffffffffffff1681526020019081526020015f205f6101000a81548160ff0219169083151502179055506001600d5f3373ffffffffffffffffffffffffffffffffffffffff1673ffffffffffffffffffffffffffffffffffffffff1681526020019081526020015f2060030160016101000a81548160ff0219169083151502179055503373ffffffffffffffffffffffffffffffffffffffff166108fc662386f26fc1000090811502906040515f60405180830381858888f193505050501580156112d6573d5f5f3e3d5ffd5b503373ffffffffffffffffffffffffffffffffffffffff167f1be6ef4e23449c13f63df2c1ab3b05b62141b0f9fafff909eeca35fba77d9747662386f26fc1000042604051611326929190613a5e565b60405180910390a2565b5f5f61133b83612860565b90505f73ffffffffffffffffffffffffffffffffffffffff168173ffffffffffffffffffffffffffffffffffffffff16036113ab576040517f08c379a00000000000000000000000000000000000000000000000000000000081526004016113a290613acf565b60405180910390fd5b80915050919050565b5f5f73ffffffffffffffffffffffffffffffffffffffff168273ffffffffffffffffffffffffffffffffffffffff1603611423576040517f08c379a000000000000000000000000000000000000000000000000000000000815260040161141a90613b5d565b60405180910390fd5b60035f8373ffffffffffffffffffffffffffffffffffffffff1673ffffffffffffffffffffffffffffffffffffffff1681526020019081526020015f20549050919050565b6114706127e2565b6114795f612899565b565b6114836127e2565b5f73ffffffffffffffffffffffffffffffffffffffff16600d5f8373ffffffffffffffffffffffffffffffffffffffff1673ffffffffffffffffffffffffffffffffffffffff1681526020019081526020015f205f015f9054906101000a900473ffffffffffffffffffffffffffffffffffffffff1673ffffffffffffffffffffffffffffffffffffffff160361154f576040517f08c379a000000000000000000000000000000000000000000000000000000000815260040161154690613bc5565b60405180910390fd5b6001600a5f8373ffffffffffffffffffffffffffffffffffffffff1673ffffffffffffffffffffffffffffffffffffffff1681526020019081526020015f205f6101000a81548160ff0219169083151502179055506001600d5f8373ffffffffffffffffffffffffffffffffffffffff1673ffffffffffffffffffffffffffffffffffffffff1681526020019081526020015f206003015f6101000a81548160ff0219169083151502179055508073ffffffffffffffffffffffffffffffffffffffff167f02ce9e98b6ee046ced5fc4c08ba7e9d2cda7cb3b81cf8dee9b16c620ec103f3f426040516116429190612d27565b60405180910390a250565b5f815111611690576040517f08c379a000000000000000000000000000000000000000000000000000000000815260040161168790613c2d565b60405180910390fd5b5f73ffffffffffffffffffffffffffffffffffffffff16600d5f3373ffffffffffffffffffffffffffffffffffffffff1673ffffffffffffffffffffffffffffffffffffffff1681526020019081526020015f205f015f9054906101000a900473ffffffffffffffffffffffffffffffffffffffff1673ffffffffffffffffffffffffffffffffffffffff161461175c576040517f08c379a000000000000000000000000000000000000000000000000000000000815260040161175390613c95565b60405180910390fd5b6040518060a001604052803373ffffffffffffffffffffffffffffffffffffffff1681526020018281526020014281526020015f151581526020015f1515815250600d5f3373ffffffffffffffffffffffffffffffffffffffff1673ffffffffffffffffffffffffffffffffffffffff1681526020019081526020015f205f820151815f015f6101000a81548173ffffffffffffffffffffffffffffffffffffffff021916908373ffffffffffffffffffffffffffffffffffffffff16021790555060208201518160010190816118339190613e4a565b50604082015181600201556060820151816003015f6101000a81548160ff02191690831515021790555060808201518160030160016101000a81548160ff021916908315150217905550905050601033908060018154018082558091505060019003905f5260205f20015f9091909190916101000a81548173ffffffffffffffffffffffffffffffffffffffff021916908373ffffffffffffffffffffffffffffffffffffffff1602179055505f600b5f3373ffffffffffffffffffffffffffffffffffffffff1673ffffffffffffffffffffffffffffffffffffffff1681526020019081526020015f205f9054906101000a900460ff1615801561197f5750600e5f3373ffffffffffffffffffffffffffffffffffffffff1673ffffffffffffffffffffffffffffffffffffffff1681526020019081526020015f205f9054906101000a900460ff16155b801561198c575060148251115b90508015611a94576001600a5f3373ffffffffffffffffffffffffffffffffffffffff1673ffffffffffffffffffffffffffffffffffffffff1681526020019081526020015f205f6101000a81548160ff0219169083151502179055506001600d5f3373ffffffffffffffffffffffffffffffffffffffff1673ffffffffffffffffffffffffffffffffffffffff1681526020019081526020015f206003015f6101000a81548160ff0219169083151502179055503373ffffffffffffffffffffffffffffffffffffffff167f5f7e089e3c333c0c497ff958820a2cede15459e1f63afca63463b0b433801b7942604051611a879190612d27565b60405180910390a2611ae1565b3373ffffffffffffffffffffffffffffffffffffffff167fe5415ca3abf5b6acf5425668972544916089f6fa30341a178cca6268eaf97793604051611ad890613f89565b60405180910390a25b3373ffffffffffffffffffffffffffffffffffffffff167f1a2ad18786286bec54a7b127416f42c08e7fc8aa4b07409a970f14d4adad03b68342604051611b29929190613fa7565b60405180910390a25050565b5f60065f9054906101000a900473ffffffffffffffffffffffffffffffffffffffff16905090565b606060018054611b6c90613677565b80601f0160208091040260200160405190810160405280929190818152602001828054611b9890613677565b8015611be35780601f10611bba57610100808354040283529160200191611be3565b820191905f5260205f20905b815481529060010190602001808311611bc657829003601f168201915b5050505050905090565b611bff611bf86123a5565b838361295c565b5050565b600b602052805f5260405f205f915054906101000a900460ff1681565b611c286127e2565b600b5f8273ffffffffffffffffffffffffffffffffffffffff1673ffffffffffffffffffffffffffffffffffffffff1681526020019081526020015f205f9054906101000a900460ff16611cb1576040517f08c379a0000000000000000000000000000000000000000000000000000000008152600401611ca89061401f565b60405180910390fd5b5f6040518060600160405280602b8152602001614551602b9139905060095f9054906101000a900473ffffffffffffffffffffffffffffffffffffffff1673ffffffffffffffffffffffffffffffffffffffff16636b2bafc883836040518363ffffffff1660e01b8152600401611d299291906138b9565b6020604051808303815f875af1158015611d45573d5f5f3e3d5ffd5b505050506040513d601f19601f82011682018060405250810190611d6991906138fb565b508173ffffffffffffffffffffffffffffffffffffffff167f8294662f8b02bd601715558a8f649eb561d3dce2a1590609bfb921b5b5b750c742604051611db09190612d27565b60405180910390a25050565b60108181548110611dcb575f80fd5b905f5260205f20015f915054906101000a900473ffffffffffffffffffffffffffffffffffffffff1681565b611e08611e026123a5565b83612462565b611e47576040517f08c379a0000000000000000000000000000000000000000000000000000000008152600401611e3e90613833565b60405180910390fd5b611e5384848484612ac3565b50505050565b6060611e6482612b1f565b611ea3576040517f08c379a0000000000000000000000000000000000000000000000000000000008152600401611e9a90614087565b60405180910390fd5b6127108211611ecc5760405180606001604052806027815260200161457c602791399050611ee8565b6040518060600160405280602b8152602001614551602b913990505b919050565b662386f26fc1000081565b600a602052805f5260405f205f915054906101000a900460ff1681565b6060600f805480602002602001604051908101604052809291908181526020015f905b82821015611fd0578382905f5260205f2090600302016040518060600160405290815f82015f9054906101000a900473ffffffffffffffffffffffffffffffffffffffff1673ffffffffffffffffffffffffffffffffffffffff1673ffffffffffffffffffffffffffffffffffffffff1681526020016001820154815260200160028201548152505081526020019060010190611f38565b50505050905090565b5f60055f8473ffffffffffffffffffffffffffffffffffffffff1673ffffffffffffffffffffffffffffffffffffffff1681526020019081526020015f205f8373ffffffffffffffffffffffffffffffffffffffff1673ffffffffffffffffffffffffffffffffffffffff1681526020019081526020015f205f9054906101000a900460ff16905092915050565b5f34116120a9576040517f08c379a00000000000000000000000000000000000000000000000000000000081526004016120a0906140ef565b60405180910390fd5b600f60405180606001604052803373ffffffffffffffffffffffffffffffffffffffff16815260200134815260200142815250908060018154018082558091505060019003905f5260205f2090600302015f909190919091505f820151815f015f6101000a81548173ffffffffffffffffffffffffffffffffffffffff021916908373ffffffffffffffffffffffffffffffffffffffff160217905550602082015181600101556040820151816002015550503460115f82825461216d919061413a565b925050819055506001600c5f3373ffffffffffffffffffffffffffffffffffffffff1673ffffffffffffffffffffffffffffffffffffffff1681526020019081526020015f205f6101000a81548160ff0219169083151502179055503373ffffffffffffffffffffffffffffffffffffffff167f4b0304ab2f313234b1cea012339c8f8c3bf2c8bb357d81a579cfdb35d2e3d0303442604051612211929190613a5e565b60405180910390a2565b6122236127e2565b5f73ffffffffffffffffffffffffffffffffffffffff168173ffffffffffffffffffffffffffffffffffffffff1603612291576040517f08c379a0000000000000000000000000000000000000000000000000000000008152600401612288906141dd565b60405180910390fd5b61229a81612899565b50565b600f81815481106122ac575f80fd5b905f5260205f2090600302015f91509050805f015f9054906101000a900473ffffffffffffffffffffffffffffffffffffffff16908060010154908060020154905083565b5f7f01ffc9a7000000000000000000000000000000000000000000000000000000007bffffffffffffffffffffffffffffffffffffffffffffffffffffffff1916827bffffffffffffffffffffffffffffffffffffffffffffffffffffffff1916149050919050565b61236381612b1f565b6123a2576040517f08c379a000000000000000000000000000000000000000000000000000000000815260040161239990613acf565b60405180910390fd5b50565b5f33905090565b8160045f8381526020019081526020015f205f6101000a81548173ffffffffffffffffffffffffffffffffffffffff021916908373ffffffffffffffffffffffffffffffffffffffff160217905550808273ffffffffffffffffffffffffffffffffffffffff1661241c83611330565b73ffffffffffffffffffffffffffffffffffffffff167f8c5be1e5ebec7d5bd14f71427d1e84f3dd0314c0f7b2291e5b200ac8c7c3b92560405160405180910390a45050565b5f5f61246d83611330565b90508073ffffffffffffffffffffffffffffffffffffffff168473ffffffffffffffffffffffffffffffffffffffff1614806124af57506124ae8185611fd9565b5b806124ed57508373ffffffffffffffffffffffffffffffffffffffff166124d584610b10565b73ffffffffffffffffffffffffffffffffffffffff16145b91505092915050565b8273ffffffffffffffffffffffffffffffffffffffff1661251682611330565b73ffffffffffffffffffffffffffffffffffffffff161461256c576040517f08c379a00000000000000000000000000000000000000000000000000000000081526004016125639061426b565b60405180910390fd5b5f73ffffffffffffffffffffffffffffffffffffffff168273ffffffffffffffffffffffffffffffffffffffff16036125da576040517f08c379a00000000000000000000000000000000000000000000000000000000081526004016125d1906142f9565b60405180910390fd5b6125e78383836001612b5f565b8273ffffffffffffffffffffffffffffffffffffffff1661260782611330565b73ffffffffffffffffffffffffffffffffffffffff161461265d576040517f08c379a00000000000000000000000000000000000000000000000000000000081526004016126549061426b565b60405180910390fd5b60045f8281526020019081526020015f205f6101000a81549073ffffffffffffffffffffffffffffffffffffffff0219169055600160035f8573ffffffffffffffffffffffffffffffffffffffff1673ffffffffffffffffffffffffffffffffffffffff1681526020019081526020015f205f8282540392505081905550600160035f8473ffffffffffffffffffffffffffffffffffffffff1673ffffffffffffffffffffffffffffffffffffffff1681526020019081526020015f205f82825401925050819055508160025f8381526020019081526020015f205f6101000a81548173ffffffffffffffffffffffffffffffffffffffff021916908373ffffffffffffffffffffffffffffffffffffffff160217905550808273ffffffffffffffffffffffffffffffffffffffff168473ffffffffffffffffffffffffffffffffffffffff167fddf252ad1be2c89b69c2b068fc378daa952ba7f163c4a11628f55a4df523b3ef60405160405180910390a46127dd8383836001612b65565b505050565b6127ea6123a5565b73ffffffffffffffffffffffffffffffffffffffff16612808611b35565b73ffffffffffffffffffffffffffffffffffffffff161461285e576040517f08c379a000000000000000000000000000000000000000000000000000000000815260040161285590614361565b60405180910390fd5b565b5f60025f8381526020019081526020015f205f9054906101000a900473ffffffffffffffffffffffffffffffffffffffff169050919050565b5f60065f9054906101000a900473ffffffffffffffffffffffffffffffffffffffff1690508160065f6101000a81548173ffffffffffffffffffffffffffffffffffffffff021916908373ffffffffffffffffffffffffffffffffffffffff1602179055508173ffffffffffffffffffffffffffffffffffffffff168173ffffffffffffffffffffffffffffffffffffffff167f8be0079c531659141344cd1fd0a4f28419497f9722a3daafe3b4186f6b6457e060405160405180910390a35050565b8173ffffffffffffffffffffffffffffffffffffffff168373ffffffffffffffffffffffffffffffffffffffff16036129ca576040517f08c379a00000000000000000000000000000000000000000000000000000000081526004016129c1906143c9565b60405180910390fd5b8060055f8573ffffffffffffffffffffffffffffffffffffffff1673ffffffffffffffffffffffffffffffffffffffff1681526020019081526020015f205f8473ffffffffffffffffffffffffffffffffffffffff1673ffffffffffffffffffffffffffffffffffffffff1681526020019081526020015f205f6101000a81548160ff0219169083151502179055508173ffffffffffffffffffffffffffffffffffffffff168373ffffffffffffffffffffffffffffffffffffffff167f17307eab39ab6107e8899845ad3d59bd9653f200f220920489ca2b5937696c3183604051612ab69190612deb565b60405180910390a3505050565b612ace8484846124f6565b612ada84848484612b6b565b612b19576040517f08c379a0000000000000000000000000000000000000000000000000000000008152600401612b1090614457565b60405180910390fd5b50505050565b5f5f73ffffffffffffffffffffffffffffffffffffffff16612b4083612860565b73ffffffffffffffffffffffffffffffffffffffff1614159050919050565b50505050565b50505050565b5f612b8b8473ffffffffffffffffffffffffffffffffffffffff16612ced565b15612ce0578373ffffffffffffffffffffffffffffffffffffffff1663150b7a02612bb46123a5565b8786866040518563ffffffff1660e01b8152600401612bd694939291906144c7565b6020604051808303815f875af1925050508015612c1157506040513d601f19601f82011682018060405250810190612c0e9190614525565b60015b612c90573d805f8114612c3f576040519150601f19603f3d011682016040523d82523d5f602084013e612c44565b606091505b505f815103612c88576040517f08c379a0000000000000000000000000000000000000000000000000000000008152600401612c7f90614457565b60405180910390fd5b805181602001fd5b63150b7a0260e01b7bffffffffffffffffffffffffffffffffffffffffffffffffffffffff1916817bffffffffffffffffffffffffffffffffffffffffffffffffffffffff191614915050612ce5565b600190505b949350505050565b5f5f8273ffffffffffffffffffffffffffffffffffffffff163b119050919050565b5f819050919050565b612d2181612d0f565b82525050565b5f602082019050612d3a5f830184612d18565b92915050565b5f604051905090565b5f5ffd5b5f5ffd5b5f7fffffffff0000000000000000000000000000000000000000000000000000000082169050919050565b612d8581612d51565b8114612d8f575f5ffd5b50565b5f81359050612da081612d7c565b92915050565b5f60208284031215612dbb57612dba612d49565b5b5f612dc884828501612d92565b91505092915050565b5f8115159050919050565b612de581612dd1565b82525050565b5f602082019050612dfe5f830184612ddc565b92915050565b5f73ffffffffffffffffffffffffffffffffffffffff82169050919050565b5f612e2d82612e04565b9050919050565b612e3d81612e23565b8114612e47575f5ffd5b50565b5f81359050612e5881612e34565b92915050565b5f60208284031215612e7357612e72612d49565b5b5f612e8084828501612e4a565b91505092915050565b612e9281612e23565b82525050565b5f81519050919050565b5f82825260208201905092915050565b8281835e5f83830152505050565b5f601f19601f8301169050919050565b5f612eda82612e98565b612ee48185612ea2565b9350612ef4818560208601612eb2565b612efd81612ec0565b840191505092915050565b5f60a082019050612f1b5f830188612e89565b8181036020830152612f2d8187612ed0565b9050612f3c6040830186612d18565b612f496060830185612ddc565b612f566080830184612ddc565b9695505050505050565b5f6020820190508181035f830152612f788184612ed0565b905092915050565b612f8981612d0f565b8114612f93575f5ffd5b50565b5f81359050612fa481612f80565b92915050565b5f60208284031215612fbf57612fbe612d49565b5b5f612fcc84828501612f96565b91505092915050565b5f602082019050612fe85f830184612e89565b92915050565b5f5f6040838503121561300457613003612d49565b5b5f61301185828601612e4a565b925050602061302285828601612f96565b9150509250929050565b5f5f5f6060848603121561304357613042612d49565b5b5f61305086828701612e4a565b935050602061306186828701612e4a565b925050604061307286828701612f96565b9150509250925092565b5f81519050919050565b5f82825260208201905092915050565b5f819050602082019050919050565b6130ae81612e23565b82525050565b5f6130bf83836130a5565b60208301905092915050565b5f602082019050919050565b5f6130e18261307c565b6130eb8185613086565b93506130f683613096565b805f5b8381101561312657815161310d88826130b4565b9750613118836130cb565b9250506001810190506130f9565b5085935050505092915050565b5f6020820190508181035f83015261314b81846130d7565b905092915050565b5f819050919050565b5f61317661317161316c84612e04565b613153565b612e04565b9050919050565b5f6131878261315c565b9050919050565b5f6131988261317d565b9050919050565b6131a88161318e565b82525050565b5f6020820190506131c15f83018461319f565b92915050565b5f5ffd5b5f5ffd5b7f4e487b71000000000000000000000000000000000000000000000000000000005f52604160045260245ffd5b61320582612ec0565b810181811067ffffffffffffffff82111715613224576132236131cf565b5b80604052505050565b5f613236612d40565b905061324282826131fc565b919050565b5f67ffffffffffffffff821115613261576132606131cf565b5b61326a82612ec0565b9050602081019050919050565b828183375f83830152505050565b5f61329761329284613247565b61322d565b9050828152602081018484840111156132b3576132b26131cb565b5b6132be848285613277565b509392505050565b5f82601f8301126132da576132d96131c7565b5b81356132ea848260208601613285565b91505092915050565b5f6020828403121561330857613307612d49565b5b5f82013567ffffffffffffffff81111561332557613324612d4d565b5b613331848285016132c6565b91505092915050565b61334381612dd1565b811461334d575f5ffd5b50565b5f8135905061335e8161333a565b92915050565b5f5f6040838503121561337a57613379612d49565b5b5f61338785828601612e4a565b925050602061339885828601613350565b9150509250929050565b5f67ffffffffffffffff8211156133bc576133bb6131cf565b5b6133c582612ec0565b9050602081019050919050565b5f6133e46133df846133a2565b61322d565b905082815260208101848484011115613400576133ff6131cb565b5b61340b848285613277565b509392505050565b5f82601f830112613427576134266131c7565b5b81356134378482602086016133d2565b91505092915050565b5f5f5f5f6080858703121561345857613457612d49565b5b5f61346587828801612e4a565b945050602061347687828801612e4a565b935050604061348787828801612f96565b925050606085013567ffffffffffffffff8111156134a8576134a7612d4d565b5b6134b487828801613413565b91505092959194509250565b5f81519050919050565b5f82825260208201905092915050565b5f819050602082019050919050565b6134f281612d0f565b82525050565b606082015f82015161350c5f8501826130a5565b50602082015161351f60208501826134e9565b50604082015161353260408501826134e9565b50505050565b5f61354383836134f8565b60608301905092915050565b5f602082019050919050565b5f613565826134c0565b61356f81856134ca565b935061357a836134da565b805f5b838110156135aa5781516135918882613538565b975061359c8361354f565b92505060018101905061357d565b5085935050505092915050565b5f6020820190508181035f8301526135cf818461355b565b905092915050565b5f5f604083850312156135ed576135ec612d49565b5b5f6135fa85828601612e4a565b925050602061360b85828601612e4a565b9150509250929050565b5f6060820190506136285f830186612e89565b6136356020830185612d18565b6136426040830184612d18565b949350505050565b7f4e487b71000000000000000000000000000000000000000000000000000000005f52602260045260245ffd5b5f600282049050600182168061368e57607f821691505b6020821081036136a1576136a061364a565b5b50919050565b7f4552433732313a20617070726f76616c20746f2063757272656e74206f776e655f8201527f7200000000000000000000000000000000000000000000000000000000000000602082015250565b5f613701602183612ea2565b915061370c826136a7565b604082019050919050565b5f6020820190508181035f83015261372e816136f5565b9050919050565b7f4552433732313a20617070726f76652063616c6c6572206973206e6f7420746f5f8201527f6b656e206f776e6572206f7220617070726f76656420666f7220616c6c000000602082015250565b5f61378f603d83612ea2565b915061379a82613735565b604082019050919050565b5f6020820190508181035f8301526137bc81613783565b9050919050565b7f4552433732313a2063616c6c6572206973206e6f7420746f6b656e206f776e655f8201527f72206f7220617070726f76656400000000000000000000000000000000000000602082015250565b5f61381d602d83612ea2565b9150613828826137c3565b604082019050919050565b5f6020820190508181035f83015261384a81613811565b9050919050565b7f4164647265737320686173206e6f7420646f6e617465640000000000000000005f82015250565b5f613885601783612ea2565b915061389082613851565b602082019050919050565b5f6020820190508181035f8301526138b281613879565b9050919050565b5f6040820190506138cc5f830185612e89565b81810360208301526138de8184612ed0565b90509392505050565b5f815190506138f581612f80565b92915050565b5f602082840312156139105761390f612d49565b5b5f61391d848285016138e7565b91505092915050565b7f4e6f7420617070726f76656420666f72206169640000000000000000000000005f82015250565b5f61395a601483612ea2565b915061396582613926565b602082019050919050565b5f6020820190508181035f8301526139878161394e565b9050919050565b7f416c726561647920636c61696d656420616964000000000000000000000000005f82015250565b5f6139c2601383612ea2565b91506139cd8261398e565b602082019050919050565b5f6020820190508181035f8301526139ef816139b6565b9050919050565b7f496e73756666696369656e7420636f6e74726163742062616c616e63650000005f82015250565b5f613a2a601d83612ea2565b9150613a35826139f6565b602082019050919050565b5f6020820190508181035f830152613a5781613a1e565b9050919050565b5f604082019050613a715f830185612d18565b613a7e6020830184612d18565b9392505050565b7f4552433732313a20696e76616c696420746f6b656e20494400000000000000005f82015250565b5f613ab9601883612ea2565b9150613ac482613a85565b602082019050919050565b5f6020820190508181035f830152613ae681613aad565b9050919050565b7f4552433732313a2061646472657373207a65726f206973206e6f7420612076615f8201527f6c6964206f776e65720000000000000000000000000000000000000000000000602082015250565b5f613b47602983612ea2565b9150613b5282613aed565b604082019050919050565b5f6020820190508181035f830152613b7481613b3b565b9050919050565b7f4e6f20616964207265717565737420666f756e640000000000000000000000005f82015250565b5f613baf601483612ea2565b9150613bba82613b7b565b602082019050919050565b5f6020820190508181035f830152613bdc81613ba3565b9050919050565b7f526561736f6e2063616e6e6f7420626520656d707479000000000000000000005f82015250565b5f613c17601683612ea2565b9150613c2282613be3565b602082019050919050565b5f6020820190508181035f830152613c4481613c0b565b9050919050565b7f416c7265616479206170706c69656400000000000000000000000000000000005f82015250565b5f613c7f600f83612ea2565b9150613c8a82613c4b565b602082019050919050565b5f6020820190508181035f830152613cac81613c73565b9050919050565b5f819050815f5260205f209050919050565b5f6020601f8301049050919050565b5f82821b905092915050565b5f60088302613d0f7fffffffffffffffffffffffffffffffffffffffffffffffffffffffffffffffff82613cd4565b613d198683613cd4565b95508019841693508086168417925050509392505050565b5f613d4b613d46613d4184612d0f565b613153565b612d0f565b9050919050565b5f819050919050565b613d6483613d31565b613d78613d7082613d52565b848454613ce0565b825550505050565b5f5f905090565b613d8f613d80565b613d9a818484613d5b565b505050565b5b81811015613dbd57613db25f82613d87565b600181019050613da0565b5050565b601f821115613e0257613dd381613cb3565b613ddc84613cc5565b81016020851015613deb578190505b613dff613df785613cc5565b830182613d9f565b50505b505050565b5f82821c905092915050565b5f613e225f1984600802613e07565b1980831691505092915050565b5f613e3a8383613e13565b9150826002028217905092915050565b613e5382612e98565b67ffffffffffffffff811115613e6c57613e6b6131cf565b5b613e768254613677565b613e81828285613dc1565b5f60209050601f831160018114613eb2575f8415613ea0578287015190505b613eaa8582613e2f565b865550613f11565b601f198416613ec086613cb3565b5f5b82811015613ee757848901518255600182019150602085019450602081019050613ec2565b86831015613f045784890151613f00601f891682613e13565b8355505b6001600288020188555050505b505050505050565b7f4e46412072656a65637465643a20496e656c696769626c65206f7220706f6f725f8201527f20726561736f6e00000000000000000000000000000000000000000000000000602082015250565b5f613f73602783612ea2565b9150613f7e82613f19565b604082019050919050565b5f6020820190508181035f830152613fa081613f67565b9050919050565b5f6040820190508181035f830152613fbf8185612ed0565b9050613fce6020830184612d18565b9392505050565b7f4164647265737320686173206e6f7420636c61696d65642061696400000000005f82015250565b5f614009601b83612ea2565b915061401482613fd5565b602082019050919050565b5f6020820190508181035f83015261403681613ffd565b9050919050565b7f546f6b656e20646f6573206e6f742065786973740000000000000000000000005f82015250565b5f614071601483612ea2565b915061407c8261403d565b602082019050919050565b5f6020820190508181035f83015261409e81614065565b9050919050565b7f446f6e6174696f6e206d7573742062652067726561746572207468616e2030005f82015250565b5f6140d9601f83612ea2565b91506140e4826140a5565b602082019050919050565b5f6020820190508181035f830152614106816140cd565b9050919050565b7f4e487b71000000000000000000000000000000000000000000000000000000005f52601160045260245ffd5b5f61414482612d0f565b915061414f83612d0f565b92508282019050808211156141675761416661410d565b5b92915050565b7f4f776e61626c653a206e6577206f776e657220697320746865207a65726f20615f8201527f6464726573730000000000000000000000000000000000000000000000000000602082015250565b5f6141c7602683612ea2565b91506141d28261416d565b604082019050919050565b5f6020820190508181035f8301526141f4816141bb565b9050919050565b7f4552433732313a207472616e736665722066726f6d20696e636f7272656374205f8201527f6f776e6572000000000000000000000000000000000000000000000000000000602082015250565b5f614255602583612ea2565b9150614260826141fb565b604082019050919050565b5f6020820190508181035f83015261428281614249565b9050919050565b7f4552433732313a207472616e7366657220746f20746865207a65726f206164645f8201527f7265737300000000000000000000000000000000000000000000000000000000602082015250565b5f6142e3602483612ea2565b91506142ee82614289565b604082019050919050565b5f6020820190508181035f830152614310816142d7565b9050919050565b7f4f776e61626c653a2063616c6c6572206973206e6f7420746865206f776e65725f82015250565b5f61434b602083612ea2565b915061435682614317565b602082019050919050565b5f6020820190508181035f8301526143788161433f565b9050919050565b7f4552433732313a20617070726f766520746f2063616c6c6572000000000000005f82015250565b5f6143b3601983612ea2565b91506143be8261437f565b602082019050919050565b5f6020820190508181035f8301526143e0816143a7565b9050919050565b7f4552433732313a207472616e7366657220746f206e6f6e2045524337323152655f8201527f63656976657220696d706c656d656e7465720000000000000000000000000000602082015250565b5f614441603283612ea2565b915061444c826143e7565b604082019050919050565b5f6020820190508181035f83015261446e81614435565b9050919050565b5f81519050919050565b5f82825260208201905092915050565b5f61449982614475565b6144a3818561447f565b93506144b3818560208601612eb2565b6144bc81612ec0565b840191505092915050565b5f6080820190506144da5f830187612e89565b6144e76020830186612e89565b6144f46040830185612d18565b8181036060830152614506818461448f565b905095945050505050565b5f8151905061451f81612d7c565b92915050565b5f6020828403121561453a57614539612d49565b5b5f61454784828501614511565b9150509291505056fe68747470733a2f2f697066732e696f2f697066732f516d526563697069656e744e46544d6574616461746168747470733a2f2f697066732e696f2f697066732f516d446f6e6f724e46544d65746164617461a2646970667358221220612c06abd9df7f5f121adaaf5da548216a8f41c732e2e498cbabb3223bf8e15464736f6c634300081e0033",
			"opcodes": "PUSH1 0x80 PUSH1 0x40 MSTORE CALLVALUE DUP1 ISZERO PUSH2 0xF JUMPI PUSH0 PUSH0 REVERT JUMPDEST POP PUSH1 0x40 MLOAD PUSH2 0x4B64 CODESIZE SUB DUP1 PUSH2 0x4B64 DUP4 CODECOPY DUP2 DUP2 ADD PUSH1 0x40 MSTORE DUP2 ADD SWAP1 PUSH2 0x31 SWAP2 SWAP1 PUSH2 0x248 JUMP JUMPDEST PUSH1 0x40 MLOAD DUP1 PUSH1 0x40 ADD PUSH1 0x40 MSTORE DUP1 PUSH1 0x8 DUP2 MSTORE PUSH1 0x20 ADD PUSH32 0x416964436861696E000000000000000000000000000000000000000000000000 DUP2 MSTORE POP PUSH1 0x40 MLOAD DUP1 PUSH1 0x40 ADD PUSH1 0x40 MSTORE DUP1 PUSH1 0x3 DUP2 MSTORE PUSH1 0x20 ADD PUSH32 0x4149440000000000000000000000000000000000000000000000000000000000 DUP2 MSTORE POP DUP2 PUSH0 SWAP1 DUP2 PUSH2 0xAB SWAP2 SWAP1 PUSH2 0x4B0 JUMP JUMPDEST POP DUP1 PUSH1 0x1 SWAP1 DUP2 PUSH2 0xBB SWAP2 SWAP1 PUSH2 0x4B0 JUMP JUMPDEST POP POP POP PUSH2 0xDA PUSH2 0xCF PUSH2 0x120 PUSH1 0x20 SHL PUSH1 0x20 SHR JUMP JUMPDEST PUSH2 0x127 PUSH1 0x20 SHL PUSH1 0x20 SHR JUMP JUMPDEST DUP1 PUSH1 0x9 PUSH0 PUSH2 0x100 EXP DUP2 SLOAD DUP2 PUSH20 0xFFFFFFFFFFFFFFFFFFFFFFFFFFFFFFFFFFFFFFFF MUL NOT AND SWAP1 DUP4 PUSH20 0xFFFFFFFFFFFFFFFFFFFFFFFFFFFFFFFFFFFFFFFF AND MUL OR SWAP1 SSTORE POP POP PUSH2 0x57F JUMP JUMPDEST PUSH0 CALLER SWAP1 POP SWAP1 JUMP JUMPDEST PUSH0 PUSH1 0x6 PUSH0 SWAP1 SLOAD SWAP1 PUSH2 0x100 EXP SWAP1 DIV PUSH20 0xFFFFFFFFFFFFFFFFFFFFFFFFFFFFFFFFFFFFFFFF AND SWAP1 POP DUP2 PUSH1 0x6 PUSH0 PUSH2 0x100 EXP DUP2 SLOAD DUP2 PUSH20 0xFFFFFFFFFFFFFFFFFFFFFFFFFFFFFFFFFFFFFFFF MUL NOT AND SWAP1 DUP4 PUSH20 0xFFFFFFFFFFFFFFFFFFFFFFFFFFFFFFFFFFFFFFFF AND MUL OR SWAP1 SSTORE POP DUP2 PUSH20 0xFFFFFFFFFFFFFFFFFFFFFFFFFFFFFFFFFFFFFFFF AND DUP2 PUSH20 0xFFFFFFFFFFFFFFFFFFFFFFFFFFFFFFFFFFFFFFFF AND PUSH32 0x8BE0079C531659141344CD1FD0A4F28419497F9722A3DAAFE3B4186F6B6457E0 PUSH1 0x40 MLOAD PUSH1 0x40 MLOAD DUP1 SWAP2 SUB SWAP1 LOG3 POP POP JUMP JUMPDEST PUSH0 PUSH0 REVERT JUMPDEST PUSH0 PUSH20 0xFFFFFFFFFFFFFFFFFFFFFFFFFFFFFFFFFFFFFFFF DUP3 AND SWAP1 POP SWAP2 SWAP1 POP JUMP JUMPDEST PUSH0 PUSH2 0x217 DUP3 PUSH2 0x1EE JUMP JUMPDEST SWAP1 POP SWAP2 SWAP1 POP JUMP JUMPDEST PUSH2 0x227 DUP2 PUSH2 0x20D JUMP JUMPDEST DUP2 EQ PUSH2 0x231 JUMPI PUSH0 PUSH0 REVERT JUMPDEST POP JUMP JUMPDEST PUSH0 DUP2 MLOAD SWAP1 POP PUSH2 0x242 DUP2 PUSH2 0x21E JUMP JUMPDEST SWAP3 SWAP2 POP POP JUMP JUMPDEST PUSH0 PUSH1 0x20 DUP3 DUP5 SUB SLT ISZERO PUSH2 0x25D JUMPI PUSH2 0x25C PUSH2 0x1EA JUMP JUMPDEST JUMPDEST PUSH0 PUSH2 0x26A DUP5 DUP3 DUP6 ADD PUSH2 0x234 JUMP JUMPDEST SWAP2 POP POP SWAP3 SWAP2 POP POP JUMP JUMPDEST PUSH0 DUP2 MLOAD SWAP1 POP SWAP2 SWAP1 POP JUMP JUMPDEST PUSH32 0x4E487B7100000000000000000000000000000000000000000000000000000000 PUSH0 MSTORE PUSH1 0x41 PUSH1 0x4 MSTORE PUSH1 0x24 PUSH0 REVERT JUMPDEST PUSH32 0x4E487B7100000000000000000000000000000000000000000000000000000000 PUSH0 MSTORE PUSH1 0x22 PUSH1 0x4 MSTORE PUSH1 0x24 PUSH0 REVERT JUMPDEST PUSH0 PUSH1 0x2 DUP3 DIV SWAP1 POP PUSH1 0x1 DUP3 AND DUP1 PUSH2 0x2EE JUMPI PUSH1 0x7F DUP3 AND SWAP2 POP JUMPDEST PUSH1 0x20 DUP3 LT DUP2 SUB PUSH2 0x301 JUMPI PUSH2 0x300 PUSH2 0x2AA JUMP JUMPDEST JUMPDEST POP SWAP2 SWAP1 POP JUMP JUMPDEST PUSH0 DUP2 SWAP1 POP DUP2 PUSH0 MSTORE PUSH1 0x20 PUSH0 KECCAK256 SWAP1 POP SWAP2 SWAP1 POP JUMP JUMPDEST PUSH0 PUSH1 0x20 PUSH1 0x1F DUP4 ADD DIV SWAP1 POP SWAP2 SWAP1 POP JUMP JUMPDEST PUSH0 DUP3 DUP3 SHL SWAP1 POP SWAP3 SWAP2 POP POP JUMP JUMPDEST PUSH0 PUSH1 0x8 DUP4 MUL PUSH2 0x363 PUSH32 0xFFFFFFFFFFFFFFFFFFFFFFFFFFFFFFFFFFFFFFFFFFFFFFFFFFFFFFFFFFFFFFFF DUP3 PUSH2 0x328 JUMP JUMPDEST PUSH2 0x36D DUP7 DUP4 PUSH2 0x328 JUMP JUMPDEST SWAP6 POP DUP1 NOT DUP5 AND SWAP4 POP DUP1 DUP7 AND DUP5 OR SWAP3 POP POP POP SWAP4 SWAP3 POP POP POP JUMP JUMPDEST PUSH0 DUP2 SWAP1 POP SWAP2 SWAP1 POP JUMP JUMPDEST PUSH0 DUP2 SWAP1 POP SWAP2 SWAP1 POP JUMP JUMPDEST PUSH0 PUSH2 0x3B1 PUSH2 0x3AC PUSH2 0x3A7 DUP5 PUSH2 0x385 JUMP JUMPDEST PUSH2 0x38E JUMP JUMPDEST PUSH2 0x385 JUMP JUMPDEST SWAP1 POP SWAP2 SWAP1 POP JUMP JUMPDEST PUSH0 DUP2 SWAP1 POP SWAP2 SWAP1 POP JUMP JUMPDEST PUSH2 0x3CA DUP4 PUSH2 0x397 JUMP JUMPDEST PUSH2 0x3DE PUSH2 0x3D6 DUP3 PUSH2 0x3B8 JUMP JUMPDEST DUP5 DUP5 SLOAD PUSH2 0x334 JUMP JUMPDEST DUP3 SSTORE POP POP POP POP JUMP JUMPDEST PUSH0 PUSH0 SWAP1 POP SWAP1 JUMP JUMPDEST PUSH2 0x3F5 PUSH2 0x3E6 JUMP JUMPDEST PUSH2 0x400 DUP2 DUP5 DUP5 PUSH2 0x3C1 JUMP JUMPDEST POP POP POP JUMP JUMPDEST JUMPDEST DUP2 DUP2 LT ISZERO PUSH2 0x423 JUMPI PUSH2 0x418 PUSH0 DUP3 PUSH2 0x3ED JUMP JUMPDEST PUSH1 0x1 DUP2 ADD SWAP1 POP PUSH2 0x406 JUMP JUMPDEST POP POP JUMP JUMPDEST PUSH1 0x1F DUP3 GT ISZERO PUSH2 0x468 JUMPI PUSH2 0x439 DUP2 PUSH2 0x307 JUMP JUMPDEST PUSH2 0x442 DUP5 PUSH2 0x319 JUMP JUMPDEST DUP2 ADD PUSH1 0x20 DUP6 LT ISZERO PUSH2 0x451 JUMPI DUP2 SWAP1 POP JUMPDEST PUSH2 0x465 PUSH2 0x45D DUP6 PUSH2 0x319 JUMP JUMPDEST DUP4 ADD DUP3 PUSH2 0x405 JUMP JUMPDEST POP POP JUMPDEST POP POP POP JUMP JUMPDEST PUSH0 DUP3 DUP3 SHR SWAP1 POP SWAP3 SWAP2 POP POP JUMP JUMPDEST PUSH0 PUSH2 0x488 PUSH0 NOT DUP5 PUSH1 0x8 MUL PUSH2 0x46D JUMP JUMPDEST NOT DUP1 DUP4 AND SWAP2 POP POP SWAP3 SWAP2 POP POP JUMP JUMPDEST PUSH0 PUSH2 0x4A0 DUP4 DUP4 PUSH2 0x479 JUMP JUMPDEST SWAP2 POP DUP3 PUSH1 0x2 MUL DUP3 OR SWAP1 POP SWAP3 SWAP2 POP POP JUMP JUMPDEST PUSH2 0x4B9 DUP3 PUSH2 0x273 JUMP JUMPDEST PUSH8 0xFFFFFFFFFFFFFFFF DUP2 GT ISZERO PUSH2 0x4D2 JUMPI PUSH2 0x4D1 PUSH2 0x27D JUMP JUMPDEST JUMPDEST PUSH2 0x4DC DUP3 SLOAD PUSH2 0x2D7 JUMP JUMPDEST PUSH2 0x4E7 DUP3 DUP3 DUP6 PUSH2 0x427 JUMP JUMPDEST PUSH0 PUSH1 0x20 SWAP1 POP PUSH1 0x1F DUP4 GT PUSH1 0x1 DUP2 EQ PUSH2 0x518 JUMPI PUSH0 DUP5 ISZERO PUSH2 0x506 JUMPI DUP3 DUP8 ADD MLOAD SWAP1 POP JUMPDEST PUSH2 0x510 DUP6 DUP3 PUSH2 0x495 JUMP JUMPDEST DUP7 SSTORE POP PUSH2 0x577 JUMP JUMPDEST PUSH1 0x1F NOT DUP5 AND PUSH2 0x526 DUP7 PUSH2 0x307 JUMP JUMPDEST PUSH0 JUMPDEST DUP3 DUP2 LT ISZERO PUSH2 0x54D JUMPI DUP5 DUP10 ADD MLOAD DUP3 SSTORE PUSH1 0x1 DUP3 ADD SWAP2 POP PUSH1 0x20 DUP6 ADD SWAP5 POP PUSH1 0x20 DUP2 ADD SWAP1 POP PUSH2 0x528 JUMP JUMPDEST DUP7 DUP4 LT ISZERO PUSH2 0x56A JUMPI DUP5 DUP10 ADD MLOAD PUSH2 0x566 PUSH1 0x1F DUP10 AND DUP3 PUSH2 0x479 JUMP JUMPDEST DUP4 SSTORE POP JUMPDEST PUSH1 0x1 PUSH1 0x2 DUP9 MUL ADD DUP9 SSTORE POP POP POP JUMPDEST POP POP POP POP POP POP JUMP JUMPDEST PUSH2 0x45D8 DUP1 PUSH2 0x58C PUSH0 CODECOPY PUSH0 RETURN INVALID PUSH1 0x80 PUSH1 0x40 MSTORE PUSH1 0x4 CALLDATASIZE LT PUSH2 0x218 JUMPI PUSH0 CALLDATALOAD PUSH1 0xE0 SHR DUP1 PUSH4 0x70A08231 GT PUSH2 0x122 JUMPI DUP1 PUSH4 0xAD4816A6 GT PUSH2 0xAA JUMPI DUP1 PUSH4 0xE25F8416 GT PUSH2 0x6E JUMPI DUP1 PUSH4 0xE25F8416 EQ PUSH2 0x7D4 JUMPI DUP1 PUSH4 0xE985E9C5 EQ PUSH2 0x7FE JUMPI DUP1 PUSH4 0xED88C68E EQ PUSH2 0x83A JUMPI DUP1 PUSH4 0xF2FDE38B EQ PUSH2 0x844 JUMPI DUP1 PUSH4 0xF8626AF8 EQ PUSH2 0x86C JUMPI PUSH2 0x218 JUMP JUMPDEST DUP1 PUSH4 0xAD4816A6 EQ PUSH2 0x6CE JUMPI DUP1 PUSH4 0xB88D4FDE EQ PUSH2 0x70A JUMPI DUP1 PUSH4 0xC87B56DD EQ PUSH2 0x732 JUMPI DUP1 PUSH4 0xC9BAA962 EQ PUSH2 0x76E JUMPI DUP1 PUSH4 0xDEAD610A EQ PUSH2 0x798 JUMPI PUSH2 0x218 JUMP JUMPDEST DUP1 PUSH4 0x8DA5CB5B GT PUSH2 0xF1 JUMPI DUP1 PUSH4 0x8DA5CB5B EQ PUSH2 0x5EE JUMPI DUP1 PUSH4 0x95D89B41 EQ PUSH2 0x618 JUMPI DUP1 PUSH4 0xA22CB465 EQ PUSH2 0x642 JUMPI DUP1 PUSH4 0xA51EB843 EQ PUSH2 0x66A JUMPI DUP1 PUSH4 0xAA4A153E EQ PUSH2 0x6A6 JUMPI PUSH2 0x218 JUMP JUMPDEST DUP1 PUSH4 0x70A08231 EQ PUSH2 0x54C JUMPI DUP1 PUSH4 0x715018A6 EQ PUSH2 0x588 JUMPI DUP1 PUSH4 0x76D45A09 EQ PUSH2 0x59E JUMPI DUP1 PUSH4 0x8BCB7A50 EQ PUSH2 0x5C6 JUMPI PUSH2 0x218 JUMP JUMPDEST DUP1 PUSH4 0x25DC602C GT PUSH2 0x1A5 JUMPI DUP1 PUSH4 0x42842E0E GT PUSH2 0x174 JUMPI DUP1 PUSH4 0x42842E0E EQ PUSH2 0x480 JUMPI DUP1 PUSH4 0x4294E544 EQ PUSH2 0x4A8 JUMPI DUP1 PUSH4 0x4348E0E9 EQ PUSH2 0x4D0 JUMPI DUP1 PUSH4 0x5B73D3F4 EQ PUSH2 0x4FA JUMPI DUP1 PUSH4 0x6352211E EQ PUSH2 0x510 JUMPI PUSH2 0x218 JUMP JUMPDEST DUP1 PUSH4 0x25DC602C EQ PUSH2 0x3F0 JUMPI DUP1 PUSH4 0x37CB2E09 EQ PUSH2 0x41A JUMPI DUP1 PUSH4 0x3CCFD60B EQ PUSH2 0x442 JUMPI DUP1 PUSH4 0x3FDFDA3B EQ PUSH2 0x458 JUMPI PUSH2 0x218 JUMP JUMPDEST DUP1 PUSH4 0x81812FC GT PUSH2 0x1EC JUMPI DUP1 PUSH4 0x81812FC EQ PUSH2 0x2EC JUMPI DUP1 PUSH4 0x95EA7B3 EQ PUSH2 0x328 JUMPI DUP1 PUSH4 0x17294A11 EQ PUSH2 0x350 JUMPI DUP1 PUSH4 0x2383D9CD EQ PUSH2 0x38C JUMPI DUP1 PUSH4 0x23B872DD EQ PUSH2 0x3C8 JUMPI PUSH2 0x218 JUMP JUMPDEST DUP1 PUSH3 0xB37044 EQ PUSH2 0x21C JUMPI DUP1 PUSH4 0x1FFC9A7 EQ PUSH2 0x246 JUMPI DUP1 PUSH4 0x584C5BD EQ PUSH2 0x282 JUMPI DUP1 PUSH4 0x6FDDE03 EQ PUSH2 0x2C2 JUMPI JUMPDEST PUSH0 PUSH0 REVERT JUMPDEST CALLVALUE DUP1 ISZERO PUSH2 0x227 JUMPI PUSH0 PUSH0 REVERT JUMPDEST POP PUSH2 0x230 PUSH2 0x8AA JUMP JUMPDEST PUSH1 0x40 MLOAD PUSH2 0x23D SWAP2 SWAP1 PUSH2 0x2D27 JUMP JUMPDEST PUSH1 0x40 MLOAD DUP1 SWAP2 SUB SWAP1 RETURN JUMPDEST CALLVALUE DUP1 ISZERO PUSH2 0x251 JUMPI PUSH0 PUSH0 REVERT JUMPDEST POP PUSH2 0x26C PUSH1 0x4 DUP1 CALLDATASIZE SUB DUP2 ADD SWAP1 PUSH2 0x267 SWAP2 SWAP1 PUSH2 0x2DA6 JUMP JUMPDEST PUSH2 0x8B0 JUMP JUMPDEST PUSH1 0x40 MLOAD PUSH2 0x279 SWAP2 SWAP1 PUSH2 0x2DEB JUMP JUMPDEST PUSH1 0x40 MLOAD DUP1 SWAP2 SUB SWAP1 RETURN JUMPDEST CALLVALUE DUP1 ISZERO PUSH2 0x28D JUMPI PUSH0 PUSH0 REVERT JUMPDEST POP PUSH2 0x2A8 PUSH1 0x4 DUP1 CALLDATASIZE SUB DUP2 ADD SWAP1 PUSH2 0x2A3 SWAP2 SWAP1 PUSH2 0x2E5E JUMP JUMPDEST PUSH2 0x991 JUMP JUMPDEST PUSH1 0x40 MLOAD PUSH2 0x2B9 SWAP6 SWAP5 SWAP4 SWAP3 SWAP2 SWAP1 PUSH2 0x2F08 JUMP JUMPDEST PUSH1 0x40 MLOAD DUP1 SWAP2 SUB SWAP1 RETURN JUMPDEST CALLVALUE DUP1 ISZERO PUSH2 0x2CD JUMPI PUSH0 PUSH0 REVERT JUMPDEST POP PUSH2 0x2D6 PUSH2 0xA81 JUMP JUMPDEST PUSH1 0x40 MLOAD PUSH2 0x2E3 SWAP2 SWAP1 PUSH2 0x2F60 JUMP JUMPDEST PUSH1 0x40 MLOAD DUP1 SWAP2 SUB SWAP1 RETURN JUMPDEST CALLVALUE DUP1 ISZERO PUSH2 0x2F7 JUMPI PUSH0 PUSH0 REVERT JUMPDEST POP PUSH2 0x312 PUSH1 0x4 DUP1 CALLDATASIZE SUB DUP2 ADD SWAP1 PUSH2 0x30D SWAP2 SWAP1 PUSH2 0x2FAA JUMP JUMPDEST PUSH2 0xB10 JUMP JUMPDEST PUSH1 0x40 MLOAD PUSH2 0x31F SWAP2 SWAP1 PUSH2 0x2FD5 JUMP JUMPDEST PUSH1 0x40 MLOAD DUP1 SWAP2 SUB SWAP1 RETURN JUMPDEST CALLVALUE DUP1 ISZERO PUSH2 0x333 JUMPI PUSH0 PUSH0 REVERT JUMPDEST POP PUSH2 0x34E PUSH1 0x4 DUP1 CALLDATASIZE SUB DUP2 ADD SWAP1 PUSH2 0x349 SWAP2 SWAP1 PUSH2 0x2FEE JUMP JUMPDEST PUSH2 0xB52 JUMP JUMPDEST STOP JUMPDEST CALLVALUE DUP1 ISZERO PUSH2 0x35B JUMPI PUSH0 PUSH0 REVERT JUMPDEST POP PUSH2 0x376 PUSH1 0x4 DUP1 CALLDATASIZE SUB DUP2 ADD SWAP1 PUSH2 0x371 SWAP2 SWAP1 PUSH2 0x2E5E JUMP JUMPDEST PUSH2 0xC68 JUMP JUMPDEST PUSH1 0x40 MLOAD PUSH2 0x383 SWAP2 SWAP1 PUSH2 0x2DEB JUMP JUMPDEST PUSH1 0x40 MLOAD DUP1 SWAP2 SUB SWAP1 RETURN JUMPDEST CALLVALUE DUP1 ISZERO PUSH2 0x397 JUMPI PUSH0 PUSH0 REVERT JUMPDEST POP PUSH2 0x3B2 PUSH1 0x4 DUP1 CALLDATASIZE SUB DUP2 ADD SWAP1 PUSH2 0x3AD SWAP2 SWAP1 PUSH2 0x2E5E JUMP JUMPDEST PUSH2 0xC85 JUMP JUMPDEST PUSH1 0x40 MLOAD PUSH2 0x3BF SWAP2 SWAP1 PUSH2 0x2DEB JUMP JUMPDEST PUSH1 0x40 MLOAD DUP1 SWAP2 SUB SWAP1 RETURN JUMPDEST CALLVALUE DUP1 ISZERO PUSH2 0x3D3 JUMPI PUSH0 PUSH0 REVERT JUMPDEST POP PUSH2 0x3EE PUSH1 0x4 DUP1 CALLDATASIZE SUB DUP2 ADD SWAP1 PUSH2 0x3E9 SWAP2 SWAP1 PUSH2 0x302C JUMP JUMPDEST PUSH2 0xCA2 JUMP JUMPDEST STOP JUMPDEST CALLVALUE DUP1 ISZERO PUSH2 0x3FB JUMPI PUSH0 PUSH0 REVERT JUMPDEST POP PUSH2 0x404 PUSH2 0xD02 JUMP JUMPDEST PUSH1 0x40 MLOAD PUSH2 0x411 SWAP2 SWAP1 PUSH2 0x3133 JUMP JUMPDEST PUSH1 0x40 MLOAD DUP1 SWAP2 SUB SWAP1 RETURN JUMPDEST CALLVALUE DUP1 ISZERO PUSH2 0x425 JUMPI PUSH0 PUSH0 REVERT JUMPDEST POP PUSH2 0x440 PUSH1 0x4 DUP1 CALLDATASIZE SUB DUP2 ADD SWAP1 PUSH2 0x43B SWAP2 SWAP1 PUSH2 0x2E5E JUMP JUMPDEST PUSH2 0xD8D JUMP JUMPDEST STOP JUMPDEST CALLVALUE DUP1 ISZERO PUSH2 0x44D JUMPI PUSH0 PUSH0 REVERT JUMPDEST POP PUSH2 0x456 PUSH2 0xDED JUMP JUMPDEST STOP JUMPDEST CALLVALUE DUP1 ISZERO PUSH2 0x463 JUMPI PUSH0 PUSH0 REVERT JUMPDEST POP PUSH2 0x47E PUSH1 0x4 DUP1 CALLDATASIZE SUB DUP2 ADD SWAP1 PUSH2 0x479 SWAP2 SWAP1 PUSH2 0x2E5E JUMP JUMPDEST PUSH2 0xE42 JUMP JUMPDEST STOP JUMPDEST CALLVALUE DUP1 ISZERO PUSH2 0x48B JUMPI PUSH0 PUSH0 REVERT JUMPDEST POP PUSH2 0x4A6 PUSH1 0x4 DUP1 CALLDATASIZE SUB DUP2 ADD SWAP1 PUSH2 0x4A1 SWAP2 SWAP1 PUSH2 0x302C JUMP JUMPDEST PUSH2 0xFDE JUMP JUMPDEST STOP JUMPDEST CALLVALUE DUP1 ISZERO PUSH2 0x4B3 JUMPI PUSH0 PUSH0 REVERT JUMPDEST POP PUSH2 0x4CE PUSH1 0x4 DUP1 CALLDATASIZE SUB DUP2 ADD SWAP1 PUSH2 0x4C9 SWAP2 SWAP1 PUSH2 0x2E5E JUMP JUMPDEST PUSH2 0xFFD JUMP JUMPDEST STOP JUMPDEST CALLVALUE DUP1 ISZERO PUSH2 0x4DB JUMPI PUSH0 PUSH0 REVERT JUMPDEST POP PUSH2 0x4E4 PUSH2 0x105C JUMP JUMPDEST PUSH1 0x40 MLOAD PUSH2 0x4F1 SWAP2 SWAP1 PUSH2 0x31AE JUMP JUMPDEST PUSH1 0x40 MLOAD DUP1 SWAP2 SUB SWAP1 RETURN JUMPDEST CALLVALUE DUP1 ISZERO PUSH2 0x505 JUMPI PUSH0 PUSH0 REVERT JUMPDEST POP PUSH2 0x50E PUSH2 0x1081 JUMP JUMPDEST STOP JUMPDEST CALLVALUE DUP1 ISZERO PUSH2 0x51B JUMPI PUSH0 PUSH0 REVERT JUMPDEST POP PUSH2 0x536 PUSH1 0x4 DUP1 CALLDATASIZE SUB DUP2 ADD SWAP1 PUSH2 0x531 SWAP2 SWAP1 PUSH2 0x2FAA JUMP JUMPDEST PUSH2 0x1330 JUMP JUMPDEST PUSH1 0x40 MLOAD PUSH2 0x543 SWAP2 SWAP1 PUSH2 0x2FD5 JUMP JUMPDEST PUSH1 0x40 MLOAD DUP1 SWAP2 SUB SWAP1 RETURN JUMPDEST CALLVALUE DUP1 ISZERO PUSH2 0x557 JUMPI PUSH0 PUSH0 REVERT JUMPDEST POP PUSH2 0x572 PUSH1 0x4 DUP1 CALLDATASIZE SUB DUP2 ADD SWAP1 PUSH2 0x56D SWAP2 SWAP1 PUSH2 0x2E5E JUMP JUMPDEST PUSH2 0x13B4 JUMP JUMPDEST PUSH1 0x40 MLOAD PUSH2 0x57F SWAP2 SWAP1 PUSH2 0x2D27 JUMP JUMPDEST PUSH1 0x40 MLOAD DUP1 SWAP2 SUB SWAP1 RETURN JUMPDEST CALLVALUE DUP1 ISZERO PUSH2 0x593 JUMPI PUSH0 PUSH0 REVERT JUMPDEST POP PUSH2 0x59C PUSH2 0x1468 JUMP JUMPDEST STOP JUMPDEST CALLVALUE DUP1 ISZERO PUSH2 0x5A9 JUMPI PUSH0 PUSH0 REVERT JUMPDEST POP PUSH2 0x5C4 PUSH1 0x4 DUP1 CALLDATASIZE SUB DUP2 ADD SWAP1 PUSH2 0x5BF SWAP2 SWAP1 PUSH2 0x2E5E JUMP JUMPDEST PUSH2 0x147B JUMP JUMPDEST STOP JUMPDEST CALLVALUE DUP1 ISZERO PUSH2 0x5D1 JUMPI PUSH0 PUSH0 REVERT JUMPDEST POP PUSH2 0x5EC PUSH1 0x4 DUP1 CALLDATASIZE SUB DUP2 ADD SWAP1 PUSH2 0x5E7 SWAP2 SWAP1 PUSH2 0x32F3 JUMP JUMPDEST PUSH2 0x164D JUMP JUMPDEST STOP JUMPDEST CALLVALUE DUP1 ISZERO PUSH2 0x5F9 JUMPI PUSH0 PUSH0 REVERT JUMPDEST POP PUSH2 0x602 PUSH2 0x1B35 JUMP JUMPDEST PUSH1 0x40 MLOAD PUSH2 0x60F SWAP2 SWAP1 PUSH2 0x2FD5 JUMP JUMPDEST PUSH1 0x40 MLOAD DUP1 SWAP2 SUB SWAP1 RETURN JUMPDEST CALLVALUE DUP1 ISZERO PUSH2 0x623 JUMPI PUSH0 PUSH0 REVERT JUMPDEST POP PUSH2 0x62C PUSH2 0x1B5D JUMP JUMPDEST PUSH1 0x40 MLOAD PUSH2 0x639 SWAP2 SWAP1 PUSH2 0x2F60 JUMP JUMPDEST PUSH1 0x40 MLOAD DUP1 SWAP2 SUB SWAP1 RETURN JUMPDEST CALLVALUE DUP1 ISZERO PUSH2 0x64D JUMPI PUSH0 PUSH0 REVERT JUMPDEST POP PUSH2 0x668 PUSH1 0x4 DUP1 CALLDATASIZE SUB DUP2 ADD SWAP1 PUSH2 0x663 SWAP2 SWAP1 PUSH2 0x3364 JUMP JUMPDEST PUSH2 0x1BED JUMP JUMPDEST STOP JUMPDEST CALLVALUE DUP1 ISZERO PUSH2 0x675 JUMPI PUSH0 PUSH0 REVERT JUMPDEST POP PUSH2 0x690 PUSH1 0x4 DUP1 CALLDATASIZE SUB DUP2 ADD SWAP1 PUSH2 0x68B SWAP2 SWAP1 PUSH2 0x2E5E JUMP JUMPDEST PUSH2 0x1C03 JUMP JUMPDEST PUSH1 0x40 MLOAD PUSH2 0x69D SWAP2 SWAP1 PUSH2 0x2DEB JUMP JUMPDEST PUSH1 0x40 MLOAD DUP1 SWAP2 SUB SWAP1 RETURN JUMPDEST CALLVALUE DUP1 ISZERO PUSH2 0x6B1 JUMPI PUSH0 PUSH0 REVERT JUMPDEST POP PUSH2 0x6CC PUSH1 0x4 DUP1 CALLDATASIZE SUB DUP2 ADD SWAP1 PUSH2 0x6C7 SWAP2 SWAP1 PUSH2 0x2E5E JUMP JUMPDEST PUSH2 0x1C20 JUMP JUMPDEST STOP JUMPDEST CALLVALUE DUP1 ISZERO PUSH2 0x6D9 JUMPI PUSH0 PUSH0 REVERT JUMPDEST POP PUSH2 0x6F4 PUSH1 0x4 DUP1 CALLDATASIZE SUB DUP2 ADD SWAP1 PUSH2 0x6EF SWAP2 SWAP1 PUSH2 0x2FAA JUMP JUMPDEST PUSH2 0x1DBC JUMP JUMPDEST PUSH1 0x40 MLOAD PUSH2 0x701 SWAP2 SWAP1 PUSH2 0x2FD5 JUMP JUMPDEST PUSH1 0x40 MLOAD DUP1 SWAP2 SUB SWAP1 RETURN JUMPDEST CALLVALUE DUP1 ISZERO PUSH2 0x715 JUMPI PUSH0 PUSH0 REVERT JUMPDEST POP PUSH2 0x730 PUSH1 0x4 DUP1 CALLDATASIZE SUB DUP2 ADD SWAP1 PUSH2 0x72B SWAP2 SWAP1 PUSH2 0x3440 JUMP JUMPDEST PUSH2 0x1DF7 JUMP JUMPDEST STOP JUMPDEST CALLVALUE DUP1 ISZERO PUSH2 0x73D JUMPI PUSH0 PUSH0 REVERT JUMPDEST POP PUSH2 0x758 PUSH1 0x4 DUP1 CALLDATASIZE SUB DUP2 ADD SWAP1 PUSH2 0x753 SWAP2 SWAP1 PUSH2 0x2FAA JUMP JUMPDEST PUSH2 0x1E59 JUMP JUMPDEST PUSH1 0x40 MLOAD PUSH2 0x765 SWAP2 SWAP1 PUSH2 0x2F60 JUMP JUMPDEST PUSH1 0x40 MLOAD DUP1 SWAP2 SUB SWAP1 RETURN JUMPDEST CALLVALUE DUP1 ISZERO PUSH2 0x779 JUMPI PUSH0 PUSH0 REVERT JUMPDEST POP PUSH2 0x782 PUSH2 0x1EED JUMP JUMPDEST PUSH1 0x40 MLOAD PUSH2 0x78F SWAP2 SWAP1 PUSH2 0x2D27 JUMP JUMPDEST PUSH1 0x40 MLOAD DUP1 SWAP2 SUB SWAP1 RETURN JUMPDEST CALLVALUE DUP1 ISZERO PUSH2 0x7A3 JUMPI PUSH0 PUSH0 REVERT JUMPDEST POP PUSH2 0x7BE PUSH1 0x4 DUP1 CALLDATASIZE SUB DUP2 ADD SWAP1 PUSH2 0x7B9 SWAP2 SWAP1 PUSH2 0x2E5E JUMP JUMPDEST PUSH2 0x1EF8 JUMP JUMPDEST PUSH1 0x40 MLOAD PUSH2 0x7CB SWAP2 SWAP1 PUSH2 0x2DEB JUMP JUMPDEST PUSH1 0x40 MLOAD DUP1 SWAP2 SUB SWAP1 RETURN JUMPDEST CALLVALUE DUP1 ISZERO PUSH2 0x7DF JUMPI PUSH0 PUSH0 REVERT JUMPDEST POP PUSH2 0x7E8 PUSH2 0x1F15 JUMP JUMPDEST PUSH1 0x40 MLOAD PUSH2 0x7F5 SWAP2 SWAP1 PUSH2 0x35B7 JUMP JUMPDEST PUSH1 0x40 MLOAD DUP1 SWAP2 SUB SWAP1 RETURN JUMPDEST CALLVALUE DUP1 ISZERO PUSH2 0x809 JUMPI PUSH0 PUSH0 REVERT JUMPDEST POP PUSH2 0x824 PUSH1 0x4 DUP1 CALLDATASIZE SUB DUP2 ADD SWAP1 PUSH2 0x81F SWAP2 SWAP1 PUSH2 0x35D7 JUMP JUMPDEST PUSH2 0x1FD9 JUMP JUMPDEST PUSH1 0x40 MLOAD PUSH2 0x831 SWAP2 SWAP1 PUSH2 0x2DEB JUMP JUMPDEST PUSH1 0x40 MLOAD DUP1 SWAP2 SUB SWAP1 RETURN JUMPDEST PUSH2 0x842 PUSH2 0x2067 JUMP JUMPDEST STOP JUMPDEST CALLVALUE DUP1 ISZERO PUSH2 0x84F JUMPI PUSH0 PUSH0 REVERT JUMPDEST POP PUSH2 0x86A PUSH1 0x4 DUP1 CALLDATASIZE SUB DUP2 ADD SWAP1 PUSH2 0x865 SWAP2 SWAP1 PUSH2 0x2E5E JUMP JUMPDEST PUSH2 0x221B JUMP JUMPDEST STOP JUMPDEST CALLVALUE DUP1 ISZERO PUSH2 0x877 JUMPI PUSH0 PUSH0 REVERT JUMPDEST POP PUSH2 0x892 PUSH1 0x4 DUP1 CALLDATASIZE SUB DUP2 ADD SWAP1 PUSH2 0x88D SWAP2 SWAP1 PUSH2 0x2FAA JUMP JUMPDEST PUSH2 0x229D JUMP JUMPDEST PUSH1 0x40 MLOAD PUSH2 0x8A1 SWAP4 SWAP3 SWAP2 SWAP1 PUSH2 0x3615 JUMP JUMPDEST PUSH1 0x40 MLOAD DUP1 SWAP2 SUB SWAP1 RETURN JUMPDEST PUSH1 0x11 SLOAD DUP2 JUMP JUMPDEST PUSH0 PUSH32 0x80AC58CD00000000000000000000000000000000000000000000000000000000 PUSH28 0xFFFFFFFFFFFFFFFFFFFFFFFFFFFFFFFFFFFFFFFFFFFFFFFFFFFFFFFF NOT AND DUP3 PUSH28 0xFFFFFFFFFFFFFFFFFFFFFFFFFFFFFFFFFFFFFFFFFFFFFFFFFFFFFFFF NOT AND EQ DUP1 PUSH2 0x97A JUMPI POP PUSH32 0x5B5E139F00000000000000000000000000000000000000000000000000000000 PUSH28 0xFFFFFFFFFFFFFFFFFFFFFFFFFFFFFFFFFFFFFFFFFFFFFFFFFFFFFFFF NOT AND DUP3 PUSH28 0xFFFFFFFFFFFFFFFFFFFFFFFFFFFFFFFFFFFFFFFFFFFFFFFFFFFFFFFF NOT AND EQ JUMPDEST DUP1 PUSH2 0x98A JUMPI POP PUSH2 0x989 DUP3 PUSH2 0x22F1 JUMP JUMPDEST JUMPDEST SWAP1 POP SWAP2 SWAP1 POP JUMP JUMPDEST PUSH1 0xD PUSH1 0x20 MSTORE DUP1 PUSH0 MSTORE PUSH1 0x40 PUSH0 KECCAK256 PUSH0 SWAP2 POP SWAP1 POP DUP1 PUSH0 ADD PUSH0 SWAP1 SLOAD SWAP1 PUSH2 0x100 EXP SWAP1 DIV PUSH20 0xFFFFFFFFFFFFFFFFFFFFFFFFFFFFFFFFFFFFFFFF AND SWAP1 DUP1 PUSH1 0x1 ADD DUP1 SLOAD PUSH2 0x9D5 SWAP1 PUSH2 0x3677 JUMP JUMPDEST DUP1 PUSH1 0x1F ADD PUSH1 0x20 DUP1 SWAP2 DIV MUL PUSH1 0x20 ADD PUSH1 0x40 MLOAD SWAP1 DUP2 ADD PUSH1 0x40 MSTORE DUP1 SWAP3 SWAP2 SWAP1 DUP2 DUP2 MSTORE PUSH1 0x20 ADD DUP3 DUP1 SLOAD PUSH2 0xA01 SWAP1 PUSH2 0x3677 JUMP JUMPDEST DUP1 ISZERO PUSH2 0xA4C JUMPI DUP1 PUSH1 0x1F LT PUSH2 0xA23 JUMPI PUSH2 0x100 DUP1 DUP4 SLOAD DIV MUL DUP4 MSTORE SWAP2 PUSH1 0x20 ADD SWAP2 PUSH2 0xA4C JUMP JUMPDEST DUP3 ADD SWAP2 SWAP1 PUSH0 MSTORE PUSH1 0x20 PUSH0 KECCAK256 SWAP1 JUMPDEST DUP2 SLOAD DUP2 MSTORE SWAP1 PUSH1 0x1 ADD SWAP1 PUSH1 0x20 ADD DUP1 DUP4 GT PUSH2 0xA2F JUMPI DUP3 SWAP1 SUB PUSH1 0x1F AND DUP3 ADD SWAP2 JUMPDEST POP POP POP POP POP SWAP1 DUP1 PUSH1 0x2 ADD SLOAD SWAP1 DUP1 PUSH1 0x3 ADD PUSH0 SWAP1 SLOAD SWAP1 PUSH2 0x100 EXP SWAP1 DIV PUSH1 0xFF AND SWAP1 DUP1 PUSH1 0x3 ADD PUSH1 0x1 SWAP1 SLOAD SWAP1 PUSH2 0x100 EXP SWAP1 DIV PUSH1 0xFF AND SWAP1 POP DUP6 JUMP JUMPDEST PUSH1 0x60 PUSH0 DUP1 SLOAD PUSH2 0xA8F SWAP1 PUSH2 0x3677 JUMP JUMPDEST DUP1 PUSH1 0x1F ADD PUSH1 0x20 DUP1 SWAP2 DIV MUL PUSH1 0x20 ADD PUSH1 0x40 MLOAD SWAP1 DUP2 ADD PUSH1 0x40 MSTORE DUP1 SWAP3 SWAP2 SWAP1 DUP2 DUP2 MSTORE PUSH1 0x20 ADD DUP3 DUP1 SLOAD PUSH2 0xABB SWAP1 PUSH2 0x3677 JUMP JUMPDEST DUP1 ISZERO PUSH2 0xB06 JUMPI DUP1 PUSH1 0x1F LT PUSH2 0xADD JUMPI PUSH2 0x100 DUP1 DUP4 SLOAD DIV MUL DUP4 MSTORE SWAP2 PUSH1 0x20 ADD SWAP2 PUSH2 0xB06 JUMP JUMPDEST DUP3 ADD SWAP2 SWAP1 PUSH0 MSTORE PUSH1 0x20 PUSH0 KECCAK256 SWAP1 JUMPDEST DUP2 SLOAD DUP2 MSTORE SWAP1 PUSH1 0x1 ADD SWAP1 PUSH1 0x20 ADD DUP1 DUP4 GT PUSH2 0xAE9 JUMPI DUP3 SWAP1 SUB PUSH1 0x1F AND DUP3 ADD SWAP2 JUMPDEST POP POP POP POP POP SWAP1 POP SWAP1 JUMP JUMPDEST PUSH0 PUSH2 0xB1A DUP3 PUSH2 0x235A JUMP JUMPDEST PUSH1 0x4 PUSH0 DUP4 DUP2 MSTORE PUSH1 0x20 ADD SWAP1 DUP2 MSTORE PUSH1 0x20 ADD PUSH0 KECCAK256 PUSH0 SWAP1 SLOAD SWAP1 PUSH2 0x100 EXP SWAP1 DIV PUSH20 0xFFFFFFFFFFFFFFFFFFFFFFFFFFFFFFFFFFFFFFFF AND SWAP1 POP SWAP2 SWAP1 POP JUMP JUMPDEST PUSH0 PUSH2 0xB5C DUP3 PUSH2 0x1330 JUMP JUMPDEST SWAP1 POP DUP1 PUSH20 0xFFFFFFFFFFFFFFFFFFFFFFFFFFFFFFFFFFFFFFFF AND DUP4 PUSH20 0xFFFFFFFFFFFFFFFFFFFFFFFFFFFFFFFFFFFFFFFF AND SUB PUSH2 0xBCC JUMPI PUSH1 0x40 MLOAD PUSH32 0x8C379A000000000000000000000000000000000000000000000000000000000 DUP2 MSTORE PUSH1 0x4 ADD PUSH2 0xBC3 SWAP1 PUSH2 0x3717 JUMP JUMPDEST PUSH1 0x40 MLOAD DUP1 SWAP2 SUB SWAP1 REVERT JUMPDEST DUP1 PUSH20 0xFFFFFFFFFFFFFFFFFFFFFFFFFFFFFFFFFFFFFFFF AND PUSH2 0xBEB PUSH2 0x23A5 JUMP JUMPDEST PUSH20 0xFFFFFFFFFFFFFFFFFFFFFFFFFFFFFFFFFFFFFFFF AND EQ DUP1 PUSH2 0xC1A JUMPI POP PUSH2 0xC19 DUP2 PUSH2 0xC14 PUSH2 0x23A5 JUMP JUMPDEST PUSH2 0x1FD9 JUMP JUMPDEST JUMPDEST PUSH2 0xC59 JUMPI PUSH1 0x40 MLOAD PUSH32 0x8C379A000000000000000000000000000000000000000000000000000000000 DUP2 MSTORE PUSH1 0x4 ADD PUSH2 0xC50 SWAP1 PUSH2 0x37A5 JUMP JUMPDEST PUSH1 0x40 MLOAD DUP1 SWAP2 SUB SWAP1 REVERT JUMPDEST PUSH2 0xC63 DUP4 DUP4 PUSH2 0x23AC JUMP JUMPDEST POP POP POP JUMP JUMPDEST PUSH1 0xC PUSH1 0x20 MSTORE DUP1 PUSH0 MSTORE PUSH1 0x40 PUSH0 KECCAK256 PUSH0 SWAP2 POP SLOAD SWAP1 PUSH2 0x100 EXP SWAP1 DIV PUSH1 0xFF AND DUP2 JUMP JUMPDEST PUSH1 0xE PUSH1 0x20 MSTORE DUP1 PUSH0 MSTORE PUSH1 0x40 PUSH0 KECCAK256 PUSH0 SWAP2 POP SLOAD SWAP1 PUSH2 0x100 EXP SWAP1 DIV PUSH1 0xFF AND DUP2 JUMP JUMPDEST PUSH2 0xCB3 PUSH2 0xCAD PUSH2 0x23A5 JUMP JUMPDEST DUP3 PUSH2 0x2462 JUMP JUMPDEST PUSH2 0xCF2 JUMPI PUSH1 0x40 MLOAD PUSH32 0x8C379A000000000000000000000000000000000000000000000000000000000 DUP2 MSTORE PUSH1 0x4 ADD PUSH2 0xCE9 SWAP1 PUSH2 0x3833 JUMP JUMPDEST PUSH1 0x40 MLOAD DUP1 SWAP2 SUB SWAP1 REVERT JUMPDEST PUSH2 0xCFD DUP4 DUP4 DUP4 PUSH2 0x24F6 JUMP JUMPDEST POP POP POP JUMP JUMPDEST PUSH1 0x60 PUSH1 0x10 DUP1 SLOAD DUP1 PUSH1 0x20 MUL PUSH1 0x20 ADD PUSH1 0x40 MLOAD SWAP1 DUP2 ADD PUSH1 0x40 MSTORE DUP1 SWAP3 SWAP2 SWAP1 DUP2 DUP2 MSTORE PUSH1 0x20 ADD DUP3 DUP1 SLOAD DUP1 ISZERO PUSH2 0xD83 JUMPI PUSH1 0x20 MUL DUP3 ADD SWAP2 SWAP1 PUSH0 MSTORE PUSH1 0x20 PUSH0 KECCAK256 SWAP1 JUMPDEST DUP2 PUSH0 SWAP1 SLOAD SWAP1 PUSH2 0x100 EXP SWAP1 DIV PUSH20 0xFFFFFFFFFFFFFFFFFFFFFFFFFFFFFFFFFFFFFFFF AND PUSH20 0xFFFFFFFFFFFFFFFFFFFFFFFFFFFFFFFFFFFFFFFF AND DUP2 MSTORE PUSH1 0x20 ADD SWAP1 PUSH1 0x1 ADD SWAP1 DUP1 DUP4 GT PUSH2 0xD3A JUMPI JUMPDEST POP POP POP POP POP SWAP1 POP SWAP1 JUMP JUMPDEST PUSH2 0xD95 PUSH2 0x27E2 JUMP JUMPDEST PUSH1 0x1 PUSH1 0xE PUSH0 DUP4 PUSH20 0xFFFFFFFFFFFFFFFFFFFFFFFFFFFFFFFFFFFFFFFF AND PUSH20 0xFFFFFFFFFFFFFFFFFFFFFFFFFFFFFFFFFFFFFFFF AND DUP2 MSTORE PUSH1 0x20 ADD SWAP1 DUP2 MSTORE PUSH1 0x20 ADD PUSH0 KECCAK256 PUSH0 PUSH2 0x100 EXP DUP2 SLOAD DUP2 PUSH1 0xFF MUL NOT AND SWAP1 DUP4 ISZERO ISZERO MUL OR SWAP1 SSTORE POP POP JUMP JUMPDEST PUSH2 0xDF5 PUSH2 0x27E2 JUMP JUMPDEST PUSH2 0xDFD PUSH2 0x1B35 JUMP JUMPDEST PUSH20 0xFFFFFFFFFFFFFFFFFFFFFFFFFFFFFFFFFFFFFFFF AND PUSH2 0x8FC SELFBALANCE SWAP1 DUP2 ISZERO MUL SWAP1 PUSH1 0x40 MLOAD PUSH0 PUSH1 0x40 MLOAD DUP1 DUP4 SUB DUP2 DUP6 DUP9 DUP9 CALL SWAP4 POP POP POP POP ISZERO DUP1 ISZERO PUSH2 0xE3F JUMPI RETURNDATASIZE PUSH0 PUSH0 RETURNDATACOPY RETURNDATASIZE PUSH0 REVERT JUMPDEST POP JUMP JUMPDEST PUSH2 0xE4A PUSH2 0x27E2 JUMP JUMPDEST PUSH1 0xC PUSH0 DUP3 PUSH20 0xFFFFFFFFFFFFFFFFFFFFFFFFFFFFFFFFFFFFFFFF AND PUSH20 0xFFFFFFFFFFFFFFFFFFFFFFFFFFFFFFFFFFFFFFFF AND DUP2 MSTORE PUSH1 0x20 ADD SWAP1 DUP2 MSTORE PUSH1 0x20 ADD PUSH0 KECCAK256 PUSH0 SWAP1 SLOAD SWAP1 PUSH2 0x100 EXP SWAP1 DIV PUSH1 0xFF AND PUSH2 0xED3 JUMPI PUSH1 0x40 MLOAD PUSH32 0x8C379A000000000000000000000000000000000000000000000000000000000 DUP2 MSTORE PUSH1 0x4 ADD PUSH2 0xECA SWAP1 PUSH2 0x389B JUMP JUMPDEST PUSH1 0x40 MLOAD DUP1 SWAP2 SUB SWAP1 REVERT JUMPDEST PUSH0 PUSH1 0x40 MLOAD DUP1 PUSH1 0x60 ADD PUSH1 0x40 MSTORE DUP1 PUSH1 0x27 DUP2 MSTORE PUSH1 0x20 ADD PUSH2 0x457C PUSH1 0x27 SWAP2 CODECOPY SWAP1 POP PUSH1 0x9 PUSH0 SWAP1 SLOAD SWAP1 PUSH2 0x100 EXP SWAP1 DIV PUSH20 0xFFFFFFFFFFFFFFFFFFFFFFFFFFFFFFFFFFFFFFFF AND PUSH20 0xFFFFFFFFFFFFFFFFFFFFFFFFFFFFFFFFFFFFFFFF AND PUSH4 0x6B2BAFC8 DUP4 DUP4 PUSH1 0x40 MLOAD DUP4 PUSH4 0xFFFFFFFF AND PUSH1 0xE0 SHL DUP2 MSTORE PUSH1 0x4 ADD PUSH2 0xF4B SWAP3 SWAP2 SWAP1 PUSH2 0x38B9 JUMP JUMPDEST PUSH1 0x20 PUSH1 0x40 MLOAD DUP1 DUP4 SUB DUP2 PUSH0 DUP8 GAS CALL ISZERO DUP1 ISZERO PUSH2 0xF67 JUMPI RETURNDATASIZE PUSH0 PUSH0 RETURNDATACOPY RETURNDATASIZE PUSH0 REVERT JUMPDEST POP POP POP POP PUSH1 0x40 MLOAD RETURNDATASIZE PUSH1 0x1F NOT PUSH1 0x1F DUP3 ADD AND DUP3 ADD DUP1 PUSH1 0x40 MSTORE POP DUP2 ADD SWAP1 PUSH2 0xF8B SWAP2 SWAP1 PUSH2 0x38FB JUMP JUMPDEST POP DUP2 PUSH20 0xFFFFFFFFFFFFFFFFFFFFFFFFFFFFFFFFFFFFFFFF AND PUSH32 0xD60CA36C50BF9E309008979C6E4AA0298DFDE37CF18DE60C2A6FD074BCDC3ACC TIMESTAMP PUSH1 0x40 MLOAD PUSH2 0xFD2 SWAP2 SWAP1 PUSH2 0x2D27 JUMP JUMPDEST PUSH1 0x40 MLOAD DUP1 SWAP2 SUB SWAP1 LOG2 POP POP JUMP JUMPDEST PUSH2 0xFF8 DUP4 DUP4 DUP4 PUSH1 0x40 MLOAD DUP1 PUSH1 0x20 ADD PUSH1 0x40 MSTORE DUP1 PUSH0 DUP2 MSTORE POP PUSH2 0x1DF7 JUMP JUMPDEST POP POP POP JUMP JUMPDEST PUSH2 0x1005 PUSH2 0x27E2 JUMP JUMPDEST PUSH0 PUSH1 0xE PUSH0 DUP4 PUSH20 0xFFFFFFFFFFFFFFFFFFFFFFFFFFFFFFFFFFFFFFFF AND PUSH20 0xFFFFFFFFFFFFFFFFFFFFFFFFFFFFFFFFFFFFFFFF AND DUP2 MSTORE PUSH1 0x20 ADD SWAP1 DUP2 MSTORE PUSH1 0x20 ADD PUSH0 KECCAK256 PUSH0 PUSH2 0x100 EXP DUP2 SLOAD DUP2 PUSH1 0xFF MUL NOT AND SWAP1 DUP4 ISZERO ISZERO MUL OR SWAP1 SSTORE POP POP JUMP JUMPDEST PUSH1 0x9 PUSH0 SWAP1 SLOAD SWAP1 PUSH2 0x100 EXP SWAP1 DIV PUSH20 0xFFFFFFFFFFFFFFFFFFFFFFFFFFFFFFFFFFFFFFFF AND DUP2 JUMP JUMPDEST PUSH1 0xA PUSH0 CALLER PUSH20 0xFFFFFFFFFFFFFFFFFFFFFFFFFFFFFFFFFFFFFFFF AND PUSH20 0xFFFFFFFFFFFFFFFFFFFFFFFFFFFFFFFFFFFFFFFF AND DUP2 MSTORE PUSH1 0x20 ADD SWAP1 DUP2 MSTORE PUSH1 0x20 ADD PUSH0 KECCAK256 PUSH0 SWAP1 SLOAD SWAP1 PUSH2 0x100 EXP SWAP1 DIV PUSH1 0xFF AND PUSH2 0x110A JUMPI PUSH1 0x40 MLOAD PUSH32 0x8C379A000000000000000000000000000000000000000000000000000000000 DUP2 MSTORE PUSH1 0x4 ADD PUSH2 0x1101 SWAP1 PUSH2 0x3970 JUMP JUMPDEST PUSH1 0x40 MLOAD DUP1 SWAP2 SUB SWAP1 REVERT JUMPDEST PUSH1 0xB PUSH0 CALLER PUSH20 0xFFFFFFFFFFFFFFFFFFFFFFFFFFFFFFFFFFFFFFFF AND PUSH20 0xFFFFFFFFFFFFFFFFFFFFFFFFFFFFFFFFFFFFFFFF AND DUP2 MSTORE PUSH1 0x20 ADD SWAP1 DUP2 MSTORE PUSH1 0x20 ADD PUSH0 KECCAK256 PUSH0 SWAP1 SLOAD SWAP1 PUSH2 0x100 EXP SWAP1 DIV PUSH1 0xFF AND ISZERO PUSH2 0x1194 JUMPI PUSH1 0x40 MLOAD PUSH32 0x8C379A000000000000000000000000000000000000000000000000000000000 DUP2 MSTORE PUSH1 0x4 ADD PUSH2 0x118B SWAP1 PUSH2 0x39D8 JUMP JUMPDEST PUSH1 0x40 MLOAD DUP1 SWAP2 SUB SWAP1 REVERT JUMPDEST PUSH7 0x2386F26FC10000 SELFBALANCE LT ISZERO PUSH2 0x11DE JUMPI PUSH1 0x40 MLOAD PUSH32 0x8C379A000000000000000000000000000000000000000000000000000000000 DUP2 MSTORE PUSH1 0x4 ADD PUSH2 0x11D5 SWAP1 PUSH2 0x3A40 JUMP JUMPDEST PUSH1 0x40 MLOAD DUP1 SWAP2 SUB SWAP1 REVERT JUMPDEST PUSH1 0x1 PUSH1 0xB PUSH0 CALLER PUSH20 0xFFFFFFFFFFFFFFFFFFFFFFFFFFFFFFFFFFFFFFFF AND PUSH20 0xFFFFFFFFFFFFFFFFFFFFFFFFFFFFFFFFFFFFFFFF AND DUP2 MSTORE PUSH1 0x20 ADD SWAP1 DUP2 MSTORE PUSH1 0x20 ADD PUSH0 KECCAK256 PUSH0 PUSH2 0x100 EXP DUP2 SLOAD DUP2 PUSH1 0xFF MUL NOT AND SWAP1 DUP4 ISZERO ISZERO MUL OR SWAP1 SSTORE POP PUSH1 0x1 PUSH1 0xD PUSH0 CALLER PUSH20 0xFFFFFFFFFFFFFFFFFFFFFFFFFFFFFFFFFFFFFFFF AND PUSH20 0xFFFFFFFFFFFFFFFFFFFFFFFFFFFFFFFFFFFFFFFF AND DUP2 MSTORE PUSH1 0x20 ADD SWAP1 DUP2 MSTORE PUSH1 0x20 ADD PUSH0 KECCAK256 PUSH1 0x3 ADD PUSH1 0x1 PUSH2 0x100 EXP DUP2 SLOAD DUP2 PUSH1 0xFF MUL NOT AND SWAP1 DUP4 ISZERO ISZERO MUL OR SWAP1 SSTORE POP CALLER PUSH20 0xFFFFFFFFFFFFFFFFFFFFFFFFFFFFFFFFFFFFFFFF AND PUSH2 0x8FC PUSH7 0x2386F26FC10000 SWAP1 DUP2 ISZERO MUL SWAP1 PUSH1 0x40 MLOAD PUSH0 PUSH1 0x40 MLOAD DUP1 DUP4 SUB DUP2 DUP6 DUP9 DUP9 CALL SWAP4 POP POP POP POP ISZERO DUP1 ISZERO PUSH2 0x12D6 JUMPI RETURNDATASIZE PUSH0 PUSH0 RETURNDATACOPY RETURNDATASIZE PUSH0 REVERT JUMPDEST POP CALLER PUSH20 0xFFFFFFFFFFFFFFFFFFFFFFFFFFFFFFFFFFFFFFFF AND PUSH32 0x1BE6EF4E23449C13F63DF2C1AB3B05B62141B0F9FAFFF909EECA35FBA77D9747 PUSH7 0x2386F26FC10000 TIMESTAMP PUSH1 0x40 MLOAD PUSH2 0x1326 SWAP3 SWAP2 SWAP1 PUSH2 0x3A5E JUMP JUMPDEST PUSH1 0x40 MLOAD DUP1 SWAP2 SUB SWAP1 LOG2 JUMP JUMPDEST PUSH0 PUSH0 PUSH2 0x133B DUP4 PUSH2 0x2860 JUMP JUMPDEST SWAP1 POP PUSH0 PUSH20 0xFFFFFFFFFFFFFFFFFFFFFFFFFFFFFFFFFFFFFFFF AND DUP2 PUSH20 0xFFFFFFFFFFFFFFFFFFFFFFFFFFFFFFFFFFFFFFFF AND SUB PUSH2 0x13AB JUMPI PUSH1 0x40 MLOAD PUSH32 0x8C379A000000000000000000000000000000000000000000000000000000000 DUP2 MSTORE PUSH1 0x4 ADD PUSH2 0x13A2 SWAP1 PUSH2 0x3ACF JUMP JUMPDEST PUSH1 0x40 MLOAD DUP1 SWAP2 SUB SWAP1 REVERT JUMPDEST DUP1 SWAP2 POP POP SWAP2 SWAP1 POP JUMP JUMPDEST PUSH0 PUSH0 PUSH20 0xFFFFFFFFFFFFFFFFFFFFFFFFFFFFFFFFFFFFFFFF AND DUP3 PUSH20 0xFFFFFFFFFFFFFFFFFFFFFFFFFFFFFFFFFFFFFFFF AND SUB PUSH2 0x1423 JUMPI PUSH1 0x40 MLOAD PUSH32 0x8C379A000000000000000000000000000000000000000000000000000000000 DUP2 MSTORE PUSH1 0x4 ADD PUSH2 0x141A SWAP1 PUSH2 0x3B5D JUMP JUMPDEST PUSH1 0x40 MLOAD DUP1 SWAP2 SUB SWAP1 REVERT JUMPDEST PUSH1 0x3 PUSH0 DUP4 PUSH20 0xFFFFFFFFFFFFFFFFFFFFFFFFFFFFFFFFFFFFFFFF AND PUSH20 0xFFFFFFFFFFFFFFFFFFFFFFFFFFFFFFFFFFFFFFFF AND DUP2 MSTORE PUSH1 0x20 ADD SWAP1 DUP2 MSTORE PUSH1 0x20 ADD PUSH0 KECCAK256 SLOAD SWAP1 POP SWAP2 SWAP1 POP JUMP JUMPDEST PUSH2 0x1470 PUSH2 0x27E2 JUMP JUMPDEST PUSH2 0x1479 PUSH0 PUSH2 0x2899 JUMP JUMPDEST JUMP JUMPDEST PUSH2 0x1483 PUSH2 0x27E2 JUMP JUMPDEST PUSH0 PUSH20 0xFFFFFFFFFFFFFFFFFFFFFFFFFFFFFFFFFFFFFFFF AND PUSH1 0xD PUSH0 DUP4 PUSH20 0xFFFFFFFFFFFFFFFFFFFFFFFFFFFFFFFFFFFFFFFF AND PUSH20 0xFFFFFFFFFFFFFFFFFFFFFFFFFFFFFFFFFFFFFFFF AND DUP2 MSTORE PUSH1 0x20 ADD SWAP1 DUP2 MSTORE PUSH1 0x20 ADD PUSH0 KECCAK256 PUSH0 ADD PUSH0 SWAP1 SLOAD SWAP1 PUSH2 0x100 EXP SWAP1 DIV PUSH20 0xFFFFFFFFFFFFFFFFFFFFFFFFFFFFFFFFFFFFFFFF AND PUSH20 0xFFFFFFFFFFFFFFFFFFFFFFFFFFFFFFFFFFFFFFFF AND SUB PUSH2 0x154F JUMPI PUSH1 0x40 MLOAD PUSH32 0x8C379A000000000000000000000000000000000000000000000000000000000 DUP2 MSTORE PUSH1 0x4 ADD PUSH2 0x1546 SWAP1 PUSH2 0x3BC5 JUMP JUMPDEST PUSH1 0x40 MLOAD DUP1 SWAP2 SUB SWAP1 REVERT JUMPDEST PUSH1 0x1 PUSH1 0xA PUSH0 DUP4 PUSH20 0xFFFFFFFFFFFFFFFFFFFFFFFFFFFFFFFFFFFFFFFF AND PUSH20 0xFFFFFFFFFFFFFFFFFFFFFFFFFFFFFFFFFFFFFFFF AND DUP2 MSTORE PUSH1 0x20 ADD SWAP1 DUP2 MSTORE PUSH1 0x20 ADD PUSH0 KECCAK256 PUSH0 PUSH2 0x100 EXP DUP2 SLOAD DUP2 PUSH1 0xFF MUL NOT AND SWAP1 DUP4 ISZERO ISZERO MUL OR SWAP1 SSTORE POP PUSH1 0x1 PUSH1 0xD PUSH0 DUP4 PUSH20 0xFFFFFFFFFFFFFFFFFFFFFFFFFFFFFFFFFFFFFFFF AND PUSH20 0xFFFFFFFFFFFFFFFFFFFFFFFFFFFFFFFFFFFFFFFF AND DUP2 MSTORE PUSH1 0x20 ADD SWAP1 DUP2 MSTORE PUSH1 0x20 ADD PUSH0 KECCAK256 PUSH1 0x3 ADD PUSH0 PUSH2 0x100 EXP DUP2 SLOAD DUP2 PUSH1 0xFF MUL NOT AND SWAP1 DUP4 ISZERO ISZERO MUL OR SWAP1 SSTORE POP DUP1 PUSH20 0xFFFFFFFFFFFFFFFFFFFFFFFFFFFFFFFFFFFFFFFF AND PUSH32 0x2CE9E98B6EE046CED5FC4C08BA7E9D2CDA7CB3B81CF8DEE9B16C620EC103F3F TIMESTAMP PUSH1 0x40 MLOAD PUSH2 0x1642 SWAP2 SWAP1 PUSH2 0x2D27 JUMP JUMPDEST PUSH1 0x40 MLOAD DUP1 SWAP2 SUB SWAP1 LOG2 POP JUMP JUMPDEST PUSH0 DUP2 MLOAD GT PUSH2 0x1690 JUMPI PUSH1 0x40 MLOAD PUSH32 0x8C379A000000000000000000000000000000000000000000000000000000000 DUP2 MSTORE PUSH1 0x4 ADD PUSH2 0x1687 SWAP1 PUSH2 0x3C2D JUMP JUMPDEST PUSH1 0x40 MLOAD DUP1 SWAP2 SUB SWAP1 REVERT JUMPDEST PUSH0 PUSH20 0xFFFFFFFFFFFFFFFFFFFFFFFFFFFFFFFFFFFFFFFF AND PUSH1 0xD PUSH0 CALLER PUSH20 0xFFFFFFFFFFFFFFFFFFFFFFFFFFFFFFFFFFFFFFFF AND PUSH20 0xFFFFFFFFFFFFFFFFFFFFFFFFFFFFFFFFFFFFFFFF AND DUP2 MSTORE PUSH1 0x20 ADD SWAP1 DUP2 MSTORE PUSH1 0x20 ADD PUSH0 KECCAK256 PUSH0 ADD PUSH0 SWAP1 SLOAD SWAP1 PUSH2 0x100 EXP SWAP1 DIV PUSH20 0xFFFFFFFFFFFFFFFFFFFFFFFFFFFFFFFFFFFFFFFF AND PUSH20 0xFFFFFFFFFFFFFFFFFFFFFFFFFFFFFFFFFFFFFFFF AND EQ PUSH2 0x175C JUMPI PUSH1 0x40 MLOAD PUSH32 0x8C379A000000000000000000000000000000000000000000000000000000000 DUP2 MSTORE PUSH1 0x4 ADD PUSH2 0x1753 SWAP1 PUSH2 0x3C95 JUMP JUMPDEST PUSH1 0x40 MLOAD DUP1 SWAP2 SUB SWAP1 REVERT JUMPDEST PUSH1 0x40 MLOAD DUP1 PUSH1 0xA0 ADD PUSH1 0x40 MSTORE DUP1 CALLER PUSH20 0xFFFFFFFFFFFFFFFFFFFFFFFFFFFFFFFFFFFFFFFF AND DUP2 MSTORE PUSH1 0x20 ADD DUP3 DUP2 MSTORE PUSH1 0x20 ADD TIMESTAMP DUP2 MSTORE PUSH1 0x20 ADD PUSH0 ISZERO ISZERO DUP2 MSTORE PUSH1 0x20 ADD PUSH0 ISZERO ISZERO DUP2 MSTORE POP PUSH1 0xD PUSH0 CALLER PUSH20 0xFFFFFFFFFFFFFFFFFFFFFFFFFFFFFFFFFFFFFFFF AND PUSH20 0xFFFFFFFFFFFFFFFFFFFFFFFFFFFFFFFFFFFFFFFF AND DUP2 MSTORE PUSH1 0x20 ADD SWAP1 DUP2 MSTORE PUSH1 0x20 ADD PUSH0 KECCAK256 PUSH0 DUP3 ADD MLOAD DUP2 PUSH0 ADD PUSH0 PUSH2 0x100 EXP DUP2 SLOAD DUP2 PUSH20 0xFFFFFFFFFFFFFFFFFFFFFFFFFFFFFFFFFFFFFFFF MUL NOT AND SWAP1 DUP4 PUSH20 0xFFFFFFFFFFFFFFFFFFFFFFFFFFFFFFFFFFFFFFFF AND MUL OR SWAP1 SSTORE POP PUSH1 0x20 DUP3 ADD MLOAD DUP2 PUSH1 0x1 ADD SWAP1 DUP2 PUSH2 0x1833 SWAP2 SWAP1 PUSH2 0x3E4A JUMP JUMPDEST POP PUSH1 0x40 DUP3 ADD MLOAD DUP2 PUSH1 0x2 ADD SSTORE PUSH1 0x60 DUP3 ADD MLOAD DUP2 PUSH1 0x3 ADD PUSH0 PUSH2 0x100 EXP DUP2 SLOAD DUP2 PUSH1 0xFF MUL NOT AND SWAP1 DUP4 ISZERO ISZERO MUL OR SWAP1 SSTORE POP PUSH1 0x80 DUP3 ADD MLOAD DUP2 PUSH1 0x3 ADD PUSH1 0x1 PUSH2 0x100 EXP DUP2 SLOAD DUP2 PUSH1 0xFF MUL NOT AND SWAP1 DUP4 ISZERO ISZERO MUL OR SWAP1 SSTORE POP SWAP1 POP POP PUSH1 0x10 CALLER SWAP1 DUP1 PUSH1 0x1 DUP2 SLOAD ADD DUP1 DUP3 SSTORE DUP1 SWAP2 POP POP PUSH1 0x1 SWAP1 SUB SWAP1 PUSH0 MSTORE PUSH1 0x20 PUSH0 KECCAK256 ADD PUSH0 SWAP1 SWAP2 SWAP1 SWAP2 SWAP1 SWAP2 PUSH2 0x100 EXP DUP2 SLOAD DUP2 PUSH20 0xFFFFFFFFFFFFFFFFFFFFFFFFFFFFFFFFFFFFFFFF MUL NOT AND SWAP1 DUP4 PUSH20 0xFFFFFFFFFFFFFFFFFFFFFFFFFFFFFFFFFFFFFFFF AND MUL OR SWAP1 SSTORE POP PUSH0 PUSH1 0xB PUSH0 CALLER PUSH20 0xFFFFFFFFFFFFFFFFFFFFFFFFFFFFFFFFFFFFFFFF AND PUSH20 0xFFFFFFFFFFFFFFFFFFFFFFFFFFFFFFFFFFFFFFFF AND DUP2 MSTORE PUSH1 0x20 ADD SWAP1 DUP2 MSTORE PUSH1 0x20 ADD PUSH0 KECCAK256 PUSH0 SWAP1 SLOAD SWAP1 PUSH2 0x100 EXP SWAP1 DIV PUSH1 0xFF AND ISZERO DUP1 ISZERO PUSH2 0x197F JUMPI POP PUSH1 0xE PUSH0 CALLER PUSH20 0xFFFFFFFFFFFFFFFFFFFFFFFFFFFFFFFFFFFFFFFF AND PUSH20 0xFFFFFFFFFFFFFFFFFFFFFFFFFFFFFFFFFFFFFFFF AND DUP2 MSTORE PUSH1 0x20 ADD SWAP1 DUP2 MSTORE PUSH1 0x20 ADD PUSH0 KECCAK256 PUSH0 SWAP1 SLOAD SWAP1 PUSH2 0x100 EXP SWAP1 DIV PUSH1 0xFF AND ISZERO JUMPDEST DUP1 ISZERO PUSH2 0x198C JUMPI POP PUSH1 0x14 DUP3 MLOAD GT JUMPDEST SWAP1 POP DUP1 ISZERO PUSH2 0x1A94 JUMPI PUSH1 0x1 PUSH1 0xA PUSH0 CALLER PUSH20 0xFFFFFFFFFFFFFFFFFFFFFFFFFFFFFFFFFFFFFFFF AND PUSH20 0xFFFFFFFFFFFFFFFFFFFFFFFFFFFFFFFFFFFFFFFF AND DUP2 MSTORE PUSH1 0x20 ADD SWAP1 DUP2 MSTORE PUSH1 0x20 ADD PUSH0 KECCAK256 PUSH0 PUSH2 0x100 EXP DUP2 SLOAD DUP2 PUSH1 0xFF MUL NOT AND SWAP1 DUP4 ISZERO ISZERO MUL OR SWAP1 SSTORE POP PUSH1 0x1 PUSH1 0xD PUSH0 CALLER PUSH20 0xFFFFFFFFFFFFFFFFFFFFFFFFFFFFFFFFFFFFFFFF AND PUSH20 0xFFFFFFFFFFFFFFFFFFFFFFFFFFFFFFFFFFFFFFFF AND DUP2 MSTORE PUSH1 0x20 ADD SWAP1 DUP2 MSTORE PUSH1 0x20 ADD PUSH0 KECCAK256 PUSH1 0x3 ADD PUSH0 PUSH2 0x100 EXP DUP2 SLOAD DUP2 PUSH1 0xFF MUL NOT AND SWAP1 DUP4 ISZERO ISZERO MUL OR SWAP1 SSTORE POP CALLER PUSH20 0xFFFFFFFFFFFFFFFFFFFFFFFFFFFFFFFFFFFFFFFF AND PUSH32 0x5F7E089E3C333C0C497FF958820A2CEDE15459E1F63AFCA63463B0B433801B79 TIMESTAMP PUSH1 0x40 MLOAD PUSH2 0x1A87 SWAP2 SWAP1 PUSH2 0x2D27 JUMP JUMPDEST PUSH1 0x40 MLOAD DUP1 SWAP2 SUB SWAP1 LOG2 PUSH2 0x1AE1 JUMP JUMPDEST CALLER PUSH20 0xFFFFFFFFFFFFFFFFFFFFFFFFFFFFFFFFFFFFFFFF AND PUSH32 0xE5415CA3ABF5B6ACF5425668972544916089F6FA30341A178CCA6268EAF97793 PUSH1 0x40 MLOAD PUSH2 0x1AD8 SWAP1 PUSH2 0x3F89 JUMP JUMPDEST PUSH1 0x40 MLOAD DUP1 SWAP2 SUB SWAP1 LOG2 JUMPDEST CALLER PUSH20 0xFFFFFFFFFFFFFFFFFFFFFFFFFFFFFFFFFFFFFFFF AND PUSH32 0x1A2AD18786286BEC54A7B127416F42C08E7FC8AA4B07409A970F14D4ADAD03B6 DUP4 TIMESTAMP PUSH1 0x40 MLOAD PUSH2 0x1B29 SWAP3 SWAP2 SWAP1 PUSH2 0x3FA7 JUMP JUMPDEST PUSH1 0x40 MLOAD DUP1 SWAP2 SUB SWAP1 LOG2 POP POP JUMP JUMPDEST PUSH0 PUSH1 0x6 PUSH0 SWAP1 SLOAD SWAP1 PUSH2 0x100 EXP SWAP1 DIV PUSH20 0xFFFFFFFFFFFFFFFFFFFFFFFFFFFFFFFFFFFFFFFF AND SWAP1 POP SWAP1 JUMP JUMPDEST PUSH1 0x60 PUSH1 0x1 DUP1 SLOAD PUSH2 0x1B6C SWAP1 PUSH2 0x3677 JUMP JUMPDEST DUP1 PUSH1 0x1F ADD PUSH1 0x20 DUP1 SWAP2 DIV MUL PUSH1 0x20 ADD PUSH1 0x40 MLOAD SWAP1 DUP2 ADD PUSH1 0x40 MSTORE DUP1 SWAP3 SWAP2 SWAP1 DUP2 DUP2 MSTORE PUSH1 0x20 ADD DUP3 DUP1 SLOAD PUSH2 0x1B98 SWAP1 PUSH2 0x3677 JUMP JUMPDEST DUP1 ISZERO PUSH2 0x1BE3 JUMPI DUP1 PUSH1 0x1F LT PUSH2 0x1BBA JUMPI PUSH2 0x100 DUP1 DUP4 SLOAD DIV MUL DUP4 MSTORE SWAP2 PUSH1 0x20 ADD SWAP2 PUSH2 0x1BE3 JUMP JUMPDEST DUP3 ADD SWAP2 SWAP1 PUSH0 MSTORE PUSH1 0x20 PUSH0 KECCAK256 SWAP1 JUMPDEST DUP2 SLOAD DUP2 MSTORE SWAP1 PUSH1 0x1 ADD SWAP1 PUSH1 0x20 ADD DUP1 DUP4 GT PUSH2 0x1BC6 JUMPI DUP3 SWAP1 SUB PUSH1 0x1F AND DUP3 ADD SWAP2 JUMPDEST POP POP POP POP POP SWAP1 POP SWAP1 JUMP JUMPDEST PUSH2 0x1BFF PUSH2 0x1BF8 PUSH2 0x23A5 JUMP JUMPDEST DUP4 DUP4 PUSH2 0x295C JUMP JUMPDEST POP POP JUMP JUMPDEST PUSH1 0xB PUSH1 0x20 MSTORE DUP1 PUSH0 MSTORE PUSH1 0x40 PUSH0 KECCAK256 PUSH0 SWAP2 POP SLOAD SWAP1 PUSH2 0x100 EXP SWAP1 DIV PUSH1 0xFF AND DUP2 JUMP JUMPDEST PUSH2 0x1C28 PUSH2 0x27E2 JUMP JUMPDEST PUSH1 0xB PUSH0 DUP3 PUSH20 0xFFFFFFFFFFFFFFFFFFFFFFFFFFFFFFFFFFFFFFFF AND PUSH20 0xFFFFFFFFFFFFFFFFFFFFFFFFFFFFFFFFFFFFFFFF AND DUP2 MSTORE PUSH1 0x20 ADD SWAP1 DUP2 MSTORE PUSH1 0x20 ADD PUSH0 KECCAK256 PUSH0 SWAP1 SLOAD SWAP1 PUSH2 0x100 EXP SWAP1 DIV PUSH1 0xFF AND PUSH2 0x1CB1 JUMPI PUSH1 0x40 MLOAD PUSH32 0x8C379A000000000000000000000000000000000000000000000000000000000 DUP2 MSTORE PUSH1 0x4 ADD PUSH2 0x1CA8 SWAP1 PUSH2 0x401F JUMP JUMPDEST PUSH1 0x40 MLOAD DUP1 SWAP2 SUB SWAP1 REVERT JUMPDEST PUSH0 PUSH1 0x40 MLOAD DUP1 PUSH1 0x60 ADD PUSH1 0x40 MSTORE DUP1 PUSH1 0x2B DUP2 MSTORE PUSH1 0x20 ADD PUSH2 0x4551 PUSH1 0x2B SWAP2 CODECOPY SWAP1 POP PUSH1 0x9 PUSH0 SWAP1 SLOAD SWAP1 PUSH2 0x100 EXP SWAP1 DIV PUSH20 0xFFFFFFFFFFFFFFFFFFFFFFFFFFFFFFFFFFFFFFFF AND PUSH20 0xFFFFFFFFFFFFFFFFFFFFFFFFFFFFFFFFFFFFFFFF AND PUSH4 0x6B2BAFC8 DUP4 DUP4 PUSH1 0x40 MLOAD DUP4 PUSH4 0xFFFFFFFF AND PUSH1 0xE0 SHL DUP2 MSTORE PUSH1 0x4 ADD PUSH2 0x1D29 SWAP3 SWAP2 SWAP1 PUSH2 0x38B9 JUMP JUMPDEST PUSH1 0x20 PUSH1 0x40 MLOAD DUP1 DUP4 SUB DUP2 PUSH0 DUP8 GAS CALL ISZERO DUP1 ISZERO PUSH2 0x1D45 JUMPI RETURNDATASIZE PUSH0 PUSH0 RETURNDATACOPY RETURNDATASIZE PUSH0 REVERT JUMPDEST POP POP POP POP PUSH1 0x40 MLOAD RETURNDATASIZE PUSH1 0x1F NOT PUSH1 0x1F DUP3 ADD AND DUP3 ADD DUP1 PUSH1 0x40 MSTORE POP DUP2 ADD SWAP1 PUSH2 0x1D69 SWAP2 SWAP1 PUSH2 0x38FB JUMP JUMPDEST POP DUP2 PUSH20 0xFFFFFFFFFFFFFFFFFFFFFFFFFFFFFFFFFFFFFFFF AND PUSH32 0x8294662F8B02BD601715558A8F649EB561D3DCE2A1590609BFB921B5B5B750C7 TIMESTAMP PUSH1 0x40 MLOAD PUSH2 0x1DB0 SWAP2 SWAP1 PUSH2 0x2D27 JUMP JUMPDEST PUSH1 0x40 MLOAD DUP1 SWAP2 SUB SWAP1 LOG2 POP POP JUMP JUMPDEST PUSH1 0x10 DUP2 DUP2 SLOAD DUP2 LT PUSH2 0x1DCB JUMPI PUSH0 DUP1 REVERT JUMPDEST SWAP1 PUSH0 MSTORE PUSH1 0x20 PUSH0 KECCAK256 ADD PUSH0 SWAP2 POP SLOAD SWAP1 PUSH2 0x100 EXP SWAP1 DIV PUSH20 0xFFFFFFFFFFFFFFFFFFFFFFFFFFFFFFFFFFFFFFFF AND DUP2 JUMP JUMPDEST PUSH2 0x1E08 PUSH2 0x1E02 PUSH2 0x23A5 JUMP JUMPDEST DUP4 PUSH2 0x2462 JUMP JUMPDEST PUSH2 0x1E47 JUMPI PUSH1 0x40 MLOAD PUSH32 0x8C379A000000000000000000000000000000000000000000000000000000000 DUP2 MSTORE PUSH1 0x4 ADD PUSH2 0x1E3E SWAP1 PUSH2 0x3833 JUMP JUMPDEST PUSH1 0x40 MLOAD DUP1 SWAP2 SUB SWAP1 REVERT JUMPDEST PUSH2 0x1E53 DUP5 DUP5 DUP5 DUP5 PUSH2 0x2AC3 JUMP JUMPDEST POP POP POP POP JUMP JUMPDEST PUSH1 0x60 PUSH2 0x1E64 DUP3 PUSH2 0x2B1F JUMP JUMPDEST PUSH2 0x1EA3 JUMPI PUSH1 0x40 MLOAD PUSH32 0x8C379A000000000000000000000000000000000000000000000000000000000 DUP2 MSTORE PUSH1 0x4 ADD PUSH2 0x1E9A SWAP1 PUSH2 0x4087 JUMP JUMPDEST PUSH1 0x40 MLOAD DUP1 SWAP2 SUB SWAP1 REVERT JUMPDEST PUSH2 0x2710 DUP3 GT PUSH2 0x1ECC JUMPI PUSH1 0x40 MLOAD DUP1 PUSH1 0x60 ADD PUSH1 0x40 MSTORE DUP1 PUSH1 0x27 DUP2 MSTORE PUSH1 0x20 ADD PUSH2 0x457C PUSH1 0x27 SWAP2 CODECOPY SWAP1 POP PUSH2 0x1EE8 JUMP JUMPDEST PUSH1 0x40 MLOAD DUP1 PUSH1 0x60 ADD PUSH1 0x40 MSTORE DUP1 PUSH1 0x2B DUP2 MSTORE PUSH1 0x20 ADD PUSH2 0x4551 PUSH1 0x2B SWAP2 CODECOPY SWAP1 POP JUMPDEST SWAP2 SWAP1 POP JUMP JUMPDEST PUSH7 0x2386F26FC10000 DUP2 JUMP JUMPDEST PUSH1 0xA PUSH1 0x20 MSTORE DUP1 PUSH0 MSTORE PUSH1 0x40 PUSH0 KECCAK256 PUSH0 SWAP2 POP SLOAD SWAP1 PUSH2 0x100 EXP SWAP1 DIV PUSH1 0xFF AND DUP2 JUMP JUMPDEST PUSH1 0x60 PUSH1 0xF DUP1 SLOAD DUP1 PUSH1 0x20 MUL PUSH1 0x20 ADD PUSH1 0x40 MLOAD SWAP1 DUP2 ADD PUSH1 0x40 MSTORE DUP1 SWAP3 SWAP2 SWAP1 DUP2 DUP2 MSTORE PUSH1 0x20 ADD PUSH0 SWAP1 JUMPDEST DUP3 DUP3 LT ISZERO PUSH2 0x1FD0 JUMPI DUP4 DUP3 SWAP1 PUSH0 MSTORE PUSH1 0x20 PUSH0 KECCAK256 SWAP1 PUSH1 0x3 MUL ADD PUSH1 0x40 MLOAD DUP1 PUSH1 0x60 ADD PUSH1 0x40 MSTORE SWAP1 DUP2 PUSH0 DUP3 ADD PUSH0 SWAP1 SLOAD SWAP1 PUSH2 0x100 EXP SWAP1 DIV PUSH20 0xFFFFFFFFFFFFFFFFFFFFFFFFFFFFFFFFFFFFFFFF AND PUSH20 0xFFFFFFFFFFFFFFFFFFFFFFFFFFFFFFFFFFFFFFFF AND PUSH20 0xFFFFFFFFFFFFFFFFFFFFFFFFFFFFFFFFFFFFFFFF AND DUP2 MSTORE PUSH1 0x20 ADD PUSH1 0x1 DUP3 ADD SLOAD DUP2 MSTORE PUSH1 0x20 ADD PUSH1 0x2 DUP3 ADD SLOAD DUP2 MSTORE POP POP DUP2 MSTORE PUSH1 0x20 ADD SWAP1 PUSH1 0x1 ADD SWAP1 PUSH2 0x1F38 JUMP JUMPDEST POP POP POP POP SWAP1 POP SWAP1 JUMP JUMPDEST PUSH0 PUSH1 0x5 PUSH0 DUP5 PUSH20 0xFFFFFFFFFFFFFFFFFFFFFFFFFFFFFFFFFFFFFFFF AND PUSH20 0xFFFFFFFFFFFFFFFFFFFFFFFFFFFFFFFFFFFFFFFF AND DUP2 MSTORE PUSH1 0x20 ADD SWAP1 DUP2 MSTORE PUSH1 0x20 ADD PUSH0 KECCAK256 PUSH0 DUP4 PUSH20 0xFFFFFFFFFFFFFFFFFFFFFFFFFFFFFFFFFFFFFFFF AND PUSH20 0xFFFFFFFFFFFFFFFFFFFFFFFFFFFFFFFFFFFFFFFF AND DUP2 MSTORE PUSH1 0x20 ADD SWAP1 DUP2 MSTORE PUSH1 0x20 ADD PUSH0 KECCAK256 PUSH0 SWAP1 SLOAD SWAP1 PUSH2 0x100 EXP SWAP1 DIV PUSH1 0xFF AND SWAP1 POP SWAP3 SWAP2 POP POP JUMP JUMPDEST PUSH0 CALLVALUE GT PUSH2 0x20A9 JUMPI PUSH1 0x40 MLOAD PUSH32 0x8C379A000000000000000000000000000000000000000000000000000000000 DUP2 MSTORE PUSH1 0x4 ADD PUSH2 0x20A0 SWAP1 PUSH2 0x40EF JUMP JUMPDEST PUSH1 0x40 MLOAD DUP1 SWAP2 SUB SWAP1 REVERT JUMPDEST PUSH1 0xF PUSH1 0x40 MLOAD DUP1 PUSH1 0x60 ADD PUSH1 0x40 MSTORE DUP1 CALLER PUSH20 0xFFFFFFFFFFFFFFFFFFFFFFFFFFFFFFFFFFFFFFFF AND DUP2 MSTORE PUSH1 0x20 ADD CALLVALUE DUP2 MSTORE PUSH1 0x20 ADD TIMESTAMP DUP2 MSTORE POP SWAP1 DUP1 PUSH1 0x1 DUP2 SLOAD ADD DUP1 DUP3 SSTORE DUP1 SWAP2 POP POP PUSH1 0x1 SWAP1 SUB SWAP1 PUSH0 MSTORE PUSH1 0x20 PUSH0 KECCAK256 SWAP1 PUSH1 0x3 MUL ADD PUSH0 SWAP1 SWAP2 SWAP1 SWAP2 SWAP1 SWAP2 POP PUSH0 DUP3 ADD MLOAD DUP2 PUSH0 ADD PUSH0 PUSH2 0x100 EXP DUP2 SLOAD DUP2 PUSH20 0xFFFFFFFFFFFFFFFFFFFFFFFFFFFFFFFFFFFFFFFF MUL NOT AND SWAP1 DUP4 PUSH20 0xFFFFFFFFFFFFFFFFFFFFFFFFFFFFFFFFFFFFFFFF AND MUL OR SWAP1 SSTORE POP PUSH1 0x20 DUP3 ADD MLOAD DUP2 PUSH1 0x1 ADD SSTORE PUSH1 0x40 DUP3 ADD MLOAD DUP2 PUSH1 0x2 ADD SSTORE POP POP CALLVALUE PUSH1 0x11 PUSH0 DUP3 DUP3 SLOAD PUSH2 0x216D SWAP2 SWAP1 PUSH2 0x413A JUMP JUMPDEST SWAP3 POP POP DUP2 SWAP1 SSTORE POP PUSH1 0x1 PUSH1 0xC PUSH0 CALLER PUSH20 0xFFFFFFFFFFFFFFFFFFFFFFFFFFFFFFFFFFFFFFFF AND PUSH20 0xFFFFFFFFFFFFFFFFFFFFFFFFFFFFFFFFFFFFFFFF AND DUP2 MSTORE PUSH1 0x20 ADD SWAP1 DUP2 MSTORE PUSH1 0x20 ADD PUSH0 KECCAK256 PUSH0 PUSH2 0x100 EXP DUP2 SLOAD DUP2 PUSH1 0xFF MUL NOT AND SWAP1 DUP4 ISZERO ISZERO MUL OR SWAP1 SSTORE POP CALLER PUSH20 0xFFFFFFFFFFFFFFFFFFFFFFFFFFFFFFFFFFFFFFFF AND PUSH32 0x4B0304AB2F313234B1CEA012339C8F8C3BF2C8BB357D81A579CFDB35D2E3D030 CALLVALUE TIMESTAMP PUSH1 0x40 MLOAD PUSH2 0x2211 SWAP3 SWAP2 SWAP1 PUSH2 0x3A5E JUMP JUMPDEST PUSH1 0x40 MLOAD DUP1 SWAP2 SUB SWAP1 LOG2 JUMP JUMPDEST PUSH2 0x2223 PUSH2 0x27E2 JUMP JUMPDEST PUSH0 PUSH20 0xFFFFFFFFFFFFFFFFFFFFFFFFFFFFFFFFFFFFFFFF AND DUP2 PUSH20 0xFFFFFFFFFFFFFFFFFFFFFFFFFFFFFFFFFFFFFFFF AND SUB PUSH2 0x2291 JUMPI PUSH1 0x40 MLOAD PUSH32 0x8C379A000000000000000000000000000000000000000000000000000000000 DUP2 MSTORE PUSH1 0x4 ADD PUSH2 0x2288 SWAP1 PUSH2 0x41DD JUMP JUMPDEST PUSH1 0x40 MLOAD DUP1 SWAP2 SUB SWAP1 REVERT JUMPDEST PUSH2 0x229A DUP2 PUSH2 0x2899 JUMP JUMPDEST POP JUMP JUMPDEST PUSH1 0xF DUP2 DUP2 SLOAD DUP2 LT PUSH2 0x22AC JUMPI PUSH0 DUP1 REVERT JUMPDEST SWAP1 PUSH0 MSTORE PUSH1 0x20 PUSH0 KECCAK256 SWAP1 PUSH1 0x3 MUL ADD PUSH0 SWAP2 POP SWAP1 POP DUP1 PUSH0 ADD PUSH0 SWAP1 SLOAD SWAP1 PUSH2 0x100 EXP SWAP1 DIV PUSH20 0xFFFFFFFFFFFFFFFFFFFFFFFFFFFFFFFFFFFFFFFF AND SWAP1 DUP1 PUSH1 0x1 ADD SLOAD SWAP1 DUP1 PUSH1 0x2 ADD SLOAD SWAP1 POP DUP4 JUMP JUMPDEST PUSH0 PUSH32 0x1FFC9A700000000000000000000000000000000000000000000000000000000 PUSH28 0xFFFFFFFFFFFFFFFFFFFFFFFFFFFFFFFFFFFFFFFFFFFFFFFFFFFFFFFF NOT AND DUP3 PUSH28 0xFFFFFFFFFFFFFFFFFFFFFFFFFFFFFFFFFFFFFFFFFFFFFFFFFFFFFFFF NOT AND EQ SWAP1 POP SWAP2 SWAP1 POP JUMP JUMPDEST PUSH2 0x2363 DUP2 PUSH2 0x2B1F JUMP JUMPDEST PUSH2 0x23A2 JUMPI PUSH1 0x40 MLOAD PUSH32 0x8C379A000000000000000000000000000000000000000000000000000000000 DUP2 MSTORE PUSH1 0x4 ADD PUSH2 0x2399 SWAP1 PUSH2 0x3ACF JUMP JUMPDEST PUSH1 0x40 MLOAD DUP1 SWAP2 SUB SWAP1 REVERT JUMPDEST POP JUMP JUMPDEST PUSH0 CALLER SWAP1 POP SWAP1 JUMP JUMPDEST DUP2 PUSH1 0x4 PUSH0 DUP4 DUP2 MSTORE PUSH1 0x20 ADD SWAP1 DUP2 MSTORE PUSH1 0x20 ADD PUSH0 KECCAK256 PUSH0 PUSH2 0x100 EXP DUP2 SLOAD DUP2 PUSH20 0xFFFFFFFFFFFFFFFFFFFFFFFFFFFFFFFFFFFFFFFF MUL NOT AND SWAP1 DUP4 PUSH20 0xFFFFFFFFFFFFFFFFFFFFFFFFFFFFFFFFFFFFFFFF AND MUL OR SWAP1 SSTORE POP DUP1 DUP3 PUSH20 0xFFFFFFFFFFFFFFFFFFFFFFFFFFFFFFFFFFFFFFFF AND PUSH2 0x241C DUP4 PUSH2 0x1330 JUMP JUMPDEST PUSH20 0xFFFFFFFFFFFFFFFFFFFFFFFFFFFFFFFFFFFFFFFF AND PUSH32 0x8C5BE1E5EBEC7D5BD14F71427D1E84F3DD0314C0F7B2291E5B200AC8C7C3B925 PUSH1 0x40 MLOAD PUSH1 0x40 MLOAD DUP1 SWAP2 SUB SWAP1 LOG4 POP POP JUMP JUMPDEST PUSH0 PUSH0 PUSH2 0x246D DUP4 PUSH2 0x1330 JUMP JUMPDEST SWAP1 POP DUP1 PUSH20 0xFFFFFFFFFFFFFFFFFFFFFFFFFFFFFFFFFFFFFFFF AND DUP5 PUSH20 0xFFFFFFFFFFFFFFFFFFFFFFFFFFFFFFFFFFFFFFFF AND EQ DUP1 PUSH2 0x24AF JUMPI POP PUSH2 0x24AE DUP2 DUP6 PUSH2 0x1FD9 JUMP JUMPDEST JUMPDEST DUP1 PUSH2 0x24ED JUMPI POP DUP4 PUSH20 0xFFFFFFFFFFFFFFFFFFFFFFFFFFFFFFFFFFFFFFFF AND PUSH2 0x24D5 DUP5 PUSH2 0xB10 JUMP JUMPDEST PUSH20 0xFFFFFFFFFFFFFFFFFFFFFFFFFFFFFFFFFFFFFFFF AND EQ JUMPDEST SWAP2 POP POP SWAP3 SWAP2 POP POP JUMP JUMPDEST DUP3 PUSH20 0xFFFFFFFFFFFFFFFFFFFFFFFFFFFFFFFFFFFFFFFF AND PUSH2 0x2516 DUP3 PUSH2 0x1330 JUMP JUMPDEST PUSH20 0xFFFFFFFFFFFFFFFFFFFFFFFFFFFFFFFFFFFFFFFF AND EQ PUSH2 0x256C JUMPI PUSH1 0x40 MLOAD PUSH32 0x8C379A000000000000000000000000000000000000000000000000000000000 DUP2 MSTORE PUSH1 0x4 ADD PUSH2 0x2563 SWAP1 PUSH2 0x426B JUMP JUMPDEST PUSH1 0x40 MLOAD DUP1 SWAP2 SUB SWAP1 REVERT JUMPDEST PUSH0 PUSH20 0xFFFFFFFFFFFFFFFFFFFFFFFFFFFFFFFFFFFFFFFF AND DUP3 PUSH20 0xFFFFFFFFFFFFFFFFFFFFFFFFFFFFFFFFFFFFFFFF AND SUB PUSH2 0x25DA JUMPI PUSH1 0x40 MLOAD PUSH32 0x8C379A000000000000000000000000000000000000000000000000000000000 DUP2 MSTORE PUSH1 0x4 ADD PUSH2 0x25D1 SWAP1 PUSH2 0x42F9 JUMP JUMPDEST PUSH1 0x40 MLOAD DUP1 SWAP2 SUB SWAP1 REVERT JUMPDEST PUSH2 0x25E7 DUP4 DUP4 DUP4 PUSH1 0x1 PUSH2 0x2B5F JUMP JUMPDEST DUP3 PUSH20 0xFFFFFFFFFFFFFFFFFFFFFFFFFFFFFFFFFFFFFFFF AND PUSH2 0x2607 DUP3 PUSH2 0x1330 JUMP JUMPDEST PUSH20 0xFFFFFFFFFFFFFFFFFFFFFFFFFFFFFFFFFFFFFFFF AND EQ PUSH2 0x265D JUMPI PUSH1 0x40 MLOAD PUSH32 0x8C379A000000000000000000000000000000000000000000000000000000000 DUP2 MSTORE PUSH1 0x4 ADD PUSH2 0x2654 SWAP1 PUSH2 0x426B JUMP JUMPDEST PUSH1 0x40 MLOAD DUP1 SWAP2 SUB SWAP1 REVERT JUMPDEST PUSH1 0x4 PUSH0 DUP3 DUP2 MSTORE PUSH1 0x20 ADD SWAP1 DUP2 MSTORE PUSH1 0x20 ADD PUSH0 KECCAK256 PUSH0 PUSH2 0x100 EXP DUP2 SLOAD SWAP1 PUSH20 0xFFFFFFFFFFFFFFFFFFFFFFFFFFFFFFFFFFFFFFFF MUL NOT AND SWAP1 SSTORE PUSH1 0x1 PUSH1 0x3 PUSH0 DUP6 PUSH20 0xFFFFFFFFFFFFFFFFFFFFFFFFFFFFFFFFFFFFFFFF AND PUSH20 0xFFFFFFFFFFFFFFFFFFFFFFFFFFFFFFFFFFFFFFFF AND DUP2 MSTORE PUSH1 0x20 ADD SWAP1 DUP2 MSTORE PUSH1 0x20 ADD PUSH0 KECCAK256 PUSH0 DUP3 DUP3 SLOAD SUB SWAP3 POP POP DUP2 SWAP1 SSTORE POP PUSH1 0x1 PUSH1 0x3 PUSH0 DUP5 PUSH20 0xFFFFFFFFFFFFFFFFFFFFFFFFFFFFFFFFFFFFFFFF AND PUSH20 0xFFFFFFFFFFFFFFFFFFFFFFFFFFFFFFFFFFFFFFFF AND DUP2 MSTORE PUSH1 0x20 ADD SWAP1 DUP2 MSTORE PUSH1 0x20 ADD PUSH0 KECCAK256 PUSH0 DUP3 DUP3 SLOAD ADD SWAP3 POP POP DUP2 SWAP1 SSTORE POP DUP2 PUSH1 0x2 PUSH0 DUP4 DUP2 MSTORE PUSH1 0x20 ADD SWAP1 DUP2 MSTORE PUSH1 0x20 ADD PUSH0 KECCAK256 PUSH0 PUSH2 0x100 EXP DUP2 SLOAD DUP2 PUSH20 0xFFFFFFFFFFFFFFFFFFFFFFFFFFFFFFFFFFFFFFFF MUL NOT AND SWAP1 DUP4 PUSH20 0xFFFFFFFFFFFFFFFFFFFFFFFFFFFFFFFFFFFFFFFF AND MUL OR SWAP1 SSTORE POP DUP1 DUP3 PUSH20 0xFFFFFFFFFFFFFFFFFFFFFFFFFFFFFFFFFFFFFFFF AND DUP5 PUSH20 0xFFFFFFFFFFFFFFFFFFFFFFFFFFFFFFFFFFFFFFFF AND PUSH32 0xDDF252AD1BE2C89B69C2B068FC378DAA952BA7F163C4A11628F55A4DF523B3EF PUSH1 0x40 MLOAD PUSH1 0x40 MLOAD DUP1 SWAP2 SUB SWAP1 LOG4 PUSH2 0x27DD DUP4 DUP4 DUP4 PUSH1 0x1 PUSH2 0x2B65 JUMP JUMPDEST POP POP POP JUMP JUMPDEST PUSH2 0x27EA PUSH2 0x23A5 JUMP JUMPDEST PUSH20 0xFFFFFFFFFFFFFFFFFFFFFFFFFFFFFFFFFFFFFFFF AND PUSH2 0x2808 PUSH2 0x1B35 JUMP JUMPDEST PUSH20 0xFFFFFFFFFFFFFFFFFFFFFFFFFFFFFFFFFFFFFFFF AND EQ PUSH2 0x285E JUMPI PUSH1 0x40 MLOAD PUSH32 0x8C379A000000000000000000000000000000000000000000000000000000000 DUP2 MSTORE PUSH1 0x4 ADD PUSH2 0x2855 SWAP1 PUSH2 0x4361 JUMP JUMPDEST PUSH1 0x40 MLOAD DUP1 SWAP2 SUB SWAP1 REVERT JUMPDEST JUMP JUMPDEST PUSH0 PUSH1 0x2 PUSH0 DUP4 DUP2 MSTORE PUSH1 0x20 ADD SWAP1 DUP2 MSTORE PUSH1 0x20 ADD PUSH0 KECCAK256 PUSH0 SWAP1 SLOAD SWAP1 PUSH2 0x100 EXP SWAP1 DIV PUSH20 0xFFFFFFFFFFFFFFFFFFFFFFFFFFFFFFFFFFFFFFFF AND SWAP1 POP SWAP2 SWAP1 POP JUMP JUMPDEST PUSH0 PUSH1 0x6 PUSH0 SWAP1 SLOAD SWAP1 PUSH2 0x100 EXP SWAP1 DIV PUSH20 0xFFFFFFFFFFFFFFFFFFFFFFFFFFFFFFFFFFFFFFFF AND SWAP1 POP DUP2 PUSH1 0x6 PUSH0 PUSH2 0x100 EXP DUP2 SLOAD DUP2 PUSH20 0xFFFFFFFFFFFFFFFFFFFFFFFFFFFFFFFFFFFFFFFF MUL NOT AND SWAP1 DUP4 PUSH20 0xFFFFFFFFFFFFFFFFFFFFFFFFFFFFFFFFFFFFFFFF AND MUL OR SWAP1 SSTORE POP DUP2 PUSH20 0xFFFFFFFFFFFFFFFFFFFFFFFFFFFFFFFFFFFFFFFF AND DUP2 PUSH20 0xFFFFFFFFFFFFFFFFFFFFFFFFFFFFFFFFFFFFFFFF AND PUSH32 0x8BE0079C531659141344CD1FD0A4F28419497F9722A3DAAFE3B4186F6B6457E0 PUSH1 0x40 MLOAD PUSH1 0x40 MLOAD DUP1 SWAP2 SUB SWAP1 LOG3 POP POP JUMP JUMPDEST DUP2 PUSH20 0xFFFFFFFFFFFFFFFFFFFFFFFFFFFFFFFFFFFFFFFF AND DUP4 PUSH20 0xFFFFFFFFFFFFFFFFFFFFFFFFFFFFFFFFFFFFFFFF AND SUB PUSH2 0x29CA JUMPI PUSH1 0x40 MLOAD PUSH32 0x8C379A000000000000000000000000000000000000000000000000000000000 DUP2 MSTORE PUSH1 0x4 ADD PUSH2 0x29C1 SWAP1 PUSH2 0x43C9 JUMP JUMPDEST PUSH1 0x40 MLOAD DUP1 SWAP2 SUB SWAP1 REVERT JUMPDEST DUP1 PUSH1 0x5 PUSH0 DUP6 PUSH20 0xFFFFFFFFFFFFFFFFFFFFFFFFFFFFFFFFFFFFFFFF AND PUSH20 0xFFFFFFFFFFFFFFFFFFFFFFFFFFFFFFFFFFFFFFFF AND DUP2 MSTORE PUSH1 0x20 ADD SWAP1 DUP2 MSTORE PUSH1 0x20 ADD PUSH0 KECCAK256 PUSH0 DUP5 PUSH20 0xFFFFFFFFFFFFFFFFFFFFFFFFFFFFFFFFFFFFFFFF AND PUSH20 0xFFFFFFFFFFFFFFFFFFFFFFFFFFFFFFFFFFFFFFFF AND DUP2 MSTORE PUSH1 0x20 ADD SWAP1 DUP2 MSTORE PUSH1 0x20 ADD PUSH0 KECCAK256 PUSH0 PUSH2 0x100 EXP DUP2 SLOAD DUP2 PUSH1 0xFF MUL NOT AND SWAP1 DUP4 ISZERO ISZERO MUL OR SWAP1 SSTORE POP DUP2 PUSH20 0xFFFFFFFFFFFFFFFFFFFFFFFFFFFFFFFFFFFFFFFF AND DUP4 PUSH20 0xFFFFFFFFFFFFFFFFFFFFFFFFFFFFFFFFFFFFFFFF AND PUSH32 0x17307EAB39AB6107E8899845AD3D59BD9653F200F220920489CA2B5937696C31 DUP4 PUSH1 0x40 MLOAD PUSH2 0x2AB6 SWAP2 SWAP1 PUSH2 0x2DEB JUMP JUMPDEST PUSH1 0x40 MLOAD DUP1 SWAP2 SUB SWAP1 LOG3 POP POP POP JUMP JUMPDEST PUSH2 0x2ACE DUP5 DUP5 DUP5 PUSH2 0x24F6 JUMP JUMPDEST PUSH2 0x2ADA DUP5 DUP5 DUP5 DUP5 PUSH2 0x2B6B JUMP JUMPDEST PUSH2 0x2B19 JUMPI PUSH1 0x40 MLOAD PUSH32 0x8C379A000000000000000000000000000000000000000000000000000000000 DUP2 MSTORE PUSH1 0x4 ADD PUSH2 0x2B10 SWAP1 PUSH2 0x4457 JUMP JUMPDEST PUSH1 0x40 MLOAD DUP1 SWAP2 SUB SWAP1 REVERT JUMPDEST POP POP POP POP JUMP JUMPDEST PUSH0 PUSH0 PUSH20 0xFFFFFFFFFFFFFFFFFFFFFFFFFFFFFFFFFFFFFFFF AND PUSH2 0x2B40 DUP4 PUSH2 0x2860 JUMP JUMPDEST PUSH20 0xFFFFFFFFFFFFFFFFFFFFFFFFFFFFFFFFFFFFFFFF AND EQ ISZERO SWAP1 POP SWAP2 SWAP1 POP JUMP JUMPDEST POP POP POP POP JUMP JUMPDEST POP POP POP POP JUMP JUMPDEST PUSH0 PUSH2 0x2B8B DUP5 PUSH20 0xFFFFFFFFFFFFFFFFFFFFFFFFFFFFFFFFFFFFFFFF AND PUSH2 0x2CED JUMP JUMPDEST ISZERO PUSH2 0x2CE0 JUMPI DUP4 PUSH20 0xFFFFFFFFFFFFFFFFFFFFFFFFFFFFFFFFFFFFFFFF AND PUSH4 0x150B7A02 PUSH2 0x2BB4 PUSH2 0x23A5 JUMP JUMPDEST DUP8 DUP7 DUP7 PUSH1 0x40 MLOAD DUP6 PUSH4 0xFFFFFFFF AND PUSH1 0xE0 SHL DUP2 MSTORE PUSH1 0x4 ADD PUSH2 0x2BD6 SWAP5 SWAP4 SWAP3 SWAP2 SWAP1 PUSH2 0x44C7 JUMP JUMPDEST PUSH1 0x20 PUSH1 0x40 MLOAD DUP1 DUP4 SUB DUP2 PUSH0 DUP8 GAS CALL SWAP3 POP POP POP DUP1 ISZERO PUSH2 0x2C11 JUMPI POP PUSH1 0x40 MLOAD RETURNDATASIZE PUSH1 0x1F NOT PUSH1 0x1F DUP3 ADD AND DUP3 ADD DUP1 PUSH1 0x40 MSTORE POP DUP2 ADD SWAP1 PUSH2 0x2C0E SWAP2 SWAP1 PUSH2 0x4525 JUMP JUMPDEST PUSH1 0x1 JUMPDEST PUSH2 0x2C90 JUMPI RETURNDATASIZE DUP1 PUSH0 DUP2 EQ PUSH2 0x2C3F JUMPI PUSH1 0x40 MLOAD SWAP2 POP PUSH1 0x1F NOT PUSH1 0x3F RETURNDATASIZE ADD AND DUP3 ADD PUSH1 0x40 MSTORE RETURNDATASIZE DUP3 MSTORE RETURNDATASIZE PUSH0 PUSH1 0x20 DUP5 ADD RETURNDATACOPY PUSH2 0x2C44 JUMP JUMPDEST PUSH1 0x60 SWAP2 POP JUMPDEST POP PUSH0 DUP2 MLOAD SUB PUSH2 0x2C88 JUMPI PUSH1 0x40 MLOAD PUSH32 0x8C379A000000000000000000000000000000000000000000000000000000000 DUP2 MSTORE PUSH1 0x4 ADD PUSH2 0x2C7F SWAP1 PUSH2 0x4457 JUMP JUMPDEST PUSH1 0x40 MLOAD DUP1 SWAP2 SUB SWAP1 REVERT JUMPDEST DUP1 MLOAD DUP2 PUSH1 0x20 ADD REVERT JUMPDEST PUSH4 0x150B7A02 PUSH1 0xE0 SHL PUSH28 0xFFFFFFFFFFFFFFFFFFFFFFFFFFFFFFFFFFFFFFFFFFFFFFFFFFFFFFFF NOT AND DUP2 PUSH28 0xFFFFFFFFFFFFFFFFFFFFFFFFFFFFFFFFFFFFFFFFFFFFFFFFFFFFFFFF NOT AND EQ SWAP2 POP POP PUSH2 0x2CE5 JUMP JUMPDEST PUSH1 0x1 SWAP1 POP JUMPDEST SWAP5 SWAP4 POP POP POP POP JUMP JUMPDEST PUSH0 PUSH0 DUP3 PUSH20 0xFFFFFFFFFFFFFFFFFFFFFFFFFFFFFFFFFFFFFFFF AND EXTCODESIZE GT SWAP1 POP SWAP2 SWAP1 POP JUMP JUMPDEST PUSH0 DUP2 SWAP1 POP SWAP2 SWAP1 POP JUMP JUMPDEST PUSH2 0x2D21 DUP2 PUSH2 0x2D0F JUMP JUMPDEST DUP3 MSTORE POP POP JUMP JUMPDEST PUSH0 PUSH1 0x20 DUP3 ADD SWAP1 POP PUSH2 0x2D3A PUSH0 DUP4 ADD DUP5 PUSH2 0x2D18 JUMP JUMPDEST SWAP3 SWAP2 POP POP JUMP JUMPDEST PUSH0 PUSH1 0x40 MLOAD SWAP1 POP SWAP1 JUMP JUMPDEST PUSH0 PUSH0 REVERT JUMPDEST PUSH0 PUSH0 REVERT JUMPDEST PUSH0 PUSH32 0xFFFFFFFF00000000000000000000000000000000000000000000000000000000 DUP3 AND SWAP1 POP SWAP2 SWAP1 POP JUMP JUMPDEST PUSH2 0x2D85 DUP2 PUSH2 0x2D51 JUMP JUMPDEST DUP2 EQ PUSH2 0x2D8F JUMPI PUSH0 PUSH0 REVERT JUMPDEST POP JUMP JUMPDEST PUSH0 DUP2 CALLDATALOAD SWAP1 POP PUSH2 0x2DA0 DUP2 PUSH2 0x2D7C JUMP JUMPDEST SWAP3 SWAP2 POP POP JUMP JUMPDEST PUSH0 PUSH1 0x20 DUP3 DUP5 SUB SLT ISZERO PUSH2 0x2DBB JUMPI PUSH2 0x2DBA PUSH2 0x2D49 JUMP JUMPDEST JUMPDEST PUSH0 PUSH2 0x2DC8 DUP5 DUP3 DUP6 ADD PUSH2 0x2D92 JUMP JUMPDEST SWAP2 POP POP SWAP3 SWAP2 POP POP JUMP JUMPDEST PUSH0 DUP2 ISZERO ISZERO SWAP1 POP SWAP2 SWAP1 POP JUMP JUMPDEST PUSH2 0x2DE5 DUP2 PUSH2 0x2DD1 JUMP JUMPDEST DUP3 MSTORE POP POP JUMP JUMPDEST PUSH0 PUSH1 0x20 DUP3 ADD SWAP1 POP PUSH2 0x2DFE PUSH0 DUP4 ADD DUP5 PUSH2 0x2DDC JUMP JUMPDEST SWAP3 SWAP2 POP POP JUMP JUMPDEST PUSH0 PUSH20 0xFFFFFFFFFFFFFFFFFFFFFFFFFFFFFFFFFFFFFFFF DUP3 AND SWAP1 POP SWAP2 SWAP1 POP JUMP JUMPDEST PUSH0 PUSH2 0x2E2D DUP3 PUSH2 0x2E04 JUMP JUMPDEST SWAP1 POP SWAP2 SWAP1 POP JUMP JUMPDEST PUSH2 0x2E3D DUP2 PUSH2 0x2E23 JUMP JUMPDEST DUP2 EQ PUSH2 0x2E47 JUMPI PUSH0 PUSH0 REVERT JUMPDEST POP JUMP JUMPDEST PUSH0 DUP2 CALLDATALOAD SWAP1 POP PUSH2 0x2E58 DUP2 PUSH2 0x2E34 JUMP JUMPDEST SWAP3 SWAP2 POP POP JUMP JUMPDEST PUSH0 PUSH1 0x20 DUP3 DUP5 SUB SLT ISZERO PUSH2 0x2E73 JUMPI PUSH2 0x2E72 PUSH2 0x2D49 JUMP JUMPDEST JUMPDEST PUSH0 PUSH2 0x2E80 DUP5 DUP3 DUP6 ADD PUSH2 0x2E4A JUMP JUMPDEST SWAP2 POP POP SWAP3 SWAP2 POP POP JUMP JUMPDEST PUSH2 0x2E92 DUP2 PUSH2 0x2E23 JUMP JUMPDEST DUP3 MSTORE POP POP JUMP JUMPDEST PUSH0 DUP2 MLOAD SWAP1 POP SWAP2 SWAP1 POP JUMP JUMPDEST PUSH0 DUP3 DUP3 MSTORE PUSH1 0x20 DUP3 ADD SWAP1 POP SWAP3 SWAP2 POP POP JUMP JUMPDEST DUP3 DUP2 DUP4 MCOPY PUSH0 DUP4 DUP4 ADD MSTORE POP POP POP JUMP JUMPDEST PUSH0 PUSH1 0x1F NOT PUSH1 0x1F DUP4 ADD AND SWAP1 POP SWAP2 SWAP1 POP JUMP JUMPDEST PUSH0 PUSH2 0x2EDA DUP3 PUSH2 0x2E98 JUMP JUMPDEST PUSH2 0x2EE4 DUP2 DUP6 PUSH2 0x2EA2 JUMP JUMPDEST SWAP4 POP PUSH2 0x2EF4 DUP2 DUP6 PUSH1 0x20 DUP7 ADD PUSH2 0x2EB2 JUMP JUMPDEST PUSH2 0x2EFD DUP2 PUSH2 0x2EC0 JUMP JUMPDEST DUP5 ADD SWAP2 POP POP SWAP3 SWAP2 POP POP JUMP JUMPDEST PUSH0 PUSH1 0xA0 DUP3 ADD SWAP1 POP PUSH2 0x2F1B PUSH0 DUP4 ADD DUP9 PUSH2 0x2E89 JUMP JUMPDEST DUP2 DUP2 SUB PUSH1 0x20 DUP4 ADD MSTORE PUSH2 0x2F2D DUP2 DUP8 PUSH2 0x2ED0 JUMP JUMPDEST SWAP1 POP PUSH2 0x2F3C PUSH1 0x40 DUP4 ADD DUP7 PUSH2 0x2D18 JUMP JUMPDEST PUSH2 0x2F49 PUSH1 0x60 DUP4 ADD DUP6 PUSH2 0x2DDC JUMP JUMPDEST PUSH2 0x2F56 PUSH1 0x80 DUP4 ADD DUP5 PUSH2 0x2DDC JUMP JUMPDEST SWAP7 SWAP6 POP POP POP POP POP POP JUMP JUMPDEST PUSH0 PUSH1 0x20 DUP3 ADD SWAP1 POP DUP2 DUP2 SUB PUSH0 DUP4 ADD MSTORE PUSH2 0x2F78 DUP2 DUP5 PUSH2 0x2ED0 JUMP JUMPDEST SWAP1 POP SWAP3 SWAP2 POP POP JUMP JUMPDEST PUSH2 0x2F89 DUP2 PUSH2 0x2D0F JUMP JUMPDEST DUP2 EQ PUSH2 0x2F93 JUMPI PUSH0 PUSH0 REVERT JUMPDEST POP JUMP JUMPDEST PUSH0 DUP2 CALLDATALOAD SWAP1 POP PUSH2 0x2FA4 DUP2 PUSH2 0x2F80 JUMP JUMPDEST SWAP3 SWAP2 POP POP JUMP JUMPDEST PUSH0 PUSH1 0x20 DUP3 DUP5 SUB SLT ISZERO PUSH2 0x2FBF JUMPI PUSH2 0x2FBE PUSH2 0x2D49 JUMP JUMPDEST JUMPDEST PUSH0 PUSH2 0x2FCC DUP5 DUP3 DUP6 ADD PUSH2 0x2F96 JUMP JUMPDEST SWAP2 POP POP SWAP3 SWAP2 POP POP JUMP JUMPDEST PUSH0 PUSH1 0x20 DUP3 ADD SWAP1 POP PUSH2 0x2FE8 PUSH0 DUP4 ADD DUP5 PUSH2 0x2E89 JUMP JUMPDEST SWAP3 SWAP2 POP POP JUMP JUMPDEST PUSH0 PUSH0 PUSH1 0x40 DUP4 DUP6 SUB SLT ISZERO PUSH2 0x3004 JUMPI PUSH2 0x3003 PUSH2 0x2D49 JUMP JUMPDEST JUMPDEST PUSH0 PUSH2 0x3011 DUP6 DUP3 DUP7 ADD PUSH2 0x2E4A JUMP JUMPDEST SWAP3 POP POP PUSH1 0x20 PUSH2 0x3022 DUP6 DUP3 DUP7 ADD PUSH2 0x2F96 JUMP JUMPDEST SWAP2 POP POP SWAP3 POP SWAP3 SWAP1 POP JUMP JUMPDEST PUSH0 PUSH0 PUSH0 PUSH1 0x60 DUP5 DUP7 SUB SLT ISZERO PUSH2 0x3043 JUMPI PUSH2 0x3042 PUSH2 0x2D49 JUMP JUMPDEST JUMPDEST PUSH0 PUSH2 0x3050 DUP7 DUP3 DUP8 ADD PUSH2 0x2E4A JUMP JUMPDEST SWAP4 POP POP PUSH1 0x20 PUSH2 0x3061 DUP7 DUP3 DUP8 ADD PUSH2 0x2E4A JUMP JUMPDEST SWAP3 POP POP PUSH1 0x40 PUSH2 0x3072 DUP7 DUP3 DUP8 ADD PUSH2 0x2F96 JUMP JUMPDEST SWAP2 POP POP SWAP3 POP SWAP3 POP SWAP3 JUMP JUMPDEST PUSH0 DUP2 MLOAD SWAP1 POP SWAP2 SWAP1 POP JUMP JUMPDEST PUSH0 DUP3 DUP3 MSTORE PUSH1 0x20 DUP3 ADD SWAP1 POP SWAP3 SWAP2 POP POP JUMP JUMPDEST PUSH0 DUP2 SWAP1 POP PUSH1 0x20 DUP3 ADD SWAP1 POP SWAP2 SWAP1 POP JUMP JUMPDEST PUSH2 0x30AE DUP2 PUSH2 0x2E23 JUMP JUMPDEST DUP3 MSTORE POP POP JUMP JUMPDEST PUSH0 PUSH2 0x30BF DUP4 DUP4 PUSH2 0x30A5 JUMP JUMPDEST PUSH1 0x20 DUP4 ADD SWAP1 POP SWAP3 SWAP2 POP POP JUMP JUMPDEST PUSH0 PUSH1 0x20 DUP3 ADD SWAP1 POP SWAP2 SWAP1 POP JUMP JUMPDEST PUSH0 PUSH2 0x30E1 DUP3 PUSH2 0x307C JUMP JUMPDEST PUSH2 0x30EB DUP2 DUP6 PUSH2 0x3086 JUMP JUMPDEST SWAP4 POP PUSH2 0x30F6 DUP4 PUSH2 0x3096 JUMP JUMPDEST DUP1 PUSH0 JUMPDEST DUP4 DUP2 LT ISZERO PUSH2 0x3126 JUMPI DUP2 MLOAD PUSH2 0x310D DUP9 DUP3 PUSH2 0x30B4 JUMP JUMPDEST SWAP8 POP PUSH2 0x3118 DUP4 PUSH2 0x30CB JUMP JUMPDEST SWAP3 POP POP PUSH1 0x1 DUP2 ADD SWAP1 POP PUSH2 0x30F9 JUMP JUMPDEST POP DUP6 SWAP4 POP POP POP POP SWAP3 SWAP2 POP POP JUMP JUMPDEST PUSH0 PUSH1 0x20 DUP3 ADD SWAP1 POP DUP2 DUP2 SUB PUSH0 DUP4 ADD MSTORE PUSH2 0x314B DUP2 DUP5 PUSH2 0x30D7 JUMP JUMPDEST SWAP1 POP SWAP3 SWAP2 POP POP JUMP JUMPDEST PUSH0 DUP2 SWAP1 POP SWAP2 SWAP1 POP JUMP JUMPDEST PUSH0 PUSH2 0x3176 PUSH2 0x3171 PUSH2 0x316C DUP5 PUSH2 0x2E04 JUMP JUMPDEST PUSH2 0x3153 JUMP JUMPDEST PUSH2 0x2E04 JUMP JUMPDEST SWAP1 POP SWAP2 SWAP1 POP JUMP JUMPDEST PUSH0 PUSH2 0x3187 DUP3 PUSH2 0x315C JUMP JUMPDEST SWAP1 POP SWAP2 SWAP1 POP JUMP JUMPDEST PUSH0 PUSH2 0x3198 DUP3 PUSH2 0x317D JUMP JUMPDEST SWAP1 POP SWAP2 SWAP1 POP JUMP JUMPDEST PUSH2 0x31A8 DUP2 PUSH2 0x318E JUMP JUMPDEST DUP3 MSTORE POP POP JUMP JUMPDEST PUSH0 PUSH1 0x20 DUP3 ADD SWAP1 POP PUSH2 0x31C1 PUSH0 DUP4 ADD DUP5 PUSH2 0x319F JUMP JUMPDEST SWAP3 SWAP2 POP POP JUMP JUMPDEST PUSH0 PUSH0 REVERT JUMPDEST PUSH0 PUSH0 REVERT JUMPDEST PUSH32 0x4E487B7100000000000000000000000000000000000000000000000000000000 PUSH0 MSTORE PUSH1 0x41 PUSH1 0x4 MSTORE PUSH1 0x24 PUSH0 REVERT JUMPDEST PUSH2 0x3205 DUP3 PUSH2 0x2EC0 JUMP JUMPDEST DUP2 ADD DUP2 DUP2 LT PUSH8 0xFFFFFFFFFFFFFFFF DUP3 GT OR ISZERO PUSH2 0x3224 JUMPI PUSH2 0x3223 PUSH2 0x31CF JUMP JUMPDEST JUMPDEST DUP1 PUSH1 0x40 MSTORE POP POP POP JUMP JUMPDEST PUSH0 PUSH2 0x3236 PUSH2 0x2D40 JUMP JUMPDEST SWAP1 POP PUSH2 0x3242 DUP3 DUP3 PUSH2 0x31FC JUMP JUMPDEST SWAP2 SWAP1 POP JUMP JUMPDEST PUSH0 PUSH8 0xFFFFFFFFFFFFFFFF DUP3 GT ISZERO PUSH2 0x3261 JUMPI PUSH2 0x3260 PUSH2 0x31CF JUMP JUMPDEST JUMPDEST PUSH2 0x326A DUP3 PUSH2 0x2EC0 JUMP JUMPDEST SWAP1 POP PUSH1 0x20 DUP2 ADD SWAP1 POP SWAP2 SWAP1 POP JUMP JUMPDEST DUP3 DUP2 DUP4 CALLDATACOPY PUSH0 DUP4 DUP4 ADD MSTORE POP POP POP JUMP JUMPDEST PUSH0 PUSH2 0x3297 PUSH2 0x3292 DUP5 PUSH2 0x3247 JUMP JUMPDEST PUSH2 0x322D JUMP JUMPDEST SWAP1 POP DUP3 DUP2 MSTORE PUSH1 0x20 DUP2 ADD DUP5 DUP5 DUP5 ADD GT ISZERO PUSH2 0x32B3 JUMPI PUSH2 0x32B2 PUSH2 0x31CB JUMP JUMPDEST JUMPDEST PUSH2 0x32BE DUP5 DUP3 DUP6 PUSH2 0x3277 JUMP JUMPDEST POP SWAP4 SWAP3 POP POP POP JUMP JUMPDEST PUSH0 DUP3 PUSH1 0x1F DUP4 ADD SLT PUSH2 0x32DA JUMPI PUSH2 0x32D9 PUSH2 0x31C7 JUMP JUMPDEST JUMPDEST DUP2 CALLDATALOAD PUSH2 0x32EA DUP5 DUP3 PUSH1 0x20 DUP7 ADD PUSH2 0x3285 JUMP JUMPDEST SWAP2 POP POP SWAP3 SWAP2 POP POP JUMP JUMPDEST PUSH0 PUSH1 0x20 DUP3 DUP5 SUB SLT ISZERO PUSH2 0x3308 JUMPI PUSH2 0x3307 PUSH2 0x2D49 JUMP JUMPDEST JUMPDEST PUSH0 DUP3 ADD CALLDATALOAD PUSH8 0xFFFFFFFFFFFFFFFF DUP2 GT ISZERO PUSH2 0x3325 JUMPI PUSH2 0x3324 PUSH2 0x2D4D JUMP JUMPDEST JUMPDEST PUSH2 0x3331 DUP5 DUP3 DUP6 ADD PUSH2 0x32C6 JUMP JUMPDEST SWAP2 POP POP SWAP3 SWAP2 POP POP JUMP JUMPDEST PUSH2 0x3343 DUP2 PUSH2 0x2DD1 JUMP JUMPDEST DUP2 EQ PUSH2 0x334D JUMPI PUSH0 PUSH0 REVERT JUMPDEST POP JUMP JUMPDEST PUSH0 DUP2 CALLDATALOAD SWAP1 POP PUSH2 0x335E DUP2 PUSH2 0x333A JUMP JUMPDEST SWAP3 SWAP2 POP POP JUMP JUMPDEST PUSH0 PUSH0 PUSH1 0x40 DUP4 DUP6 SUB SLT ISZERO PUSH2 0x337A JUMPI PUSH2 0x3379 PUSH2 0x2D49 JUMP JUMPDEST JUMPDEST PUSH0 PUSH2 0x3387 DUP6 DUP3 DUP7 ADD PUSH2 0x2E4A JUMP JUMPDEST SWAP3 POP POP PUSH1 0x20 PUSH2 0x3398 DUP6 DUP3 DUP7 ADD PUSH2 0x3350 JUMP JUMPDEST SWAP2 POP POP SWAP3 POP SWAP3 SWAP1 POP JUMP JUMPDEST PUSH0 PUSH8 0xFFFFFFFFFFFFFFFF DUP3 GT ISZERO PUSH2 0x33BC JUMPI PUSH2 0x33BB PUSH2 0x31CF JUMP JUMPDEST JUMPDEST PUSH2 0x33C5 DUP3 PUSH2 0x2EC0 JUMP JUMPDEST SWAP1 POP PUSH1 0x20 DUP2 ADD SWAP1 POP SWAP2 SWAP1 POP JUMP JUMPDEST PUSH0 PUSH2 0x33E4 PUSH2 0x33DF DUP5 PUSH2 0x33A2 JUMP JUMPDEST PUSH2 0x322D JUMP JUMPDEST SWAP1 POP DUP3 DUP2 MSTORE PUSH1 0x20 DUP2 ADD DUP5 DUP5 DUP5 ADD GT ISZERO PUSH2 0x3400 JUMPI PUSH2 0x33FF PUSH2 0x31CB JUMP JUMPDEST JUMPDEST PUSH2 0x340B DUP5 DUP3 DUP6 PUSH2 0x3277 JUMP JUMPDEST POP SWAP4 SWAP3 POP POP POP JUMP JUMPDEST PUSH0 DUP3 PUSH1 0x1F DUP4 ADD SLT PUSH2 0x3427 JUMPI PUSH2 0x3426 PUSH2 0x31C7 JUMP JUMPDEST JUMPDEST DUP2 CALLDATALOAD PUSH2 0x3437 DUP5 DUP3 PUSH1 0x20 DUP7 ADD PUSH2 0x33D2 JUMP JUMPDEST SWAP2 POP POP SWAP3 SWAP2 POP POP JUMP JUMPDEST PUSH0 PUSH0 PUSH0 PUSH0 PUSH1 0x80 DUP6 DUP8 SUB SLT ISZERO PUSH2 0x3458 JUMPI PUSH2 0x3457 PUSH2 0x2D49 JUMP JUMPDEST JUMPDEST PUSH0 PUSH2 0x3465 DUP8 DUP3 DUP9 ADD PUSH2 0x2E4A JUMP JUMPDEST SWAP5 POP POP PUSH1 0x20 PUSH2 0x3476 DUP8 DUP3 DUP9 ADD PUSH2 0x2E4A JUMP JUMPDEST SWAP4 POP POP PUSH1 0x40 PUSH2 0x3487 DUP8 DUP3 DUP9 ADD PUSH2 0x2F96 JUMP JUMPDEST SWAP3 POP POP PUSH1 0x60 DUP6 ADD CALLDATALOAD PUSH8 0xFFFFFFFFFFFFFFFF DUP2 GT ISZERO PUSH2 0x34A8 JUMPI PUSH2 0x34A7 PUSH2 0x2D4D JUMP JUMPDEST JUMPDEST PUSH2 0x34B4 DUP8 DUP3 DUP9 ADD PUSH2 0x3413 JUMP JUMPDEST SWAP2 POP POP SWAP3 SWAP6 SWAP2 SWAP5 POP SWAP3 POP JUMP JUMPDEST PUSH0 DUP2 MLOAD SWAP1 POP SWAP2 SWAP1 POP JUMP JUMPDEST PUSH0 DUP3 DUP3 MSTORE PUSH1 0x20 DUP3 ADD SWAP1 POP SWAP3 SWAP2 POP POP JUMP JUMPDEST PUSH0 DUP2 SWAP1 POP PUSH1 0x20 DUP3 ADD SWAP1 POP SWAP2 SWAP1 POP JUMP JUMPDEST PUSH2 0x34F2 DUP2 PUSH2 0x2D0F JUMP JUMPDEST DUP3 MSTORE POP POP JUMP JUMPDEST PUSH1 0x60 DUP3 ADD PUSH0 DUP3 ADD MLOAD PUSH2 0x350C PUSH0 DUP6 ADD DUP3 PUSH2 0x30A5 JUMP JUMPDEST POP PUSH1 0x20 DUP3 ADD MLOAD PUSH2 0x351F PUSH1 0x20 DUP6 ADD DUP3 PUSH2 0x34E9 JUMP JUMPDEST POP PUSH1 0x40 DUP3 ADD MLOAD PUSH2 0x3532 PUSH1 0x40 DUP6 ADD DUP3 PUSH2 0x34E9 JUMP JUMPDEST POP POP POP POP JUMP JUMPDEST PUSH0 PUSH2 0x3543 DUP4 DUP4 PUSH2 0x34F8 JUMP JUMPDEST PUSH1 0x60 DUP4 ADD SWAP1 POP SWAP3 SWAP2 POP POP JUMP JUMPDEST PUSH0 PUSH1 0x20 DUP3 ADD SWAP1 POP SWAP2 SWAP1 POP JUMP JUMPDEST PUSH0 PUSH2 0x3565 DUP3 PUSH2 0x34C0 JUMP JUMPDEST PUSH2 0x356F DUP2 DUP6 PUSH2 0x34CA JUMP JUMPDEST SWAP4 POP PUSH2 0x357A DUP4 PUSH2 0x34DA JUMP JUMPDEST DUP1 PUSH0 JUMPDEST DUP4 DUP2 LT ISZERO PUSH2 0x35AA JUMPI DUP2 MLOAD PUSH2 0x3591 DUP9 DUP3 PUSH2 0x3538 JUMP JUMPDEST SWAP8 POP PUSH2 0x359C DUP4 PUSH2 0x354F JUMP JUMPDEST SWAP3 POP POP PUSH1 0x1 DUP2 ADD SWAP1 POP PUSH2 0x357D JUMP JUMPDEST POP DUP6 SWAP4 POP POP POP POP SWAP3 SWAP2 POP POP JUMP JUMPDEST PUSH0 PUSH1 0x20 DUP3 ADD SWAP1 POP DUP2 DUP2 SUB PUSH0 DUP4 ADD MSTORE PUSH2 0x35CF DUP2 DUP5 PUSH2 0x355B JUMP JUMPDEST SWAP1 POP SWAP3 SWAP2 POP POP JUMP JUMPDEST PUSH0 PUSH0 PUSH1 0x40 DUP4 DUP6 SUB SLT ISZERO PUSH2 0x35ED JUMPI PUSH2 0x35EC PUSH2 0x2D49 JUMP JUMPDEST JUMPDEST PUSH0 PUSH2 0x35FA DUP6 DUP3 DUP7 ADD PUSH2 0x2E4A JUMP JUMPDEST SWAP3 POP POP PUSH1 0x20 PUSH2 0x360B DUP6 DUP3 DUP7 ADD PUSH2 0x2E4A JUMP JUMPDEST SWAP2 POP POP SWAP3 POP SWAP3 SWAP1 POP JUMP JUMPDEST PUSH0 PUSH1 0x60 DUP3 ADD SWAP1 POP PUSH2 0x3628 PUSH0 DUP4 ADD DUP7 PUSH2 0x2E89 JUMP JUMPDEST PUSH2 0x3635 PUSH1 0x20 DUP4 ADD DUP6 PUSH2 0x2D18 JUMP JUMPDEST PUSH2 0x3642 PUSH1 0x40 DUP4 ADD DUP5 PUSH2 0x2D18 JUMP JUMPDEST SWAP5 SWAP4 POP POP POP POP JUMP JUMPDEST PUSH32 0x4E487B7100000000000000000000000000000000000000000000000000000000 PUSH0 MSTORE PUSH1 0x22 PUSH1 0x4 MSTORE PUSH1 0x24 PUSH0 REVERT JUMPDEST PUSH0 PUSH1 0x2 DUP3 DIV SWAP1 POP PUSH1 0x1 DUP3 AND DUP1 PUSH2 0x368E JUMPI PUSH1 0x7F DUP3 AND SWAP2 POP JUMPDEST PUSH1 0x20 DUP3 LT DUP2 SUB PUSH2 0x36A1 JUMPI PUSH2 0x36A0 PUSH2 0x364A JUMP JUMPDEST JUMPDEST POP SWAP2 SWAP1 POP JUMP JUMPDEST PUSH32 0x4552433732313A20617070726F76616C20746F2063757272656E74206F776E65 PUSH0 DUP3 ADD MSTORE PUSH32 0x7200000000000000000000000000000000000000000000000000000000000000 PUSH1 0x20 DUP3 ADD MSTORE POP JUMP JUMPDEST PUSH0 PUSH2 0x3701 PUSH1 0x21 DUP4 PUSH2 0x2EA2 JUMP JUMPDEST SWAP2 POP PUSH2 0x370C DUP3 PUSH2 0x36A7 JUMP JUMPDEST PUSH1 0x40 DUP3 ADD SWAP1 POP SWAP2 SWAP1 POP JUMP JUMPDEST PUSH0 PUSH1 0x20 DUP3 ADD SWAP1 POP DUP2 DUP2 SUB PUSH0 DUP4 ADD MSTORE PUSH2 0x372E DUP2 PUSH2 0x36F5 JUMP JUMPDEST SWAP1 POP SWAP2 SWAP1 POP JUMP JUMPDEST PUSH32 0x4552433732313A20617070726F76652063616C6C6572206973206E6F7420746F PUSH0 DUP3 ADD MSTORE PUSH32 0x6B656E206F776E6572206F7220617070726F76656420666F7220616C6C000000 PUSH1 0x20 DUP3 ADD MSTORE POP JUMP JUMPDEST PUSH0 PUSH2 0x378F PUSH1 0x3D DUP4 PUSH2 0x2EA2 JUMP JUMPDEST SWAP2 POP PUSH2 0x379A DUP3 PUSH2 0x3735 JUMP JUMPDEST PUSH1 0x40 DUP3 ADD SWAP1 POP SWAP2 SWAP1 POP JUMP JUMPDEST PUSH0 PUSH1 0x20 DUP3 ADD SWAP1 POP DUP2 DUP2 SUB PUSH0 DUP4 ADD MSTORE PUSH2 0x37BC DUP2 PUSH2 0x3783 JUMP JUMPDEST SWAP1 POP SWAP2 SWAP1 POP JUMP JUMPDEST PUSH32 0x4552433732313A2063616C6C6572206973206E6F7420746F6B656E206F776E65 PUSH0 DUP3 ADD MSTORE PUSH32 0x72206F7220617070726F76656400000000000000000000000000000000000000 PUSH1 0x20 DUP3 ADD MSTORE POP JUMP JUMPDEST PUSH0 PUSH2 0x381D PUSH1 0x2D DUP4 PUSH2 0x2EA2 JUMP JUMPDEST SWAP2 POP PUSH2 0x3828 DUP3 PUSH2 0x37C3 JUMP JUMPDEST PUSH1 0x40 DUP3 ADD SWAP1 POP SWAP2 SWAP1 POP JUMP JUMPDEST PUSH0 PUSH1 0x20 DUP3 ADD SWAP1 POP DUP2 DUP2 SUB PUSH0 DUP4 ADD MSTORE PUSH2 0x384A DUP2 PUSH2 0x3811 JUMP JUMPDEST SWAP1 POP SWAP2 SWAP1 POP JUMP JUMPDEST PUSH32 0x4164647265737320686173206E6F7420646F6E61746564000000000000000000 PUSH0 DUP3 ADD MSTORE POP JUMP JUMPDEST PUSH0 PUSH2 0x3885 PUSH1 0x17 DUP4 PUSH2 0x2EA2 JUMP JUMPDEST SWAP2 POP PUSH2 0x3890 DUP3 PUSH2 0x3851 JUMP JUMPDEST PUSH1 0x20 DUP3 ADD SWAP1 POP SWAP2 SWAP1 POP JUMP JUMPDEST PUSH0 PUSH1 0x20 DUP3 ADD SWAP1 POP DUP2 DUP2 SUB PUSH0 DUP4 ADD MSTORE PUSH2 0x38B2 DUP2 PUSH2 0x3879 JUMP JUMPDEST SWAP1 POP SWAP2 SWAP1 POP JUMP JUMPDEST PUSH0 PUSH1 0x40 DUP3 ADD SWAP1 POP PUSH2 0x38CC PUSH0 DUP4 ADD DUP6 PUSH2 0x2E89 JUMP JUMPDEST DUP2 DUP2 SUB PUSH1 0x20 DUP4 ADD MSTORE PUSH2 0x38DE DUP2 DUP5 PUSH2 0x2ED0 JUMP JUMPDEST SWAP1 POP SWAP4 SWAP3 POP POP POP JUMP JUMPDEST PUSH0 DUP2 MLOAD SWAP1 POP PUSH2 0x38F5 DUP2 PUSH2 0x2F80 JUMP JUMPDEST SWAP3 SWAP2 POP POP JUMP JUMPDEST PUSH0 PUSH1 0x20 DUP3 DUP5 SUB SLT ISZERO PUSH2 0x3910 JUMPI PUSH2 0x390F PUSH2 0x2D49 JUMP JUMPDEST JUMPDEST PUSH0 PUSH2 0x391D DUP5 DUP3 DUP6 ADD PUSH2 0x38E7 JUMP JUMPDEST SWAP2 POP POP SWAP3 SWAP2 POP POP JUMP JUMPDEST PUSH32 0x4E6F7420617070726F76656420666F7220616964000000000000000000000000 PUSH0 DUP3 ADD MSTORE POP JUMP JUMPDEST PUSH0 PUSH2 0x395A PUSH1 0x14 DUP4 PUSH2 0x2EA2 JUMP JUMPDEST SWAP2 POP PUSH2 0x3965 DUP3 PUSH2 0x3926 JUMP JUMPDEST PUSH1 0x20 DUP3 ADD SWAP1 POP SWAP2 SWAP1 POP JUMP JUMPDEST PUSH0 PUSH1 0x20 DUP3 ADD SWAP1 POP DUP2 DUP2 SUB PUSH0 DUP4 ADD MSTORE PUSH2 0x3987 DUP2 PUSH2 0x394E JUMP JUMPDEST SWAP1 POP SWAP2 SWAP1 POP JUMP JUMPDEST PUSH32 0x416C726561647920636C61696D65642061696400000000000000000000000000 PUSH0 DUP3 ADD MSTORE POP JUMP JUMPDEST PUSH0 PUSH2 0x39C2 PUSH1 0x13 DUP4 PUSH2 0x2EA2 JUMP JUMPDEST SWAP2 POP PUSH2 0x39CD DUP3 PUSH2 0x398E JUMP JUMPDEST PUSH1 0x20 DUP3 ADD SWAP1 POP SWAP2 SWAP1 POP JUMP JUMPDEST PUSH0 PUSH1 0x20 DUP3 ADD SWAP1 POP DUP2 DUP2 SUB PUSH0 DUP4 ADD MSTORE PUSH2 0x39EF DUP2 PUSH2 0x39B6 JUMP JUMPDEST SWAP1 POP SWAP2 SWAP1 POP JUMP JUMPDEST PUSH32 0x496E73756666696369656E7420636F6E74726163742062616C616E6365000000 PUSH0 DUP3 ADD MSTORE POP JUMP JUMPDEST PUSH0 PUSH2 0x3A2A PUSH1 0x1D DUP4 PUSH2 0x2EA2 JUMP JUMPDEST SWAP2 POP PUSH2 0x3A35 DUP3 PUSH2 0x39F6 JUMP JUMPDEST PUSH1 0x20 DUP3 ADD SWAP1 POP SWAP2 SWAP1 POP JUMP JUMPDEST PUSH0 PUSH1 0x20 DUP3 ADD SWAP1 POP DUP2 DUP2 SUB PUSH0 DUP4 ADD MSTORE PUSH2 0x3A57 DUP2 PUSH2 0x3A1E JUMP JUMPDEST SWAP1 POP SWAP2 SWAP1 POP JUMP JUMPDEST PUSH0 PUSH1 0x40 DUP3 ADD SWAP1 POP PUSH2 0x3A71 PUSH0 DUP4 ADD DUP6 PUSH2 0x2D18 JUMP JUMPDEST PUSH2 0x3A7E PUSH1 0x20 DUP4 ADD DUP5 PUSH2 0x2D18 JUMP JUMPDEST SWAP4 SWAP3 POP POP POP JUMP JUMPDEST PUSH32 0x4552433732313A20696E76616C696420746F6B656E2049440000000000000000 PUSH0 DUP3 ADD MSTORE POP JUMP JUMPDEST PUSH0 PUSH2 0x3AB9 PUSH1 0x18 DUP4 PUSH2 0x2EA2 JUMP JUMPDEST SWAP2 POP PUSH2 0x3AC4 DUP3 PUSH2 0x3A85 JUMP JUMPDEST PUSH1 0x20 DUP3 ADD SWAP1 POP SWAP2 SWAP1 POP JUMP JUMPDEST PUSH0 PUSH1 0x20 DUP3 ADD SWAP1 POP DUP2 DUP2 SUB PUSH0 DUP4 ADD MSTORE PUSH2 0x3AE6 DUP2 PUSH2 0x3AAD JUMP JUMPDEST SWAP1 POP SWAP2 SWAP1 POP JUMP JUMPDEST PUSH32 0x4552433732313A2061646472657373207A65726F206973206E6F742061207661 PUSH0 DUP3 ADD MSTORE PUSH32 0x6C6964206F776E65720000000000000000000000000000000000000000000000 PUSH1 0x20 DUP3 ADD MSTORE POP JUMP JUMPDEST PUSH0 PUSH2 0x3B47 PUSH1 0x29 DUP4 PUSH2 0x2EA2 JUMP JUMPDEST SWAP2 POP PUSH2 0x3B52 DUP3 PUSH2 0x3AED JUMP JUMPDEST PUSH1 0x40 DUP3 ADD SWAP1 POP SWAP2 SWAP1 POP JUMP JUMPDEST PUSH0 PUSH1 0x20 DUP3 ADD SWAP1 POP DUP2 DUP2 SUB PUSH0 DUP4 ADD MSTORE PUSH2 0x3B74 DUP2 PUSH2 0x3B3B JUMP JUMPDEST SWAP1 POP SWAP2 SWAP1 POP JUMP JUMPDEST PUSH32 0x4E6F20616964207265717565737420666F756E64000000000000000000000000 PUSH0 DUP3 ADD MSTORE POP JUMP JUMPDEST PUSH0 PUSH2 0x3BAF PUSH1 0x14 DUP4 PUSH2 0x2EA2 JUMP JUMPDEST SWAP2 POP PUSH2 0x3BBA DUP3 PUSH2 0x3B7B JUMP JUMPDEST PUSH1 0x20 DUP3 ADD SWAP1 POP SWAP2 SWAP1 POP JUMP JUMPDEST PUSH0 PUSH1 0x20 DUP3 ADD SWAP1 POP DUP2 DUP2 SUB PUSH0 DUP4 ADD MSTORE PUSH2 0x3BDC DUP2 PUSH2 0x3BA3 JUMP JUMPDEST SWAP1 POP SWAP2 SWAP1 POP JUMP JUMPDEST PUSH32 0x526561736F6E2063616E6E6F7420626520656D70747900000000000000000000 PUSH0 DUP3 ADD MSTORE POP JUMP JUMPDEST PUSH0 PUSH2 0x3C17 PUSH1 0x16 DUP4 PUSH2 0x2EA2 JUMP JUMPDEST SWAP2 POP PUSH2 0x3C22 DUP3 PUSH2 0x3BE3 JUMP JUMPDEST PUSH1 0x20 DUP3 ADD SWAP1 POP SWAP2 SWAP1 POP JUMP JUMPDEST PUSH0 PUSH1 0x20 DUP3 ADD SWAP1 POP DUP2 DUP2 SUB PUSH0 DUP4 ADD MSTORE PUSH2 0x3C44 DUP2 PUSH2 0x3C0B JUMP JUMPDEST SWAP1 POP SWAP2 SWAP1 POP JUMP JUMPDEST PUSH32 0x416C7265616479206170706C6965640000000000000000000000000000000000 PUSH0 DUP3 ADD MSTORE POP JUMP JUMPDEST PUSH0 PUSH2 0x3C7F PUSH1 0xF DUP4 PUSH2 0x2EA2 JUMP JUMPDEST SWAP2 POP PUSH2 0x3C8A DUP3 PUSH2 0x3C4B JUMP JUMPDEST PUSH1 0x20 DUP3 ADD SWAP1 POP SWAP2 SWAP1 POP JUMP JUMPDEST PUSH0 PUSH1 0x20 DUP3 ADD SWAP1 POP DUP2 DUP2 SUB PUSH0 DUP4 ADD MSTORE PUSH2 0x3CAC DUP2 PUSH2 0x3C73 JUMP JUMPDEST SWAP1 POP SWAP2 SWAP1 POP JUMP JUMPDEST PUSH0 DUP2 SWAP1 POP DUP2 PUSH0 MSTORE PUSH1 0x20 PUSH0 KECCAK256 SWAP1 POP SWAP2 SWAP1 POP JUMP JUMPDEST PUSH0 PUSH1 0x20 PUSH1 0x1F DUP4 ADD DIV SWAP1 POP SWAP2 SWAP1 POP JUMP JUMPDEST PUSH0 DUP3 DUP3 SHL SWAP1 POP SWAP3 SWAP2 POP POP JUMP JUMPDEST PUSH0 PUSH1 0x8 DUP4 MUL PUSH2 0x3D0F PUSH32 0xFFFFFFFFFFFFFFFFFFFFFFFFFFFFFFFFFFFFFFFFFFFFFFFFFFFFFFFFFFFFFFFF DUP3 PUSH2 0x3CD4 JUMP JUMPDEST PUSH2 0x3D19 DUP7 DUP4 PUSH2 0x3CD4 JUMP JUMPDEST SWAP6 POP DUP1 NOT DUP5 AND SWAP4 POP DUP1 DUP7 AND DUP5 OR SWAP3 POP POP POP SWAP4 SWAP3 POP POP POP JUMP JUMPDEST PUSH0 PUSH2 0x3D4B PUSH2 0x3D46 PUSH2 0x3D41 DUP5 PUSH2 0x2D0F JUMP JUMPDEST PUSH2 0x3153 JUMP JUMPDEST PUSH2 0x2D0F JUMP JUMPDEST SWAP1 POP SWAP2 SWAP1 POP JUMP JUMPDEST PUSH0 DUP2 SWAP1 POP SWAP2 SWAP1 POP JUMP JUMPDEST PUSH2 0x3D64 DUP4 PUSH2 0x3D31 JUMP JUMPDEST PUSH2 0x3D78 PUSH2 0x3D70 DUP3 PUSH2 0x3D52 JUMP JUMPDEST DUP5 DUP5 SLOAD PUSH2 0x3CE0 JUMP JUMPDEST DUP3 SSTORE POP POP POP POP JUMP JUMPDEST PUSH0 PUSH0 SWAP1 POP SWAP1 JUMP JUMPDEST PUSH2 0x3D8F PUSH2 0x3D80 JUMP JUMPDEST PUSH2 0x3D9A DUP2 DUP5 DUP5 PUSH2 0x3D5B JUMP JUMPDEST POP POP POP JUMP JUMPDEST JUMPDEST DUP2 DUP2 LT ISZERO PUSH2 0x3DBD JUMPI PUSH2 0x3DB2 PUSH0 DUP3 PUSH2 0x3D87 JUMP JUMPDEST PUSH1 0x1 DUP2 ADD SWAP1 POP PUSH2 0x3DA0 JUMP JUMPDEST POP POP JUMP JUMPDEST PUSH1 0x1F DUP3 GT ISZERO PUSH2 0x3E02 JUMPI PUSH2 0x3DD3 DUP2 PUSH2 0x3CB3 JUMP JUMPDEST PUSH2 0x3DDC DUP5 PUSH2 0x3CC5 JUMP JUMPDEST DUP2 ADD PUSH1 0x20 DUP6 LT ISZERO PUSH2 0x3DEB JUMPI DUP2 SWAP1 POP JUMPDEST PUSH2 0x3DFF PUSH2 0x3DF7 DUP6 PUSH2 0x3CC5 JUMP JUMPDEST DUP4 ADD DUP3 PUSH2 0x3D9F JUMP JUMPDEST POP POP JUMPDEST POP POP POP JUMP JUMPDEST PUSH0 DUP3 DUP3 SHR SWAP1 POP SWAP3 SWAP2 POP POP JUMP JUMPDEST PUSH0 PUSH2 0x3E22 PUSH0 NOT DUP5 PUSH1 0x8 MUL PUSH2 0x3E07 JUMP JUMPDEST NOT DUP1 DUP4 AND SWAP2 POP POP SWAP3 SWAP2 POP POP JUMP JUMPDEST PUSH0 PUSH2 0x3E3A DUP4 DUP4 PUSH2 0x3E13 JUMP JUMPDEST SWAP2 POP DUP3 PUSH1 0x2 MUL DUP3 OR SWAP1 POP SWAP3 SWAP2 POP POP JUMP JUMPDEST PUSH2 0x3E53 DUP3 PUSH2 0x2E98 JUMP JUMPDEST PUSH8 0xFFFFFFFFFFFFFFFF DUP2 GT ISZERO PUSH2 0x3E6C JUMPI PUSH2 0x3E6B PUSH2 0x31CF JUMP JUMPDEST JUMPDEST PUSH2 0x3E76 DUP3 SLOAD PUSH2 0x3677 JUMP JUMPDEST PUSH2 0x3E81 DUP3 DUP3 DUP6 PUSH2 0x3DC1 JUMP JUMPDEST PUSH0 PUSH1 0x20 SWAP1 POP PUSH1 0x1F DUP4 GT PUSH1 0x1 DUP2 EQ PUSH2 0x3EB2 JUMPI PUSH0 DUP5 ISZERO PUSH2 0x3EA0 JUMPI DUP3 DUP8 ADD MLOAD SWAP1 POP JUMPDEST PUSH2 0x3EAA DUP6 DUP3 PUSH2 0x3E2F JUMP JUMPDEST DUP7 SSTORE POP PUSH2 0x3F11 JUMP JUMPDEST PUSH1 0x1F NOT DUP5 AND PUSH2 0x3EC0 DUP7 PUSH2 0x3CB3 JUMP JUMPDEST PUSH0 JUMPDEST DUP3 DUP2 LT ISZERO PUSH2 0x3EE7 JUMPI DUP5 DUP10 ADD MLOAD DUP3 SSTORE PUSH1 0x1 DUP3 ADD SWAP2 POP PUSH1 0x20 DUP6 ADD SWAP5 POP PUSH1 0x20 DUP2 ADD SWAP1 POP PUSH2 0x3EC2 JUMP JUMPDEST DUP7 DUP4 LT ISZERO PUSH2 0x3F04 JUMPI DUP5 DUP10 ADD MLOAD PUSH2 0x3F00 PUSH1 0x1F DUP10 AND DUP3 PUSH2 0x3E13 JUMP JUMPDEST DUP4 SSTORE POP JUMPDEST PUSH1 0x1 PUSH1 0x2 DUP9 MUL ADD DUP9 SSTORE POP POP POP JUMPDEST POP POP POP POP POP POP JUMP JUMPDEST PUSH32 0x4E46412072656A65637465643A20496E656C696769626C65206F7220706F6F72 PUSH0 DUP3 ADD MSTORE PUSH32 0x20726561736F6E00000000000000000000000000000000000000000000000000 PUSH1 0x20 DUP3 ADD MSTORE POP JUMP JUMPDEST PUSH0 PUSH2 0x3F73 PUSH1 0x27 DUP4 PUSH2 0x2EA2 JUMP JUMPDEST SWAP2 POP PUSH2 0x3F7E DUP3 PUSH2 0x3F19 JUMP JUMPDEST PUSH1 0x40 DUP3 ADD SWAP1 POP SWAP2 SWAP1 POP JUMP JUMPDEST PUSH0 PUSH1 0x20 DUP3 ADD SWAP1 POP DUP2 DUP2 SUB PUSH0 DUP4 ADD MSTORE PUSH2 0x3FA0 DUP2 PUSH2 0x3F67 JUMP JUMPDEST SWAP1 POP SWAP2 SWAP1 POP JUMP JUMPDEST PUSH0 PUSH1 0x40 DUP3 ADD SWAP1 POP DUP2 DUP2 SUB PUSH0 DUP4 ADD MSTORE PUSH2 0x3FBF DUP2 DUP6 PUSH2 0x2ED0 JUMP JUMPDEST SWAP1 POP PUSH2 0x3FCE PUSH1 0x20 DUP4 ADD DUP5 PUSH2 0x2D18 JUMP JUMPDEST SWAP4 SWAP3 POP POP POP JUMP JUMPDEST PUSH32 0x4164647265737320686173206E6F7420636C61696D6564206169640000000000 PUSH0 DUP3 ADD MSTORE POP JUMP JUMPDEST PUSH0 PUSH2 0x4009 PUSH1 0x1B DUP4 PUSH2 0x2EA2 JUMP JUMPDEST SWAP2 POP PUSH2 0x4014 DUP3 PUSH2 0x3FD5 JUMP JUMPDEST PUSH1 0x20 DUP3 ADD SWAP1 POP SWAP2 SWAP1 POP JUMP JUMPDEST PUSH0 PUSH1 0x20 DUP3 ADD SWAP1 POP DUP2 DUP2 SUB PUSH0 DUP4 ADD MSTORE PUSH2 0x4036 DUP2 PUSH2 0x3FFD JUMP JUMPDEST SWAP1 POP SWAP2 SWAP1 POP JUMP JUMPDEST PUSH32 0x546F6B656E20646F6573206E6F74206578697374000000000000000000000000 PUSH0 DUP3 ADD MSTORE POP JUMP JUMPDEST PUSH0 PUSH2 0x4071 PUSH1 0x14 DUP4 PUSH2 0x2EA2 JUMP JUMPDEST SWAP2 POP PUSH2 0x407C DUP3 PUSH2 0x403D JUMP JUMPDEST PUSH1 0x20 DUP3 ADD SWAP1 POP SWAP2 SWAP1 POP JUMP JUMPDEST PUSH0 PUSH1 0x20 DUP3 ADD SWAP1 POP DUP2 DUP2 SUB PUSH0 DUP4 ADD MSTORE PUSH2 0x409E DUP2 PUSH2 0x4065 JUMP JUMPDEST SWAP1 POP SWAP2 SWAP1 POP JUMP JUMPDEST PUSH32 0x446F6E6174696F6E206D7573742062652067726561746572207468616E203000 PUSH0 DUP3 ADD MSTORE POP JUMP JUMPDEST PUSH0 PUSH2 0x40D9 PUSH1 0x1F DUP4 PUSH2 0x2EA2 JUMP JUMPDEST SWAP2 POP PUSH2 0x40E4 DUP3 PUSH2 0x40A5 JUMP JUMPDEST PUSH1 0x20 DUP3 ADD SWAP1 POP SWAP2 SWAP1 POP JUMP JUMPDEST PUSH0 PUSH1 0x20 DUP3 ADD SWAP1 POP DUP2 DUP2 SUB PUSH0 DUP4 ADD MSTORE PUSH2 0x4106 DUP2 PUSH2 0x40CD JUMP JUMPDEST SWAP1 POP SWAP2 SWAP1 POP JUMP JUMPDEST PUSH32 0x4E487B7100000000000000000000000000000000000000000000000000000000 PUSH0 MSTORE PUSH1 0x11 PUSH1 0x4 MSTORE PUSH1 0x24 PUSH0 REVERT JUMPDEST PUSH0 PUSH2 0x4144 DUP3 PUSH2 0x2D0F JUMP JUMPDEST SWAP2 POP PUSH2 0x414F DUP4 PUSH2 0x2D0F JUMP JUMPDEST SWAP3 POP DUP3 DUP3 ADD SWAP1 POP DUP1 DUP3 GT ISZERO PUSH2 0x4167 JUMPI PUSH2 0x4166 PUSH2 0x410D JUMP JUMPDEST JUMPDEST SWAP3 SWAP2 POP POP JUMP JUMPDEST PUSH32 0x4F776E61626C653A206E6577206F776E657220697320746865207A65726F2061 PUSH0 DUP3 ADD MSTORE PUSH32 0x6464726573730000000000000000000000000000000000000000000000000000 PUSH1 0x20 DUP3 ADD MSTORE POP JUMP JUMPDEST PUSH0 PUSH2 0x41C7 PUSH1 0x26 DUP4 PUSH2 0x2EA2 JUMP JUMPDEST SWAP2 POP PUSH2 0x41D2 DUP3 PUSH2 0x416D JUMP JUMPDEST PUSH1 0x40 DUP3 ADD SWAP1 POP SWAP2 SWAP1 POP JUMP JUMPDEST PUSH0 PUSH1 0x20 DUP3 ADD SWAP1 POP DUP2 DUP2 SUB PUSH0 DUP4 ADD MSTORE PUSH2 0x41F4 DUP2 PUSH2 0x41BB JUMP JUMPDEST SWAP1 POP SWAP2 SWAP1 POP JUMP JUMPDEST PUSH32 0x4552433732313A207472616E736665722066726F6D20696E636F727265637420 PUSH0 DUP3 ADD MSTORE PUSH32 0x6F776E6572000000000000000000000000000000000000000000000000000000 PUSH1 0x20 DUP3 ADD MSTORE POP JUMP JUMPDEST PUSH0 PUSH2 0x4255 PUSH1 0x25 DUP4 PUSH2 0x2EA2 JUMP JUMPDEST SWAP2 POP PUSH2 0x4260 DUP3 PUSH2 0x41FB JUMP JUMPDEST PUSH1 0x40 DUP3 ADD SWAP1 POP SWAP2 SWAP1 POP JUMP JUMPDEST PUSH0 PUSH1 0x20 DUP3 ADD SWAP1 POP DUP2 DUP2 SUB PUSH0 DUP4 ADD MSTORE PUSH2 0x4282 DUP2 PUSH2 0x4249 JUMP JUMPDEST SWAP1 POP SWAP2 SWAP1 POP JUMP JUMPDEST PUSH32 0x4552433732313A207472616E7366657220746F20746865207A65726F20616464 PUSH0 DUP3 ADD MSTORE PUSH32 0x7265737300000000000000000000000000000000000000000000000000000000 PUSH1 0x20 DUP3 ADD MSTORE POP JUMP JUMPDEST PUSH0 PUSH2 0x42E3 PUSH1 0x24 DUP4 PUSH2 0x2EA2 JUMP JUMPDEST SWAP2 POP PUSH2 0x42EE DUP3 PUSH2 0x4289 JUMP JUMPDEST PUSH1 0x40 DUP3 ADD SWAP1 POP SWAP2 SWAP1 POP JUMP JUMPDEST PUSH0 PUSH1 0x20 DUP3 ADD SWAP1 POP DUP2 DUP2 SUB PUSH0 DUP4 ADD MSTORE PUSH2 0x4310 DUP2 PUSH2 0x42D7 JUMP JUMPDEST SWAP1 POP SWAP2 SWAP1 POP JUMP JUMPDEST PUSH32 0x4F776E61626C653A2063616C6C6572206973206E6F7420746865206F776E6572 PUSH0 DUP3 ADD MSTORE POP JUMP JUMPDEST PUSH0 PUSH2 0x434B PUSH1 0x20 DUP4 PUSH2 0x2EA2 JUMP JUMPDEST SWAP2 POP PUSH2 0x4356 DUP3 PUSH2 0x4317 JUMP JUMPDEST PUSH1 0x20 DUP3 ADD SWAP1 POP SWAP2 SWAP1 POP JUMP JUMPDEST PUSH0 PUSH1 0x20 DUP3 ADD SWAP1 POP DUP2 DUP2 SUB PUSH0 DUP4 ADD MSTORE PUSH2 0x4378 DUP2 PUSH2 0x433F JUMP JUMPDEST SWAP1 POP SWAP2 SWAP1 POP JUMP JUMPDEST PUSH32 0x4552433732313A20617070726F766520746F2063616C6C657200000000000000 PUSH0 DUP3 ADD MSTORE POP JUMP JUMPDEST PUSH0 PUSH2 0x43B3 PUSH1 0x19 DUP4 PUSH2 0x2EA2 JUMP JUMPDEST SWAP2 POP PUSH2 0x43BE DUP3 PUSH2 0x437F JUMP JUMPDEST PUSH1 0x20 DUP3 ADD SWAP1 POP SWAP2 SWAP1 POP JUMP JUMPDEST PUSH0 PUSH1 0x20 DUP3 ADD SWAP1 POP DUP2 DUP2 SUB PUSH0 DUP4 ADD MSTORE PUSH2 0x43E0 DUP2 PUSH2 0x43A7 JUMP JUMPDEST SWAP1 POP SWAP2 SWAP1 POP JUMP JUMPDEST PUSH32 0x4552433732313A207472616E7366657220746F206E6F6E204552433732315265 PUSH0 DUP3 ADD MSTORE PUSH32 0x63656976657220696D706C656D656E7465720000000000000000000000000000 PUSH1 0x20 DUP3 ADD MSTORE POP JUMP JUMPDEST PUSH0 PUSH2 0x4441 PUSH1 0x32 DUP4 PUSH2 0x2EA2 JUMP JUMPDEST SWAP2 POP PUSH2 0x444C DUP3 PUSH2 0x43E7 JUMP JUMPDEST PUSH1 0x40 DUP3 ADD SWAP1 POP SWAP2 SWAP1 POP JUMP JUMPDEST PUSH0 PUSH1 0x20 DUP3 ADD SWAP1 POP DUP2 DUP2 SUB PUSH0 DUP4 ADD MSTORE PUSH2 0x446E DUP2 PUSH2 0x4435 JUMP JUMPDEST SWAP1 POP SWAP2 SWAP1 POP JUMP JUMPDEST PUSH0 DUP2 MLOAD SWAP1 POP SWAP2 SWAP1 POP JUMP JUMPDEST PUSH0 DUP3 DUP3 MSTORE PUSH1 0x20 DUP3 ADD SWAP1 POP SWAP3 SWAP2 POP POP JUMP JUMPDEST PUSH0 PUSH2 0x4499 DUP3 PUSH2 0x4475 JUMP JUMPDEST PUSH2 0x44A3 DUP2 DUP6 PUSH2 0x447F JUMP JUMPDEST SWAP4 POP PUSH2 0x44B3 DUP2 DUP6 PUSH1 0x20 DUP7 ADD PUSH2 0x2EB2 JUMP JUMPDEST PUSH2 0x44BC DUP2 PUSH2 0x2EC0 JUMP JUMPDEST DUP5 ADD SWAP2 POP POP SWAP3 SWAP2 POP POP JUMP JUMPDEST PUSH0 PUSH1 0x80 DUP3 ADD SWAP1 POP PUSH2 0x44DA PUSH0 DUP4 ADD DUP8 PUSH2 0x2E89 JUMP JUMPDEST PUSH2 0x44E7 PUSH1 0x20 DUP4 ADD DUP7 PUSH2 0x2E89 JUMP JUMPDEST PUSH2 0x44F4 PUSH1 0x40 DUP4 ADD DUP6 PUSH2 0x2D18 JUMP JUMPDEST DUP2 DUP2 SUB PUSH1 0x60 DUP4 ADD MSTORE PUSH2 0x4506 DUP2 DUP5 PUSH2 0x448F JUMP JUMPDEST SWAP1 POP SWAP6 SWAP5 POP POP POP POP POP JUMP JUMPDEST PUSH0 DUP2 MLOAD SWAP1 POP PUSH2 0x451F DUP2 PUSH2 0x2D7C JUMP JUMPDEST SWAP3 SWAP2 POP POP JUMP JUMPDEST PUSH0 PUSH1 0x20 DUP3 DUP5 SUB SLT ISZERO PUSH2 0x453A JUMPI PUSH2 0x4539 PUSH2 0x2D49 JUMP JUMPDEST JUMPDEST PUSH0 PUSH2 0x4547 DUP5 DUP3 DUP6 ADD PUSH2 0x4511 JUMP JUMPDEST SWAP2 POP POP SWAP3 SWAP2 POP POP JUMP INVALID PUSH9 0x747470733A2F2F6970 PUSH7 0x732E696F2F6970 PUSH7 0x732F516D526563 PUSH10 0x7069656E744E46544D65 PUSH21 0x616461746168747470733A2F2F697066732E696F2F PUSH10 0x7066732F516D446F6E6F PUSH19 0x4E46544D65746164617461A264697066735822 SLT KECCAK256 PUSH2 0x2C06 0xAB 0xD9 0xDF PUSH32 0x5F121ADAAF5DA548216A8F41C732E2E498CBABB3223BF8E15464736F6C634300 ADDMOD 0x1E STOP CALLER "
		},
		"gasEstimates": {
			"creation": {
				"codeDepositCost": "3576000",
				"executionCost": "infinite",
				"totalCost": "infinite"
			},
			"external": {
				"AID_AMOUNT()": "436",
				"aidRequests(address)": "infinite",
				"aidRequestsList(uint256)": "4989",
				"applyForAid(string)": "infinite",
				"approve(address,uint256)": "infinite",
				"approveRecipient(address)": "55347",
				"approvedRecipients(address)": "2966",
				"badgeNFT()": "infinite",
				"balanceOf(address)": "2909",
				"claimAid()": "infinite",
				"donate()": "infinite",
				"donations(uint256)": "infinite",
				"flagAddress(address)": "27132",
				"flaggedAddresses(address)": "2945",
				"getAidRequests()": "infinite",
				"getApproved(uint256)": "5259",
				"getDonations()": "infinite",
				"hasClaimedAid(address)": "2944",
				"hasDonated(address)": "2923",
				"isApprovedForAll(address,address)": "infinite",
				"mintDonorNFT(address)": "infinite",
				"mintRecipientNFT(address)": "infinite",
				"name()": "infinite",
				"owner()": "2560",
				"ownerOf(uint256)": "3115",
				"renounceOwnership()": "30458",
				"safeTransferFrom(address,address,uint256)": "infinite",
				"safeTransferFrom(address,address,uint256,bytes)": "infinite",
				"setApprovalForAll(address,bool)": "infinite",
				"supportsInterface(bytes4)": "832",
				"symbol()": "infinite",
				"tokenURI(uint256)": "infinite",
				"totalDonated()": "2472",
				"transferFrom(address,address,uint256)": "infinite",
				"transferOwnership(address)": "30841",
				"unflagAddress(address)": "27130",
				"withdraw()": "infinite"
			}
		},
		"methodIdentifiers": {
			"AID_AMOUNT()": "c9baa962",
			"aidRequests(address)": "0584c5bd",
			"aidRequestsList(uint256)": "ad4816a6",
			"applyForAid(string)": "8bcb7a50",
			"approve(address,uint256)": "095ea7b3",
			"approveRecipient(address)": "76d45a09",
			"approvedRecipients(address)": "dead610a",
			"badgeNFT()": "4348e0e9",
			"balanceOf(address)": "70a08231",
			"claimAid()": "5b73d3f4",
			"donate()": "ed88c68e",
			"donations(uint256)": "f8626af8",
			"flagAddress(address)": "37cb2e09",
			"flaggedAddresses(address)": "2383d9cd",
			"getAidRequests()": "25dc602c",
			"getApproved(uint256)": "081812fc",
			"getDonations()": "e25f8416",
			"hasClaimedAid(address)": "a51eb843",
			"hasDonated(address)": "17294a11",
			"isApprovedForAll(address,address)": "e985e9c5",
			"mintDonorNFT(address)": "3fdfda3b",
			"mintRecipientNFT(address)": "aa4a153e",
			"name()": "06fdde03",
			"owner()": "8da5cb5b",
			"ownerOf(uint256)": "6352211e",
			"renounceOwnership()": "715018a6",
			"safeTransferFrom(address,address,uint256)": "42842e0e",
			"safeTransferFrom(address,address,uint256,bytes)": "b88d4fde",
			"setApprovalForAll(address,bool)": "a22cb465",
			"supportsInterface(bytes4)": "01ffc9a7",
			"symbol()": "95d89b41",
			"tokenURI(uint256)": "c87b56dd",
			"totalDonated()": "00b37044",
			"transferFrom(address,address,uint256)": "23b872dd",
			"transferOwnership(address)": "f2fde38b",
			"unflagAddress(address)": "4294e544",
			"withdraw()": "3ccfd60b"
		}
	},
	"abi": [
		{
			"inputs": [
				{
					"internalType": "address",
					"name": "badgeContractAddress",
					"type": "address"
				}
			],
			"stateMutability": "nonpayable",
			"type": "constructor"
		},
		{
			"anonymous": false,
			"inputs": [
				{
					"indexed": true,
					"internalType": "address",
					"name": "recipient",
					"type": "address"
				},
				{
					"indexed": false,
					"internalType": "uint256",
					"name": "amount",
					"type": "uint256"
				},
				{
					"indexed": false,
					"internalType": "uint256",
					"name": "timestamp",
					"type": "uint256"
				}
			],
			"name": "AidClaimed",
			"type": "event"
		},
		{
			"anonymous": false,
			"inputs": [
				{
					"indexed": true,
					"internalType": "address",
					"name": "recipient",
					"type": "address"
				},
				{
					"indexed": false,
					"internalType": "string",
					"name": "reason",
					"type": "string"
				},
				{
					"indexed": false,
					"internalType": "uint256",
					"name": "timestamp",
					"type": "uint256"
				}
			],
			"name": "AidRequested",
			"type": "event"
		},
		{
			"anonymous": false,
			"inputs": [
				{
					"indexed": true,
					"internalType": "address",
					"name": "owner",
					"type": "address"
				},
				{
					"indexed": true,
					"internalType": "address",
					"name": "approved",
					"type": "address"
				},
				{
					"indexed": true,
					"internalType": "uint256",
					"name": "tokenId",
					"type": "uint256"
				}
			],
			"name": "Approval",
			"type": "event"
		},
		{
			"anonymous": false,
			"inputs": [
				{
					"indexed": true,
					"internalType": "address",
					"name": "owner",
					"type": "address"
				},
				{
					"indexed": true,
					"internalType": "address",
					"name": "operator",
					"type": "address"
				},
				{
					"indexed": false,
					"internalType": "bool",
					"name": "approved",
					"type": "bool"
				}
			],
			"name": "ApprovalForAll",
			"type": "event"
		},
		{
			"anonymous": false,
			"inputs": [
				{
					"indexed": true,
					"internalType": "address",
					"name": "recipient",
					"type": "address"
				},
				{
					"indexed": false,
					"internalType": "uint256",
					"name": "timestamp",
					"type": "uint256"
				}
			],
			"name": "ApprovedByNFA",
			"type": "event"
		},
		{
			"anonymous": false,
			"inputs": [
				{
					"indexed": true,
					"internalType": "address",
					"name": "donor",
					"type": "address"
				},
				{
					"indexed": false,
					"internalType": "uint256",
					"name": "amount",
					"type": "uint256"
				},
				{
					"indexed": false,
					"internalType": "uint256",
					"name": "timestamp",
					"type": "uint256"
				}
			],
			"name": "DonationReceived",
			"type": "event"
		},
		{
			"anonymous": false,
			"inputs": [
				{
					"indexed": true,
					"internalType": "address",
					"name": "donor",
					"type": "address"
				},
				{
					"indexed": false,
					"internalType": "uint256",
					"name": "tokenId",
					"type": "uint256"
				}
			],
			"name": "DonorNFTMinted",
			"type": "event"
		},
		{
			"anonymous": false,
			"inputs": [
				{
					"indexed": true,
					"internalType": "address",
					"name": "previousOwner",
					"type": "address"
				},
				{
					"indexed": true,
					"internalType": "address",
					"name": "newOwner",
					"type": "address"
				}
			],
			"name": "OwnershipTransferred",
			"type": "event"
		},
		{
			"anonymous": false,
			"inputs": [
				{
					"indexed": true,
					"internalType": "address",
					"name": "recipient",
					"type": "address"
				},
				{
					"indexed": false,
					"internalType": "uint256",
					"name": "timestamp",
					"type": "uint256"
				}
			],
			"name": "RecipientApproved",
			"type": "event"
		},
		{
			"anonymous": false,
			"inputs": [
				{
					"indexed": true,
					"internalType": "address",
					"name": "recipient",
					"type": "address"
				},
				{
					"indexed": false,
					"internalType": "uint256",
					"name": "tokenId",
					"type": "uint256"
				}
			],
			"name": "RecipientNFTMinted",
			"type": "event"
		},
		{
			"anonymous": false,
			"inputs": [
				{
					"indexed": true,
					"internalType": "address",
					"name": "recipient",
					"type": "address"
				},
				{
					"indexed": false,
					"internalType": "string",
					"name": "reason",
					"type": "string"
				}
			],
			"name": "RejectedByNFA",
			"type": "event"
		},
		{
			"anonymous": false,
			"inputs": [
				{
					"indexed": true,
					"internalType": "address",
					"name": "from",
					"type": "address"
				},
				{
					"indexed": true,
					"internalType": "address",
					"name": "to",
					"type": "address"
				},
				{
					"indexed": true,
					"internalType": "uint256",
					"name": "tokenId",
					"type": "uint256"
				}
			],
			"name": "Transfer",
			"type": "event"
		},
		{
			"inputs": [],
			"name": "AID_AMOUNT",
			"outputs": [
				{
					"internalType": "uint256",
					"name": "",
					"type": "uint256"
				}
			],
			"stateMutability": "view",
			"type": "function"
		},
		{
			"inputs": [
				{
					"internalType": "address",
					"name": "",
					"type": "address"
				}
			],
			"name": "aidRequests",
			"outputs": [
				{
					"internalType": "address",
					"name": "recipient",
					"type": "address"
				},
				{
					"internalType": "string",
					"name": "reason",
					"type": "string"
				},
				{
					"internalType": "uint256",
					"name": "timestamp",
					"type": "uint256"
				},
				{
					"internalType": "bool",
					"name": "approved",
					"type": "bool"
				},
				{
					"internalType": "bool",
					"name": "claimed",
					"type": "bool"
				}
			],
			"stateMutability": "view",
			"type": "function"
		},
		{
			"inputs": [
				{
					"internalType": "uint256",
					"name": "",
					"type": "uint256"
				}
			],
			"name": "aidRequestsList",
			"outputs": [
				{
					"internalType": "address",
					"name": "",
					"type": "address"
				}
			],
			"stateMutability": "view",
			"type": "function"
		},
		{
			"inputs": [
				{
					"internalType": "string",
					"name": "reason",
					"type": "string"
				}
			],
			"name": "applyForAid",
			"outputs": [],
			"stateMutability": "nonpayable",
			"type": "function"
		},
		{
			"inputs": [
				{
					"internalType": "address",
					"name": "to",
					"type": "address"
				},
				{
					"internalType": "uint256",
					"name": "tokenId",
					"type": "uint256"
				}
			],
			"name": "approve",
			"outputs": [],
			"stateMutability": "nonpayable",
			"type": "function"
		},
		{
			"inputs": [
				{
					"internalType": "address",
					"name": "recipient",
					"type": "address"
				}
			],
			"name": "approveRecipient",
			"outputs": [],
			"stateMutability": "nonpayable",
			"type": "function"
		},
		{
			"inputs": [
				{
					"internalType": "address",
					"name": "",
					"type": "address"
				}
			],
			"name": "approvedRecipients",
			"outputs": [
				{
					"internalType": "bool",
					"name": "",
					"type": "bool"
				}
			],
			"stateMutability": "view",
			"type": "function"
		},
		{
			"inputs": [],
			"name": "badgeNFT",
			"outputs": [
				{
					"internalType": "contract AidBadgeNFT",
					"name": "",
					"type": "address"
				}
			],
			"stateMutability": "view",
			"type": "function"
		},
		{
			"inputs": [
				{
					"internalType": "address",
					"name": "owner",
					"type": "address"
				}
			],
			"name": "balanceOf",
			"outputs": [
				{
					"internalType": "uint256",
					"name": "",
					"type": "uint256"
				}
			],
			"stateMutability": "view",
			"type": "function"
		},
		{
			"inputs": [],
			"name": "claimAid",
			"outputs": [],
			"stateMutability": "nonpayable",
			"type": "function"
		},
		{
			"inputs": [],
			"name": "donate",
			"outputs": [],
			"stateMutability": "payable",
			"type": "function"
		},
		{
			"inputs": [
				{
					"internalType": "uint256",
					"name": "",
					"type": "uint256"
				}
			],
			"name": "donations",
			"outputs": [
				{
					"internalType": "address",
					"name": "donor",
					"type": "address"
				},
				{
					"internalType": "uint256",
					"name": "amount",
					"type": "uint256"
				},
				{
					"internalType": "uint256",
					"name": "timestamp",
					"type": "uint256"
				}
			],
			"stateMutability": "view",
			"type": "function"
		},
		{
			"inputs": [
				{
					"internalType": "address",
					"name": "addr",
					"type": "address"
				}
			],
			"name": "flagAddress",
			"outputs": [],
			"stateMutability": "nonpayable",
			"type": "function"
		},
		{
			"inputs": [
				{
					"internalType": "address",
					"name": "",
					"type": "address"
				}
			],
			"name": "flaggedAddresses",
			"outputs": [
				{
					"internalType": "bool",
					"name": "",
					"type": "bool"
				}
			],
			"stateMutability": "view",
			"type": "function"
		},
		{
			"inputs": [],
			"name": "getAidRequests",
			"outputs": [
				{
					"internalType": "address[]",
					"name": "",
					"type": "address[]"
				}
			],
			"stateMutability": "view",
			"type": "function"
		},
		{
			"inputs": [
				{
					"internalType": "uint256",
					"name": "tokenId",
					"type": "uint256"
				}
			],
			"name": "getApproved",
			"outputs": [
				{
					"internalType": "address",
					"name": "",
					"type": "address"
				}
			],
			"stateMutability": "view",
			"type": "function"
		},
		{
			"inputs": [],
			"name": "getDonations",
			"outputs": [
				{
					"components": [
						{
							"internalType": "address",
							"name": "donor",
							"type": "address"
						},
						{
							"internalType": "uint256",
							"name": "amount",
							"type": "uint256"
						},
						{
							"internalType": "uint256",
							"name": "timestamp",
							"type": "uint256"
						}
					],
					"internalType": "struct AidChain.Donation[]",
					"name": "",
					"type": "tuple[]"
				}
			],
			"stateMutability": "view",
			"type": "function"
		},
		{
			"inputs": [
				{
					"internalType": "address",
					"name": "",
					"type": "address"
				}
			],
			"name": "hasClaimedAid",
			"outputs": [
				{
					"internalType": "bool",
					"name": "",
					"type": "bool"
				}
			],
			"stateMutability": "view",
			"type": "function"
		},
		{
			"inputs": [
				{
					"internalType": "address",
					"name": "",
					"type": "address"
				}
			],
			"name": "hasDonated",
			"outputs": [
				{
					"internalType": "bool",
					"name": "",
					"type": "bool"
				}
			],
			"stateMutability": "view",
			"type": "function"
		},
		{
			"inputs": [
				{
					"internalType": "address",
					"name": "owner",
					"type": "address"
				},
				{
					"internalType": "address",
					"name": "operator",
					"type": "address"
				}
			],
			"name": "isApprovedForAll",
			"outputs": [
				{
					"internalType": "bool",
					"name": "",
					"type": "bool"
				}
			],
			"stateMutability": "view",
			"type": "function"
		},
		{
			"inputs": [
				{
					"internalType": "address",
					"name": "donor",
					"type": "address"
				}
			],
			"name": "mintDonorNFT",
			"outputs": [],
			"stateMutability": "nonpayable",
			"type": "function"
		},
		{
			"inputs": [
				{
					"internalType": "address",
					"name": "recipient",
					"type": "address"
				}
			],
			"name": "mintRecipientNFT",
			"outputs": [],
			"stateMutability": "nonpayable",
			"type": "function"
		},
		{
			"inputs": [],
			"name": "name",
			"outputs": [
				{
					"internalType": "string",
					"name": "",
					"type": "string"
				}
			],
			"stateMutability": "view",
			"type": "function"
		},
		{
			"inputs": [],
			"name": "owner",
			"outputs": [
				{
					"internalType": "address",
					"name": "",
					"type": "address"
				}
			],
			"stateMutability": "view",
			"type": "function"
		},
		{
			"inputs": [
				{
					"internalType": "uint256",
					"name": "tokenId",
					"type": "uint256"
				}
			],
			"name": "ownerOf",
			"outputs": [
				{
					"internalType": "address",
					"name": "",
					"type": "address"
				}
			],
			"stateMutability": "view",
			"type": "function"
		},
		{
			"inputs": [],
			"name": "renounceOwnership",
			"outputs": [],
			"stateMutability": "nonpayable",
			"type": "function"
		},
		{
			"inputs": [
				{
					"internalType": "address",
					"name": "from",
					"type": "address"
				},
				{
					"internalType": "address",
					"name": "to",
					"type": "address"
				},
				{
					"internalType": "uint256",
					"name": "tokenId",
					"type": "uint256"
				}
			],
			"name": "safeTransferFrom",
			"outputs": [],
			"stateMutability": "nonpayable",
			"type": "function"
		},
		{
			"inputs": [
				{
					"internalType": "address",
					"name": "from",
					"type": "address"
				},
				{
					"internalType": "address",
					"name": "to",
					"type": "address"
				},
				{
					"internalType": "uint256",
					"name": "tokenId",
					"type": "uint256"
				},
				{
					"internalType": "bytes",
					"name": "data",
					"type": "bytes"
				}
			],
			"name": "safeTransferFrom",
			"outputs": [],
			"stateMutability": "nonpayable",
			"type": "function"
		},
		{
			"inputs": [
				{
					"internalType": "address",
					"name": "operator",
					"type": "address"
				},
				{
					"internalType": "bool",
					"name": "approved",
					"type": "bool"
				}
			],
			"name": "setApprovalForAll",
			"outputs": [],
			"stateMutability": "nonpayable",
			"type": "function"
		},
		{
			"inputs": [
				{
					"internalType": "bytes4",
					"name": "interfaceId",
					"type": "bytes4"
				}
			],
			"name": "supportsInterface",
			"outputs": [
				{
					"internalType": "bool",
					"name": "",
					"type": "bool"
				}
			],
			"stateMutability": "view",
			"type": "function"
		},
		{
			"inputs": [],
			"name": "symbol",
			"outputs": [
				{
					"internalType": "string",
					"name": "",
					"type": "string"
				}
			],
			"stateMutability": "view",
			"type": "function"
		},
		{
			"inputs": [
				{
					"internalType": "uint256",
					"name": "tokenId",
					"type": "uint256"
				}
			],
			"name": "tokenURI",
			"outputs": [
				{
					"internalType": "string",
					"name": "",
					"type": "string"
				}
			],
			"stateMutability": "view",
			"type": "function"
		},
		{
			"inputs": [],
			"name": "totalDonated",
			"outputs": [
				{
					"internalType": "uint256",
					"name": "",
					"type": "uint256"
				}
			],
			"stateMutability": "view",
			"type": "function"
		},
		{
			"inputs": [
				{
					"internalType": "address",
					"name": "from",
					"type": "address"
				},
				{
					"internalType": "address",
					"name": "to",
					"type": "address"
				},
				{
					"internalType": "uint256",
					"name": "tokenId",
					"type": "uint256"
				}
			],
			"name": "transferFrom",
			"outputs": [],
			"stateMutability": "nonpayable",
			"type": "function"
		},
		{
			"inputs": [
				{
					"internalType": "address",
					"name": "newOwner",
					"type": "address"
				}
			],
			"name": "transferOwnership",
			"outputs": [],
			"stateMutability": "nonpayable",
			"type": "function"
		},
		{
			"inputs": [
				{
					"internalType": "address",
					"name": "addr",
					"type": "address"
				}
			],
			"name": "unflagAddress",
			"outputs": [],
			"stateMutability": "nonpayable",
			"type": "function"
		},
		{
			"inputs": [],
			"name": "withdraw",
			"outputs": [],
			"stateMutability": "nonpayable",
			"type": "function"
		}
	]
}